:04000000020089323F
:01000B0032C2
:0100130032BA
:01001B0032B2
:0100230032AA
:03002B000207B019
:01003300329A
:01003B003292
:01004300328A
:01004B003282
:01005300327A
:01005B003272
:01006300326A
:01006B003262
:01007300325A
:01007B003252
:0300830002079DD4
:0300E20002008693
:030086000207EB83
:2000E500758400758801758921758E0A758BB6758DFB75840075C90A75CAF375CBFC75CC35
:20010500F375CDFC75840175C80475C90A75CAF875CBFF75CCF875CDFF75840275C8047585
:20012500C90275CA3D75CB5D75CC3D75CD5D2275840075986075910A2275840075CFE922B7
:2001450075840075E88C2275840075D4182275840075D1032275840F75A48175A61F75E184
:200165000475E3402275840F758C677EB87F0BEE24FFFCEF34FFFD8C068D07EC4D70F0E5BC
:200185008C30E7FB759701758A032275A8A075E70475F704221200E512013412013E12013A
:2001A5004512014C12015312015A12016A12019022AE82AF834389015389FDEE4F6016C204
:2001C5008CC28D758A58758C9ED28C308DFD1EBEFF011F80E622AE82AF834389015389FDA6
:2001E500EE4F6016C28CC28D758CFF758AE7D28C308DFD1EBEFF011F80E622000000002207
:200205001202001202002212020512020022D2A3A20192A0A201B392A1A20092A212020083
:20022500D2A412020575840FAFC8758400D2A3C007120200C2A412020CD0078F8222AF82A1
:20024500C200A2039201C007120213E582D00720E7EEC2A3A20392A0A203B392A1A2029281
:20026500A275840F8FC8758400120200D2A412020CC2A475840F75C8FF758400D2A31202A9
:200285000C22AF8253073F74404FF582C202A204920312024322AF8253070774B84FF582EB
:2002A500C202A2059203120243227E007F008E82A2069205C007C00612029BA20692047585
:2002C5008200120287D006D0077C007D00D202A2069203758200C007C006C005C004120224
:2002E50043D004D005D006D0070CBC00010DC3EC9440ED6480948040D40EBE00010FC3EE81
:200305009408EF6480948040A5227E007F008E82C205C007C00612029BC20475820012026D
:2003250087D006D0077C007D00D202C203758200C007C006C005C004120243D004D005D015
:2003450006D0070CBC00010DC3EC9440ED6480948040D68E82D205C007C00612029BD2046E
:20036500758200120287D006D0077C007D00D202D203758200C007C006C005C00412024333
:20038500D004D005D006D0070CBC00010DC3EC9440ED6480948040D60EBE00010FC3EE948D
:2003A50008EF64809480500302031322E582FF14F582C205C00712029BC2047582001202BD
:2003C50087D0077D007E00D202C203758200C007C006C005120243D005D006D0070DBD003A
:2003E500010EC3ED9440EE6480948040DAEF14F582D20512029BD2047582001202877E007F
:200405007F00D202D203758200C007C006120243D006D0070EBE00010FC3EE9440EF6480F3
:20042500948040DE22E4F50AF50BF508F509C2A4D2A5D2A0D2A175840F75C8FF758400C2C4
:2004450000C201120213E58230E40CC200D201120213E58220E4E8C202C20375823F120244
:2004650043C202D20375823F120243C202C203758240120243C202D203758240120243C20E
:2004850002C2037582B8120243C202D2037582B8120243C202C2037582C0120243C202D2BE
:2004A500037582C0120243C2061202AFD2061202AFC20575820012029BC2047582001202C2
:2004C5008722AF82BF0900503F8F057E00ED24FFF50AEE34FFF50B850A82C205C0071202F1
:2004E5009B850A82D20512029BC204758200120287D204758200120287D007E4F508F5094F
:200505008F821203B1020627C3E5089408E509648094805004C2078002D2077E00EF24E0B5
:20052500F513EE34FFF514900005120D56AE82AF83EE2493FEEF3411FF8E828F83E493FDAC
:20054500D202A20792038D82C007C006120243D006D0078E828F83A3E493FDD202A207929C
:20056500038D82C007C006120243D006D0078E828F83A3A3E493FDD202A20792038D82C016
:2005850007C006120243D006D0078E828F83A3A3A3E493FDD202A20792038D82C007C00658
:2005A500120243D006D0078E828F83A3A3A3A3E493FFD202A20792038F82120243D202A21E
:2005C500079203758200120243D202A2079203758200120243D202A20792037582001202AF
:2005E500430508E4B508020509C3E5089410E50964809480402CE4F508F509050AB50A02A0
:20060500050B850A82C20512029B850A82D20512029BC204758200120287D2047582001270
:200625000287227E007F008E82C205C007C00612029BC204758200120287D006D0078E0463
:20064500EF5401A2E0CC13CC13CCFD7A007B00EA2CF8EB3DF9E82493F582E9340DF583E488
:2006650093F9D202C2038982C007C006C005C004C003C002120243D002D003D004D005D035
:2006850006D0070ABA00010BC3EA9440EB6480948040BC8E82D205C007C00612029BD2044F
:2006A500758200120287D006D0078E04EF5401A2E0CC13CC13CCFD74402CFCE43DFD7A00A3
:2006C5007B00EA2CF8EB3DF9E82493F582E9340DF583E493F9D202D2038982C007C006C042
:2006E50005C004C003C002120243D002D003D004D005D006D0070ABA00010BC3EA9440EB19
:200705006480948040BC0EBE00010FC3EE9408EF64809480500302062C9000781201B6C2B6
:200725000575820712029BC20475820D1202877E0D7F00D202C2037582BDC007C0061202A5
:200745004390001E1201B6D006D0070EBE00010FC3EE9440EF6480948040D8D205758207F8
:2007650012029BD2047582001202877E007F00D202D2037582BDC007C00612024390001E71
:200785001201B6D006D0070EBE00010FC3EE9433EF6480948040D82275FFA5C2CF32AF825C
:2007A50074F855BC4513F5BC8FBB22C0E0C007C006C0D075D000743F55BEF59910990280C1
:2007C500FBE5BE23235403FFE5BF25E025E0FE4F4440547FF59910990280FBC2CFD0D0D0D3
:2007E50006D007D0E03212019A75840012042AC2061202AFD2061202AF120628C20612020D
:20080500AFD2061202AF7473C0E07413C0E0120892158115817513007582001207A3D2CA2C
:200825002082FD7582041203B17582051203B17582061203B1AFBF7E00ACBE7D00EC2EFEE3
:20084500ED3FFFC006C0077481C0E07413C0E0120892E58124FCF581AEBE7F00C006C007FF
:20086500748EC0E07413C0E0120892E58124FCF581AEBF7F00C006C007749DC0E07413C091
:0D088500E0120892E58124FCF581809422A8
:200D9300000000000000000000000000000000000000000000000000000000000000000040
:200DB3000000000000000000000000000000C038041E366CD8B0E06060202038101818087C
:200DD3001018181018101020404070D0C8740E06067EC00000000000000000000000000004
:200DF3000000000000000000000000000000000000000000000000000000000000000000E0
:200E13000000000000000000000000000000000000000000000000000000000000000000BF
:200E33000000000000000000000000000080DFD0D8C4C28509D00000000000000020C020B4
:200E5300000C30408000800000002010E01986CCD0DE8780000000000000000000000000D3
:200E730000000000000000000000000000000000000000000000000000000000000000005F
:200E930000000000000000000000000000000000000000000000000000000000000000003F
:200EB300000000000000000000000000006038098BEB3B1B020100804030100C060100009C
:200ED30000000000020E1160C0000000021B73C3031B61C00000000000000000000000002C
:200EF3000000000000000000000000000000000000000000000000000000000000000000DF
:200F13000000000000000000000000000000000000000000000000000000000000000000BE
:200F3300000000000000000080180C02A170380407030000C02674F9F8F8702000000000CE
:200F5300000000002070F8F8F877047800000001030498708D38200000000000000000001E
:200F730000000000000000000000000000000000000000000000000000000000000000005E
:200F930000000000000000000000000000000000000000000000000000000000000000003E
:200FB30000000000C0701C0E070038C6C20000000000000003FCC04040000303040838E094
:200FD30020180C044341404042E21E00000000000000010E0F060001063CF0C080000000D9
:200FF3000000000000000000000000000000000000000000000000000000000000000000DE
:201013000000000000000000000000000000000000000000000000000000000000000000BD
:2010330000980CE424000000000036198D0000000000C040203F648000000000000086FF4D
:20105300A000000000808484E43F000000008000803010F8201F0000000000039FE0000039
:2010730000000000000000000000000000000000000000000000000000000000000000005D
:2010930000000000000000000000000000000000000000000000000000000000000000003D
:2010B3000003020100000000000000000704000000010000181030202101036343030302C0
:2010D300030303330343310930000000180C070601000100000000000000000000030618BD
:2010F3000000000000000000000000000000000000000000000000000000000000000000DD
:2011130000000000000000000000FF81818181818181818181818181818181818181818128
:2011330081818181818181818181818181818181818181818181818181818181818181817C
:2011530081818181818181818181818181818181818181818181818181818181818181815C
:20117300818181818181818181818181818181818181818181FF00000000000000000000C8
:20119300000000000000005F00000007000700147F147F14242A7F2A122313086462364909
:2011B3005522500005030000001C2241000041221C00082A1C2A0808083E080800503000F1
:2011D300000808080808003030000020100804023E5149453E00427F400042615149462136
:2011F30041454B311814127F1027454545393C4A4949300171090503364949493606494934
:20121300291E003636000000563600000008142241141414141441221408000201510906B7
:20123300324979413E7E1111117E7F494949363E414141227F4141221C7F494949417F09E4
:201253000901013E414151327F0808087F00417F41002040413F017F081422417F404040F8
:20127300407F0204027F7F0408107F3E4141413E7F090909063E4151215E7F091929464677
:201293004949493101017F01013F4040403F1F2040201F7F2018207F6314081463030478E5
:2012B3000403615149454300007F4141020408102041417F00000402010204404040404004
:2012D300000102040020545454787F484444383844444420384444487F3854545418087E5C
:2012F300090102081454543C7F0804047800447D40002040443D00007F10284400417F40EB
:20131300007C041804787C0804047838444444387C14141408081414187C7C080404084806
:2013330054545420043F4440203C4040207C1C2040201C3C4030403C44281028440C5050CB
:20135300503C4464544C44000836410000007F0000004136080008082A1C08081C2A080829
:2013730002205452414E534D49545445520004204144432020203D202575000520414443AB
:19139300304C203D20307825780006204144433048203D203078257800DB
:20089200C012858112E51224FDF8868318868218E493A3B42577C208C209C20AC20BC20CA5
:2008B200C20D790C7700C20EE493A324C64017240A50157005B50C02D20DD20CFAE775F062
:2008D2000AA42AF780E2240A2430B46C04D20880D7B46804D20980D0B4730302092AB4643C
:2008F20006120C04020986B47506120C040209A6B4630518E6188017B47803020965B466A9
:2009120003020ABAB42E06790D7700809B6006120CF60208A2020D10C083C08286F018861E
:200932008318868218300C19C20DC082C083120D736007A3150CE50C70F4120CE1D083D00D
:2009520082120D736006A3120CF680F5D082D0830208A212097D20090C12097D30080612D9
:20097200097D12097D120D080208A2E6120CE6E618020CE7ED30E71CD20BE9F42401F9207F
:200992000912EAF43400FA30080AEBF43400FBECF43400FC200910300808EB7024EC702149
:2009B200C208EA701CD209E97017200E14300C09E50C6005150C120CE17430120CF60208DB
:2009D200A2C082C083120C1E300C60790A30081DEB54F0703619EB540F703019EA54F0709B
:2009F2002A19EA540F702419EF54F0701E790520090BEF540F701419EE54F0700E7903EE2C
:200A1200540F700719ED54F0700119E50CA20B994019F50CC003C002C007C006C005120C90
:200A3200E1D005D006D007D002D003300B19C003C002C007C006C005742D120CF6D005D017
:200A520006D007D002D00320094030082CC005C006C0078A82EBF583120CE6E583120CE703
:200A7200E582120CE6E582120CE7D0E0F582120CE6E582D083D08280058D828E83EF120CA4
:200A9200E7E583120CE6E58380038D82EE120CE7E582120CE6E582120CE7120D08D083D0E3
:200AB20082300E01220208A2300C0EE50CD3950DF50C5028750C008023E6547FFA188603F4
:200AD20008AE82AF839015787D07E4932BA3E4933A5003A3DDF48D0D8E828F83C000120BA3
:200AF200E6C082C083EFB47E02801940112482FDC3EA33FAEB33FBEC33FCDDF48006F4244C
:200B12007F120D1375F01BE4F8FFFEFD90150CE933F9EA33FAEB33FBEC33FC5017E4932DA0
:200B3200D4FD7401933ED4FE7402933FD4FF74039338D4F8A3A3A3A3D5F0D4E47C50FBFAC7
:200B5200F9E50D232354FC8883120D13ED29D4F511EE3AD4F510EF3BD4F50FE5833CD4F565
:200B72000E92D5D083D082D000120BE6C000C3749E9F5005D0000208BAC082120D13D08293
:200B920030D50FE92401F9E43AFAE43BFBE43CFC40E2D20E1209A6200C0CE50D6008120B68
:200BB200D67003D50DF4E50D6015742E120CF67800D20A08E8120BD6120CE7E8B50DF4D03D
:200BD200000208A214C31392D5240EF9E720D501C4540F22E618F9E618FC33E933920BFFD9
:200BF2006003430480E618FBE618FA7900C209D20822E6F9FD18200912AA01E6F91830087F
:200C12000AAC02AB01E6FA18E6F91822E975F06484FE740AC5F084C445F0FD30090122EA26
:200C3200540FF99013AC932DD4FDE94410933ED4FEEAC4540FF99013CC932DD4FDE944103F
:200C5200933ED4FEE94420933400D4FF20080122EB540FF99013FC932DD4FDE94410933E28
:200C7200D4FEE94420933FD4FFE43400FAEBC4540FF990142C932DD4FDE94410933ED4FE40
:200C9200E94420933FD4FFE94430933AD4FAEC540FF990146C7B00120CB4ECC4540FF99017
:200CB20014BC932DD4FDE94410933ED4FEE94420933FD4FFE94430933AD4FAE94440933BBC
:200CD200D4FB227420300D027430120CF6150CE50C70F022C4540F7003300A19D20A249075
:200CF200D43440D4C083C082C000F5821204C7D000D082D08322200AFC7430020CF6D012E6
:010D120022BE
:2013AC00005612682480369248046016722884400002050710121517202325283033353809
:2013CC0000969288848076726864605652484440004081226304458627680950913273147E
:2013EC0000000001010202020303040404050506003672084480165288246096326804405B
:20140C0000551066217632874298530864197530000613192632394552586572788591989F
:20142C00007652280480563208846036128864400085715743281400867157432914008624
:20144C0000040914192429343843485358636872000102030405060708091011121314157E
:20146C00001632486480961228446076920824400072441688603205774921936538108276
:20148C000077553310886644219977543210886500163350678300173450678401183451A4
:2014AC000000000000000101010101010202020200561268248036924804601672288440B6
:2014CC000054096318722781369145005409631800438730741761044891357922660953D5
:2014EC000068360573421079471584522189582600020508101316182124262932343740D4
:20150C0000000050000000250000501200002506005012030025560150127800250639009E
:20152C001253190056760900288804001444020007220100046100005230000026150000F2
:20154C006307000081030000910100009500000048000000240000001200000006000000E6
:1A156C000300000001000000010000007DC5DDC334C2E0BE38BD86BBE4B917
:0600B800E478FFF6D8FD1C
:200D13006040F82582500274FFF582E824F8501ECCCBCAF9E4CC24F85014CBCAF9E4CB24E8
:200D3300F8500BCAF9E4CA24F8500379002224086010F8C3EC13FCEB13FBEA13FAE913F99B
:030D5300D8F122B2
:200096007900E94400601B7A00901586780175A200E493F2A308B8000205A2D9F4DAF27571
:0200B600A2FFA7
:1D0D5600E5828513F0A4C582C0F08514F0A4D0F025F0C5838513F0A42583F583223E
:2000BE007800E84400600A790175A200E4F309D8FC7800E84400600C7900900001E4F0A33E
:0400DE00D8FCD9FA77
:0D008900758121120D8FE582600302008653
:1C0D730020F71430F6148883A88220F507E6A88375830022E280F7E49322E0228F
:040D8F007582002247
:00000001FF
