:040000000200313297
:01000B0032C2
:0100130032BA
:01001B0032B2
:0100230032AA
:03002B0002015778
:06008A00750A0002002EC1
:03002E0002019339
:2000900075FFDE75FFAD22758400758901758E082275840F75A4FF75A5FF75A6FF75A7FF28
:2000B000759CFF759DFF759EFF759FFF75E3402275840F758C677EB87F0BEE24FFFCEF34D0
:2000D000FFFD8C068D07EC4D70F0E58C30E7FB7597012275A80375B8C22212009012009727
:2000F0001200A11200C01200E322AE82AF834389015389FDEE4F6016C28CC28D758A587530
:200110008C9ED28C308DFD1EBEFF011F80E62275B00075A00075900075800022AE82AF8352
:20013000750B0A750C00C007C0061201C5AC82D006D0078C08750B0A750C008E828F831291
:2001500001EEAE828E0922C0E0C082C083C0D0C2CFE50A700ED291E50890023F93F580C219
:2001700090800CD290E50990023F93F580C291050AE50A24FE5003750A00D0D0D083D082A0
:20019000D0E0321200EA7584007E007F008E828F83C007C00612012CD006D0070EBE000113
:1501B0000FC3EE9464EF6480948040E19001F41200FA80D52272
:0C023F007E306D79335B5F707F7B00FFC9
:2001C5007A10E4FBFCE58225E0F582E58333F583EB33FBEC33FCEB950BF5F0EC950C400648
:0901E500FCABF0438201DADD22DB
:06006000E478FFF6D8FD74
:20003E007900E94400601B7A0090024B780175A200E493F2A308B8000205A2D9F4DAF27517
:02005E00A2FFFF
:2001EE00E50B450C60467A01E50B25E0F50BE50C334012F50CE582950BE583950C40030AC6
:20020E0080E6C3E50C13F50CE50B13F50BC3E582950BF5F0E583950C4005F58385F082C370
:0D022E00E50C13F50CE50B13F50BDAE122DE
:200066007800E84400600A790175A200E4F309D8FC7800E84400600C7900900001E4F0A396
:04008600D8FCD9FACF
:0D00310075810C12023BE582600302002E77
:04023B0075820022A6
:00000001FF
