:03000000020006F5
:03005F0002000399
:03000300020551A2
:2000620075FFDE75FFAD22758400758801758921758E18758BB6758DAF75840075C90A759B
:20008200CA3C75CBF675840275C90275CA8D75CB34227584007598702275840075C0417509
:2000A200CFE92275840075E8802275840075D41C2275840075D1032275840F75A48175A6CB
:2000C2001F75E3402275840F758C677EB87F0BEE24FFFCEF34FFFD8C068D07EC4D70F0E545
:2000E2008C30E7FB759701758A832212006212006912009412009B1200A51200AC1200B333
:200102001200BA1200C722AE82AF834389015389FDEE4F6016C28CC28D758A58758C9ED2F6
:200122008C308DFD1EBEFF011F80E622AE82AF834389015389FDEE4F6016C28CC28D758C9B
:20014200FF758AE7D28C308DFD1EBEFF011F80E62275B00075A00075900075800022AF8296
:20016200C2A200D2A4EF0303543FFE5306FC74024EFDA201E433FC4DFE8EC800C2A430001A
:2001820023900001C007C00412012ED004D007D2A4EF2F25E0FD74FC5DFE430602EC4EF557
:2001A200C800C2A4BF0400500B2001089005F012012E800690002B12012E22C2A490001058
:2001C200120109D200C201758230120160900005120109D200C201758230120160900065FD
:2001E20012012ED200C201758230120160D200C201758220120160C200C2017582281201B7
:2002020060C200C201758208120160C200C201758201120160C200C201758206120160C2DE
:2002220000C20175820C12016022000000002212022C12022C2212023112022C22D2A3A2DF
:200242000392A0A203B392A1A20292A212022CD2A412023175840FAFC8758400D2A3C00755
:2002620012022CC2A4120238D0078F8222AF82C202A2059203C00712023FE582D00720E7F0
:20028200EEC2A3A20592A0A205B392A1A20492A275840F8FC875840012022CD2A41202386F
:2002A200C2A475840F75C8FF75840012023822AF8253073F74404FF582C204A206920512D0
:2002C200026F22AF8253070774B84FF582C204A207920512026F227E007F008E82A2089211
:2002E20007C007C0061202C5A20892067582001202B1D006D0077C007D00D204A2089205D4
:20030200758200C007C006C005C00412026FD004D005D006D0070CBC00010DC3EC9440EDAF
:200322006480948040D40EBE00010FC3EE9408EF6480948040A522E4F50AF50BF508F509BA
:20034200C2A4D2A5D2A0D2A175840F75C8FF758400C202C20312023FE58230E40CC202D2A3
:200362000312023FE58220E4E8C204C20575823F12026FC204D20575823F12026FC204C2AE
:200382000575824012026FC204D20575824012026FC204C2057582B812026FC204D2057574
:2003A20082B812026FC204C2057582C012026FC204D2057582C012026FC2081202D9D2084F
:2003C2001202D9C2077582001202C5C2067582001202B122AF82BF090050368F057E00ED71
:2003E20024FFF50AEE34FFF50B850A82C2071202C5850A82D2071202C5C20675820012026F
:20040200B1D2067582001202B1E4F508F50902052DC3E5089408E509648094805004C20931
:200422008002D2097E00EF24E0F517EE34FFF518900005120C19AE82AF83EE2487FEEF34CA
:200442000DFF8E828F83E493FDD204A20992058D82C007C00612026FD006D0078E828F83F2
:20046200A3E493FDD204A20992058D82C007C00612026FD006D0078E828F83A3A3E493FDA3
:20048200D204A20992058D82C007C00612026FD006D0078E828F83A3A3A3E493FDD204A27F
:2004A2000992058D82C007C00612026FD006D0078E828F83A3A3A3A3E493FFD204A2099297
:2004C200058F8212026FD204A209920575820012026FD204A209920575820012026FD20487
:2004E200A209920575820012026F0508E4B508020509C3E5089410E50964809480402CE4F6
:20050200F508F509050AB50A02050B850A82C2071202C5850A82D2071202C5C206758200C9
:200522001202B1D2067582001202B122AF8274F855BC4517F5BC8FBBD2EC0020ECFDAFBF04
:200542007E00ACBE7D00EC4EF582ED4FF583221200ED7584001203397517027582001205CB
:200562002EAE82AF83C007C006120C36AA82AB83ACF0FDC002C003C004C00590851F75F06E
:200582001B743A120AD2AA82AB83ACF0FDE58124FCF581E4C0E0C0E07480C0E003C0E08ACE
:2005A200828B838CF0ED120C91AA82AB83ACF0FDE58124FCF581C005C004C003C002C002D2
:2005C200C003C004C00590000075F0C87442120AD285820C85830D85F00EF50FE58124FC37
:2005E200F581D002D003D004D005D006D007C005C004C003C002C006C0077467C0E0740FEF
:20060200C0E0120651E58124FCF581D002D003D004D005C002C003C004C0057475C0E0747A
:200622000FC0E0120651E58124FAF581C00CC00DC00EC00F7485C0E0740FC0E0120651E566
:0F0642008124FAF5819001F412010902055A2270
:200D8700000000000000005F00000007000700147F147F14242A7F2A122313086462364919
:200DA7005522500005030000001C2241000041221C00082A1C2A0808083E08080050300001
:200DC700000808080808003030000020100804023E5149453E00427F400042615149462146
:200DE70041454B311814127F1027454545393C4A4949300171090503364949493606494944
:200E0700291E003636000000563600000008142241141414141441221408000201510906C7
:200E2700324979413E7E1111117E7F494949363E414141227F4141221C7F494949417F09F4
:200E47000901013E414151327F0808087F00417F41002040413F017F081422417F40404008
:200E6700407F0204027F7F0408107F3E4141413E7F090909063E4151215E7F091929464687
:200E87004949493101017F01013F4040403F1F2040201F7F2018207F6314081463030478F5
:200EA7000403615149454300007F4141020408102041417F00000402010204404040404014
:200EC700000102040020545454787F484444383844444420384444487F3854545418087E6C
:200EE700090102081454543C7F0804047800447D40002040443D00007F10284400417F40FB
:200F0700007C041804787C0804047838444444387C14141408081414187C7C080404084816
:200F270054545420043F4440203C4040207C1C2040201C3C4030403C44281028440C5050DB
:200F4700503C4464544C44000836410000007F0000004136080008082A1C08081C2A080839
:200F6700022041444330203D202530347500042056696E20203D2025322E3366760006202D
:0F0F870054656D70203D2025322E33662A4300BD
:20065100C016858116E51624FDF8868318868218E493A3B42577C20AC20BC20CC20DC20ED2
:20067100C20F79107700C210E493A324C64017240A50157005B51002D20FD20EFAE775F095
:200691000AA42AF780E2240A2430B46C04D20A80D7B46804D20B80D0B473030206E9B464BF
:2006B100061209C3020745B475061209C3020765B4630518E6188017B47803020724B4663D
:2006D10003020879B42E0679117700809B6006120AB5020661020ACFC083C08286F018866B
:2006F1008318868218300E19C20FC082C083120D546007A31510E51070F4120AA0D083D0A7
:2007110082120D546006A3120AB580F5D082D08302066112073C200B0C12073C300A061243
:20073100073C12073C120AC7020661E6120AA5E618020AA6ED30E71CD20DE9F42401F92053
:200751000B12EAF43400FA300A0AEBF43400FBECF43400FC200B10300A08EB7024EC702184
:20077100C20AEA701CD20BE97017201014300E09E51060051510120AA07430120AB5020696
:2007910061C082C0831209DD300E60790A300A1DEB54F0703619EB540F703019EA54F0705F
:2007B1002A19EA540F702419EF54F0701E7905200B0BEF540F701419EE54F0700E7903EE6D
:2007D100540F700719ED54F0700119E510A20D994019F510C003C002C007C006C005120ACC
:2007F100A0D005D006D007D002D003300D19C003C002C007C006C005742D120AB5D005D0DD
:2008110006D007D002D003200B40300A2CC005C006C0078A82EBF583120AA5E583120AA6C8
:20083100E582120AA5E582120AA6D0E0F582120AA5E582D083D08280058D828E83EF120AB2
:20085100A6E583120AA5E58380038D82EE120AA6E582120AA5E582120AA6120AC7D083D0B7
:200871008230100122020661300E0EE510D39511F51050287510008023E6547FFA18860366
:2008910008AE82AF839011627D07E4932BA3E4933A5003A3DDF48D118E828F83C0001209FE
:2008B100A5C082C083EFB47E02801940112482FDC3EA33FAEB33FBEC33FCDDF48006F424D0
:2008D1007F120BA375F01BE4F8FFFEFD9010F6E933F9EA33FAEB33FBEC33FC5017E4932D71
:2008F100D4FD7401933ED4FE7402933FD4FF74039338D4F8A3A3A3A3D5F0D4E47C50FBFA0B
:20091100F9E511232354FC8883120BA3ED29D4F515EE3AD4F514EF3BD4F513E5833CD4F50A
:200931001292D5D083D082D0001209A5C000C3749E9F5005D000020679C082120BA3D082CA
:2009510030D50FE92401F9E43AFAE43BFBE43CFC40E2D210120765200E0CE51160081209E8
:20097100957003D511F4E5116015742E120AB57800D20C08E8120995120AA6E8B511F4D07C
:200991000002066114C31392D52412F9E720D501C4540F22E618F9E618FC33E933920DFF59
:2009B1006003430480E618FBE618FA7900C20BD20A22E6F9FD18200B12AA01E6F918300ABA
:2009D1000AAC02AB01E6FA18E6F91822E975F06484FE740AC5F084C445F0FD300B0122EA68
:2009F100540FF9900F96932DD4FDE94410933ED4FEEAC4540FF9900FB6932DD4FDE94410B7
:200A1100933ED4FEE94420933400D4FF200A0122EB540FF9900FE6932DD4FDE94410933E83
:200A3100D4FEE94420933FD4FFE43400FAEBC4540FF9901016932DD4FDE94410933ED4FE9D
:200A5100E94420933FD4FFE94430933AD4FAEC540FF99010567B00120A73ECC4540FF990B7
:200A710010A6932DD4FDE94410933ED4FEE94420933FD4FFE94430933AD4FAE94440933B19
:200A9100D4FB227420300F027430120AB51510E51070F022C4540F7003300C19D20C2490ED
:200AB100D43440D4C083C082C000F5821203D6D000D082D08322200CFC7430020AB5D01658
:010AD1002202
:200F9600005612682480369248046016722884400002050710121517202325283033353823
:200FB600009692888480767268646056524844400040812263044586276809509132731498
:200FD600000000010102020203030404040505060036720844801652882460963268044075
:200FF6000055106621763287429853086419753000061319263239455258657278859198BA
:2010160000765228048056320884603612886440008571574328140086715743291400863E
:20103600000409141924293438434853586368720001020304050607080910111213141598
:20105600001632486480961228446076920824400072441688603205774921936538108290
:201076000077553310886644219977543210886500163350678300173450678401183451BE
:201096000000000000000101010101010202020200561268248036924804601672288440D0
:2010B6000054096318722781369145005409631800438730741761044891357922660953EF
:2010D6000068360573421079471584522189582600020508101316182124262932343740EE
:2010F6000000005000000025000050120000250600501203002556015012780025063900B9
:2011160012531900567609002888040014440200072201000461000052300000261500000C
:20113600630700008103000091010000950000004800000024000000120000000600000000
:1A1156000300000001000000010000007DC5DDC334C2E0BE38BD86BBE4B931
:200AD200120B75BC0003020C63EF60FA30D502B2D1E583B4FF03020C79E582B4FF03020C9F
:200AF20079258340072482400B020C632483145003020C79F582EA8DF0A4A8F0EA8EF0A45F
:200B120028F8E435F0F9EB8DF0A428E935F0F9E433CA8FF0A429F9EA35F0FAEBF88EF0A432
:200B320029F9EA35F0FAE433FBEC8DF0A429F9EA35F0FAE43BFBE88FF0A42AFAEB35F0FBDA
:200B5200E433CCFD8EF0A42AFAEB35F0FBE43CFCED8FF0A42BFBEC35F0FC20E703120BE6E6
:030B7200020C4230
:200B7500AA82AB83A2F73392D1F5826002D2F7ACF0E58124F9F8E6FD08E6FE0886F008E6E3
:0E0B9500A2F73392D5F5836002D2F7AFF022BB
:06003500E478FFF6D8FD9F
:200BA3006040F82582500274FFF582E824F8501ECCCBCAF9E4CC24F85014CBCAF9E4CB245A
:200BC300F8500BCAF9E4CA24F8500379002224086010F8C3EC13FCEB13FBEA13FAE913F90D
:030BE300D8F12224
:200BE6007804EC7011E58224F8500AF582E4C9CACBFCD8EF22EC7820058220E713D582010E
:130C060022C3E933F9EA33FAEB33FBEC33FCD8EA1582221B
:200013007900E94400601B7A00901170780175A200E493F2A308B8000205A2D9F4DAF2750E
:02003300A2FF2A
:1D0C1900E5828517F0A4C582C0F08518F0A4D0F025F0C5838517F0A42583F5832270
:20003B007800E84400600A790175A200E4F309D8FC7800E84400600C7900900001E4F0A3C1
:04005B00D8FCD9FAFA
:0C0C3600E4AC83AB82FAF9748E020D79F5
:200C4200B98003EA13B34010EA2401FAE43BFBE43CFC50047C800582BC000EBB000BBA00F6
:200C620008E4F5F0F583F58222A2D1E582138CF092F78B838A8222E4F583F58275F080F4B6
:0F0C8200A2D11322E4F583F58275F0C0747F22AE
:200C9100120B7530D502B2D1BF0009BC0003020C86020C79BC0003020C63E583B4FF0BE54A
:200CB10082B4FF03020C86020C63E582B4FF03020C79C395835007247F400B020C6324800D
:200CD100145003020C79F582C3ED9AEE9BEF9C40111582C3EA33F9EB33FAEC33FBE433FC3A
:200CF1008005E4CCCBCAF9C08275F019C3E99DEA9EEB9FEC9400D5F002802D400EE99DF944
:200D1100EA9EFAEB9FFBEC9400FCC3B3E833F8E58233F582E58333F583C3E933F9EA33FAA3
:200D3100EB33FBEC33FC80C4B3E4F938FAE43582FBE43583FCD082500405827C80120BE60E
:030D5100020C5A37
:0D000600758122120D83E582600302000364
:1C0D540020F71430F6148883A88220F507E6A88375830022E280F7E49322E022AE
:130D7000FCABF0AA83A982749EC2D1F582120BE6020C4212
:040D83007582002253
:00000001FF
