:040000000200313297
:01000B0032C2
:030013000207B42D
:01001B0032B2
:0100230032AA
:03002B0002086266
:06008A0075170002002EB4
:03002E0002088144
:2000900075FFDE75FFAD22758400758805758951758E0875840075C80475C90275CA3D75FB
:2000B000CB5D75CC3D75CD5D2275840F75A5FF75A61F75E21075E3402275840F758C677E5F
:2000D000B87F0BEE24FFFCEF34FFFD8C068D07EC4D70F0E58C30E7FB759701758A8322129D
:2000F00000901200971200B91200C922AE82AF834389015389FDEE4F6016C28CC28D758A98
:2001100058758C9ED28C308DFD1EBEFF011F80E622AE82AF834389015389FDEE4F6016C2C0
:200130008CC28D758CFF758AE7D28C308DFD1EBEFF011F80E62275B00075A000759000759F
:20015000800022AF82C2A200D2A4EF0303543FFE5306FC74024EFDA201E433FC4DFE8EC8EF
:2001700000C2A4300023900001C007C004120121D004D007D2A4EF2F25E0FD74FC5DFE4317
:200190000602EC4EF5C800C2A4BF0400500B2001089005F0120121800690002B1201212253
:2001B000C2A49000101200FCD200C2017582301201539000051200FCD200C2017582301288
:2001D0000153900065120121D200C201758230120153D200C201758220120153C200C201D9
:2001F000758228120153C200C201758208120153C200C201758201120153C200C201758221
:2002100006120153C200C20175820C12015322000000002212021F12021F2212022412025C
:200230001F22D2A3A20392A0A203B392A1A20292A212021FD2A412022475840FAFC8758465
:2002500000C00712021FC2A412022BD0078F8222AF82C202A2059203C007120232E582D070
:200270000720E7EEC2A3A20592A0A205B392A1A20492A275840F8FC875840012021FD2A4CC
:2002900012022BC2A475840F75C8FF75840012022B22AF8253073F74404FF582C204A20659
:2002B000920512026022AF8253070774B84FF582C204A2079205120260227E007F008E82D4
:2002D000A2089207C007C0061202B6A20892067582001202A2D006D0077C007D00D204A267
:2002F000089205758200C007C006C005C004120260D004D005D006D0070CBC00010DC3ECF3
:200310009440ED6480948040D40EBE00010FC3EE9408EF6480948040A522E4F50AF50BF511
:2003300008F509C2A4D2A5D2A0D2A175840F75C8FF758400C202C203120232E58230E40C52
:20035000C202D203120232E58220E4E8C204C20575823F120260C204D20575823F120260DD
:20037000C204C205758240120260C204D205758240120260C204C2057582B8120260C20477
:20039000D2057582B8120260C204C2057582C0120260C204D2057582C0120260C2081202F5
:2003B000CAD2081202CAC2077582001202B6C2067582001202A222AF82BF090050368F0577
:2003D0007E00ED24FFF50AEE34FFF50B850A82C2071202B6850A82D2071202B6C206758248
:2003F000001202A2D2067582001202A2E4F508F50902051EC3E5089408E50964809480502C
:2004100004C2098002D2097E00EF24E0F524EE34FFF525900005120DA5AE82AF83EE24E22C
:20043000FEEF340DFF8E828F83E493FDD204A20992058D82C007C006120260D006D0078E86
:20045000828F83A3E493FDD204A20992058D82C007C006120260D006D0078E828F83A3A3A4
:20047000E493FDD204A20992058D82C007C006120260D006D0078E828F83A3A3A3E493FDA4
:20049000D204A20992058D82C007C006120260D006D0078E828F83A3A3A3A3E493FFD2047D
:2004B000A20992058F82120260D204A2099205758200120260D204A20992057582001202BF
:2004D00060D204A20992057582001202600508E4B508020509C3E5089410E5096480948031
:2004F000402CE4F508F509050AB50A02050B850A82C2071202B6850A82D2071202B6C206A1
:200510007582001202A2D2067582001202A222AF82E510C423541FFE2402F51414C403549B
:20053000F8FDC39510D39408F4F515BF400050048F168005EF24C0F516C20785148212028E
:20055000B6C2068516821202A2E51175F028A4FBAFF024C2F9EF340FFA78007C00E829F574
:2005700082EC3AF583E493FE8515F005F0EE800225E0D5F0FBF582D204C205C007C004C0C3
:2005900003C002C001C000120260D000D001D002D003D004D00708B800010CC3E89414EC94
:2005B0006480948040B7E510540770030206570514C207851482C007C0031202B6C206857C
:2005D00016821202A2D003D007EB24C2FCEF340FFEE4F512F513E5122CF582E5133EF583DB
:2005F000A8157D007408C398F8E49DFDE493FA88F005F0EA8002C313D5F0FBF8A912741449
:20061000292CF582E43EF583E493FD8515F005F0ED800225E0D5F0FB48F582D204C205C021
:2006300007C006C004C003120260D003D004D006D0070512E4B512020513C3E5129414E56B
:200650001364809480408F0514C207851482C007C0031202B6C2068516821202A2D003D021
:2006700007EB24C2FEEF340FFF7C147D00EC2EF582ED3FF583AA157B007408C39AFAE49B95
:20069000FBE493F98AF005F0E98002C313D5F0FBF582D204C205C007C006C005C004120231
:2006B00060D004D005D006D0070CBC00010DC3EC9428ED6480948040B422AF0EBF800050EC
:2006D0000AEF6007EF24FDF50E8003750E7FE50E2323540324FF920A92077582071202B662
:2006F000850E82A20A92061202A2AF0EBF48005005EF24C740347E007F00EE243AF582EFC5
:200710003410F583E493FDD204A20A92058D82C007C006120260D006D0070EBE00010FC324
:20073000EE9408EF6480948040D0227E027F008E05C2078D82C007C006C0051202B6D005AB
:20075000D2078D821202B6C2067582001202A2D2067582001202A2D006D0077C007D00D265
:2007700004C205758200C007C006C005C004120260D204D205758200120260D004D005D08C
:2007900006D0070CBC00010DC3EC9440ED6480948040CC0EBE00010FC3EE9408EF64809492
:2007B00080408C22C023C0E0C0F0C082C083C007C006C005C004C003C002C001C000C0D057
:2007D00075D0007E007F00C007C00612073BE50D24FEFD8D0D850C828D1075110212051FCD
:2007F0009000321200FCD006D0070EBE00010FC3EE9408EF6480948040CD7E007F00C0078B
:20081000C00612073B7402250DFD8D0D850C828D1075110212051F9000321200FCD006D08B
:20083000070EBE00010FC3EE9408EF6480948040CDC2AAD2CAD0D0D000D001D002D003D0C6
:2008500004D005D006D007D083D082D0F0D0E0D02332C0E0C0D0C2CF3080110517E517240A
:20087000FD5009751700C2CAC28BD2AAD0D0D0E032E4F508F509F50AF50B1200EF758400D7
:2008900012032A750C06750D1F7442C0E07410C0E01208E11581158112073B850C82850D47
:2008B0001075110012051F9000641200FC12073B850C82850D1075110112051F900064128E
:1108D00000FC12073B1206CA9000641200FC80C82279
:200DE200000000000000005F00000007000700147F147F14242A7F2A1223130864623649BE
:200E02005522500005030000001C2241000041221C00082A1C2A0808083E080800503000A5
:200E2200000808080808003030000020100804023E5149453E00427F4000426151494621EA
:200E420041454B311814127F1027454545393C4A49493001710905033649494936064949E8
:200E6200291E0036360000005636000000081422411414141414412214080002015109066C
:200E8200324979413E7E1111117E7F494949363E414141227F4141221C7F494949417F0999
:200EA2000901013E414151327F0808087F00417F41002040413F017F081422417F404040AD
:200EC200407F0204027F7F0408107F3E4141413E7F090909063E4151215E7F09192946462C
:200EE2004949493101017F01013F4040403F1F2040201F7F2018207F63140814630304789A
:200F02000403615149454300007F4141020408102041417F000004020102044040404040B8
:200F2200000102040020545454787F484444383844444420384444487F3854545418087E10
:200F4200090102081454543C7F0804047800447D40002040443D00007F10284400417F409F
:200F6200007C041804787C0804047838444444387C14141408081414187C7C0804040848BB
:200F820054545420043F4440203C4040207C1C2040201C3C4030403C44281028440C505080
:200FA200503C4464544C44000836410000007F0000004136080008082A1C08081C2A0808DE
:200FC20080C0E0E0E0E0E6FFFFFFF6F6FEFEFEFEFEFEFCF83F7FFFFF7F7F7F7F7F7F7FFF64
:200FE200FF7F03030303010080C0E0E0E0E0E6FFFFFFF6F6FEFEFEFEFEFEFCF83FFFFF7F31
:201002007F7F7F7F7F7F7F7FFFFF03030303010080C0E0E0E0E0E6FFFFFFF6F6FEFEFEFE44
:20102200FEFEFCF8BFFFFF7F3F3F3F3F3F3F3F7FFFDF830303030100FFFFFFFFFFFFFFFFE7
:12104200014A6F676F20646120436170697661726100E0
:2008E100C01E85811EE51E24FDF8868318868218E493A3B42577C20BC20CC20DC20EC20F23
:20090100C21079187700C211E493A324C64017240A50157005B51802D210D20FFAE775F0EE
:200921000AA42AF780E2240A2430B46C04D20B80D7B46804D20C80D0B47303020979B46497
:2009410006120C530209D5B47506120C530209F5B4630518E6188017B478030209B4B466CE
:2009610003020B09B42E0679197700809B6006120D450208F1020D5FC083C08286F0188685
:200981008318868218300F19C210C082C083120DC26007A31518E51870F4120D30D083D001
:2009A10082120DC26006A3120D4580F5D082D0830208F11209CC200C0C1209CC300B0612F8
:2009C10009CC1209CC120D570208F1E6120D35E618020D36ED30E71CD20EE9F42401F92051
:2009E1000C12EAF43400FA300B0AEBF43400FBECF43400FC200C10300B08EB7024EC7021EE
:200A0100C20BEA701CD20CE97017201114300F09E51860051518120D307430120D450208C7
:200A2100F1C082C083120C6D300F60790A300B1DEB54F0703619EB540F703019EA54F070A7
:200A41002A19EA540F702419EF54F0701E7905200C0BEF540F701419EE54F0700E7903EED9
:200A6100540F700719ED54F0700119E518A20E994019F518C003C002C007C006C005120D25
:200A810030D005D006D007D002D003300E19C003C002C007C006C005742D120D45D005D026
:200AA10006D007D002D003200C40300B2CC005C006C0078A82EBF583120D35E583120D360E
:200AC100E582120D35E582120D36D0E0F582120D35E582D083D08280058D828E83EF120D64
:200AE10036E583120D35E58380038D82EE120D36E582120D35E582120D36120D57D083D0B6
:200B010082301101220208F1300F0EE518D39519F51850287518008023E6547FFA1886031F
:200B210008AE82AF839012207D07E4932BA3E4933A5003A3DDF48D198E828F83C000120CA1
:200B410035C082C083EFB47E02801940112482FDC3EA33FAEB33FBEC33FCDDF48006F424AD
:200B61007F120D6275F01BE4F8FFFEFD9011B4E933F9EA33FAEB33FBEC33FC5017E4932D5E
:200B8100D4FD7401933ED4FE7402933FD4FF74039338D4F8A3A3A3A3D5F0D4E47C50FBFA78
:200BA100F9E519232354FC8883120D62ED29D4F51DEE3AD4F51CEF3BD4F51BE5833CD4F597
:200BC1001A92D5D083D082D000120C35C000C3749E9F5005D000020909C082120D62D08249
:200BE10030D50FE92401F9E43AFAE43BFBE43CFC40E2D2111209F5200F0CE5196008120CB7
:200C0100257003D519F4E5196015742E120D457800D20D08E8120C25120D36E8B519F4D087
:200C2100000208F114C31392D5241AF9E720D501C4540F22E618F9E618FC33E933920EFF2B
:200C41006003430480E618FBE618FA7900C20CD20B22E6F9FD18200C12AA01E6F918300B23
:200C61000AAC02AB01E6FA18E6F91822E975F06484FE740AC5F084C445F0FD300C0122EAD4
:200C8100540FF9901054932DD4FDE94410933ED4FEEAC4540FF9901074932DD4FDE94410A6
:200CA100933ED4FEE94420933400D4FF200B0122EB540FF99010A4932DD4FDE94410933E31
:200CC100D4FEE94420933FD4FFE43400FAEBC4540FF99010D4932DD4FDE94410933ED4FE4D
:200CE100E94420933FD4FFE94430933AD4FAEC540FF99011147B00120D03ECC4540FF990D3
:200D01001164932DD4FDE94410933ED4FEE94420933FD4FFE94430933AD4FAE94440933BC7
:200D2100D4FB2274203010027430120D451518E51870F022C4540F7003300D19D20D2490B4
:200D4100D43440D4C083C082C000F5821203C7D000D082D08322200DFC7430020D45D01E38
:010D6100226F
:20105400005612682480369248046016722884400002050710121517202325283033353864
:201074000096928884807672686460565248444000408122630445862768095091327314D9
:201094000000000101020202030304040405050600367208448016528824609632680440B6
:2010B4000055106621763287429853086419753000061319263239455258657278859198FB
:2010D400007652280480563208846036128864400085715743281400867157432914008680
:2010F4000004091419242934384348535863687200010203040506070809101112131415DA
:201114000016324864809612284460769208244000724416886032057749219365381082D1
:201134000077553310886644219977543210886500163350678300173450678401183451FF
:20115400000000000000010101010101020202020056126824803692480460167228844011
:20117400005409631872278136914500540963180043873074176104489135792266095330
:2011940000683605734210794715845221895826000205081013161821242629323437402F
:2011B4000000005000000025000050120000250600501203002556015012780025063900FA
:2011D40012531900567609002888040014440200072201000461000052300000261500004E
:2011F400630700008103000091010000950000004800000024000000120000000600000042
:1A1214000300000001000000010000007DC5DDC334C2E0BE38BD86BBE4B972
:06006000E478FFF6D8FD74
:200D62006040F82582500274FFF582E824F8501ECCCBCAF9E4CC24F85014CBCAF9E4CB2499
:200D8200F8500BCAF9E4CA24F8500379002224086010F8C3EC13FCEB13FBEA13FAE913F94C
:030DA200D8F12263
:20003E007900E94400601B7A0090122E780175A200E493F2A308B8000205A2D9F4DAF27524
:02005E00A2FFFF
:1D0DA500E5828524F0A4C582C0F08525F0A4D0F025F0C5838524F0A42583F58322BC
:200066007800E84400600A790175A200E4F309D8FC7800E84400600C7900900001E4F0A396
:04008600D8FCD9FACF
:0D003100758125120DDEE582600302002EB0
:1C0DC20020F71430F6148883A88220F507E6A88375830022E280F7E49322E02240
:040DDE0075820022F8
:00000001FF
