:03000000020006F5
:06005F0075080002000319
:0300030002026B8B
:2000650075FFDE75FFAD22758400758901758E082275840F75A4FF75A5FF75A6FF75A7FF53
:20008500759CFF759DFF759EFF759FFF75E3402275840F758C677EB87F0BEE24FFFCEF34FB
:2000A500FFFD8C068D07EC4D70F0E58C30E7FB7597012275A80375B8C22212006512006CA8
:2000C5001200761200951200B822AE82AF834389015389FDEE4F6016C28CC28D758A5875DC
:2000E5008C9ED28C308DFD1EBEFF011F80E62275080075B00075A00075900075800075848C
:200105000F75F80075E80075D80075C8007584002285908085A09085B0A08508B075840FF8
:2001250085C80885D8C885E8D885F8E87584002285820B85830C85F00D1202A3AB82AC83C0
:2001450079007A00C004C003C002C0011200F4D001D002D003D0048B128C13900005C002BA
:20016500C001120286E5828583F0D001D0022404FBE435F0FCE4F510F511F50EF50FC3E557
:200185000E9BE50F9C4003020267C3E99403EA94005050C004C003C002C001120116D0010E
:2001A500D002D003D00475840FE510250BFDE511350CFEAF0D8D828E838FF01202BBFD2417
:2001C500D075F004A424DBFE740235F0FFE92EF582EA3FF583E493F5F875840009B9005EFA
:2001E5000A805BB90358BA0055C004C003C002C001120116D001D002D003D00475840FE588
:2002050010250BFDE511350CFEAF0D8D828E838FF01202BBFD24D075F004A424DBFE7402CC
:2002250035F0FFE92EF582EA3FF583E493F5F875840079007A000510E4B5100205118509B2
:2002450082850A83C004C003C002C0011200CFD001D002D003D004050EE4B50E02050F02FE
:2002650001831200F4221200BF7584001200F47509F4750A0190038B75F08012013580EF51
:010285002256
:2002DB00FF8181FF8482FF80C3A1918E42898976181412FF4F8989717C8A897101F1090720
:2002FB00768989764E91917E006666000067640010284400282828004428100006B109062A
:20031B003C425A5CFE1111FEFF8989767E818142FF81817E76898942FF0909017E819172CA
:20033B00FF0808FF81FF810061817F01FF0814E3FF808080FF0404FFFF0E70FF7E81817E34
:20035B00FF11110E7EA1C1FEFF1131CE4689897203FFFF037F80807F3FC0C03FFF1818FF6E
:16037B00817E7E8107F8F807E1918987FFFFFFFF504544524F0078
:06003500E478FFF6D8FD9F
:200013007900E94400601B7A00900391780175A200E493F2A308B8000205A2D9F4DAF275FB
:02003300A2FF2A
:1D028600E5828512F0A4C582C0F08513F0A4D0F025F0C5838512F0A42583F583221C
:20003B007800E84400600A790175A200E4F309D8FC7800E84400600C7900900001E4F0A3C1
:04005B00D8FCD9FAFA
:1802A300AA82AB831202BB6003A380F8C3E5829AF582E5839BF58322C4
:0D0006007581131202D7E58260030200032A
:1C02BB0020F71430F6148883A88220F507E6A88375830022E280F7E49322E02252
:0402D700758200220A
:00000001FF
