:03000000020006F5
:03005F0002000399
:03000300020101F6
:2000620075FFDE75FFAD22758400758901758E082275840F75A4FF75E3402275840F758CE1
:20008200677EB87F0BEE24FFFCEF34FFFD8C068D07EC4D70F0E58C30E7FB7597012275A87D
:2000A2000375B8C22212006212006912007312007D1200A022AE82AF834389015389FDEE5D
:2000C2004F6016C28CC28D758A58758C9ED28C308DFD1EBEFF011F80E622AE82AF83C28C7B
:2000E2004389025389FE758CE7758AE7EE4F600ED28C308DFDC28C1EBEFF011F80EE2212DA
:1B01020000A7758400758000D2809001F41200B7C2809001F41200B780EE228D
:06003500E478FFF6D8FD9F
:200013007900E94400601B7A00900121780175A200E493F2A308B8000205A2D9F4DAF2756D
:02003300A2FF2A
:20003B007800E84400600A790175A200E4F309D8FC7800E84400600C7900900001E4F0A3C1
:04005B00D8FCD9FAFA
:0D00060075810712011DE5826003020003F1
:04011D0075820022C5
:00000001FF
