:040000000200313297
:01000B0032C2
:0100130032BA
:01001B0032B2
:0100230032AA
:03002B0002054487
:03008A0002002E43
:03002E0002058B3D
:20008D0075FFDE75FFAD22758400758801758901758E0875840075C80475C90275CA3D7552
:2000AD00CB5D75CC3D75CD5D2275840F75A5FF75A61F75E22075E3402275840F758C677E52
:2000CD00B87F0BEE24FFFCEF34FFFD8C068D07EC4D70F0E58C30E7FB759701758A8322753D
:2000ED00A8A02212008D1200941200B61200C61200EC22AE82AF834389015389FDEE4F60DF
:20010D0016C28CC28D758A58758C9ED28C308DFD1EBEFF011F80E622AE82AF83438901530C
:20012D0089FDEE4F6016C28CC28D758CFF758AE7D28C308DFD1EBEFF011F80E62275B00036
:20014D0075A00075900075800022AF82C2A200D2A4EF0303543FFE5306FC74024EFDA20117
:20016D00E433FC4DFE8EC800C2A4300023900001C007C004120125D004D007D2A4EF2F254D
:20018D00E0FD74FC5DFE430602EC4EF5C800C2A4BF0400500B2001089005F0120125800678
:2001AD0090002B12012522C2A4900010120100D200C201758230120157900005120100D264
:2001CD0000C201758230120157900065120125D200C201758230120157D200C201758220BF
:2001ED00120157C200C201758228120157C200C201758208120157C200C2017582011201FC
:20020D0057C200C201758206120157C200C20175820C12015722000000002212022312020D
:20022D00232212022812022322D2A3A20392A0A203B392A1A20292A2120223D2A41202283F
:20024D0075840FAFC8758400C007120223C2A412022FD0078F8222AF82C202A2059203C077
:20026D0007120236E582D00720E7EEC2A3A20592A0A205B392A1A20492A275840F8FC87574
:20028D008400120223D2A412022FC2A475840F75C8FF75840012022F22C2A4D2A5D2A0D2B4
:2002AD00A175840F75C8FF758400C202C203120236E58230E40CC202D203120236E582208F
:2002CD00E4E8C204C20575823F120264C204D20575823F120264C204C20575824012026483
:2002ED00C204D205758240120264C204C2057582B8120264C204D2057582B8120264C20467
:20030D00C2057582C0120264C204D2057582C012026422AF8253073F74404FF582C204A240
:20032D0006920512026422AF8253070774B84FF582C204A2079205120264227E007F008ECA
:20034D0082A2089207C007C006120334A2089206758200120320D006D0077C007D00D2040B
:20036D00A2089205758200C007C006C005C004120264D004D005D006D0070CBC00010DC3BB
:20038D00EC9440ED6480948040D40EBE00010FC3EE9408EF6480948040A522AF82BF090087
:2003AD0050368F057E00ED24FFF50AEE34FFF50B850A82C207120334850A82D20712033412
:2003CD00C206758200120320D206758200120320E4F508F5090204FFC3E5089408E5096496
:2003ED008094805004C2098002D2097E00EF24E0F514EE34FFF515900005120A9AAE82AF11
:20040D0083EE24D7FEEF340AFF8E828F83E493FDD204A20992058D82C007C006120264D0A7
:20042D0006D0078E828F83A3E493FDD204A20992058D82C007C006120264D006D0078E82B0
:20044D008F83A3A3E493FDD204A20992058D82C007C006120264D006D0078E828F83A3A382
:20046D00A3E493FDD204A20992058D82C007C006120264D006D0078E828F83A3A3A3A3E4ED
:20048D0093FFD204A20992058F82120264D204A2099205758200120264D204A20992057508
:2004AD008200120264D204A20992057582001202640508E4B508020509C3E5089410E509AE
:2004CD0064809480402CE4F508F509050AB50A02050B850A82C207120334850A82D20712CD
:2004ED000334C206758200120320D20675820012032022209005758200803B20910575828A
:20050D00018033209205758202802B2093057582038023209405758204801B20950575826A
:20052D00058013209605758206800B209705758207800375827F22C023C0E0C0F0C082C0C9
:20054D0083C007C006C005C004C003C002C001C000C0D075D00012050085820CC2CF75A842
:20056D0000D0D0D000D001D002D003D004D005D006D007D083D082D0F0D0E0D02332E4F51F
:20058D0008F509F50AF50B750C7F1200F07584001202A6C208120348D208120348C20775F8
:2005AD008200120334C206758200120320AE0C7F00C006C00774B7C0E0740CC0E01205D6D1
:0905CD00E58124FCF58180E522A2
:200AD700000000000000005F00000007000700147F147F14242A7F2A1223130864623649CC
:200AF7005522500005030000001C2241000041221C00082A1C2A0808083E080800503000B4
:200B1700000808080808003030000020100804023E5149453E00427F4000426151494621F8
:200B370041454B311814127F1027454545393C4A49493001710905033649494936064949F6
:200B5700291E0036360000005636000000081422411414141414412214080002015109067A
:200B7700324979413E7E1111117E7F494949363E414141227F4141221C7F494949417F09A7
:200B97000901013E414151327F0808087F00417F41002040413F017F081422417F404040BB
:200BB700407F0204027F7F0408107F3E4141413E7F090909063E4151215E7F09192946463A
:200BD7004949493101017F01013F4040403F1F2040201F7F2018207F6314081463030478A8
:200BF7000403615149454300007F4141020408102041417F000004020102044040404040C7
:200C1700000102040020545454787F484444383844444420384444487F3854545418087E1E
:200C3700090102081454543C7F0804047800447D40002040443D00007F10284400417F40AD
:200C5700007C041804787C0804047838444444387C14141408081414187C7C0804040848C9
:200C770054545420043F4440203C4040207C1C2040201C3C4030403C44281028440C50508E
:200C9700503C4464544C44000836410000007F0000004136080008082A1C08081C2A0808EC
:080CB700017661723D25640025
:2005D600C013858113E51324FDF8868318868218E493A3B42577C20AC20BC20CC20DC20E57
:2005F600C20F790D7700C210E493A324C64017240A50157005B50D02D20FD20EFAE775F017
:200616000AA42AF780E2240A2430B46C04D20A80D7B46804D20B80D0B4730302066EB464B5
:20063600061209480206CAB475061209480206EAB4630518E6188017B478030206A9B46622
:20065600030207FEB42E06790E7700809B6006120A3A0205E6020A54C083C08286F01886D7
:200676008318868218300E19C20FC082C083120AB76007A3150DE50D70F4120A25D083D043
:2006960082120AB76006A3120A3A80F5D082D0830205E61206C1200B0C1206C1300A06124E
:2006B60006C11206C1120A4C0205E6E6120A2AE618020A2BED30E71CD20DE9F42401F920B4
:2006D6000B12EAF43400FA300A0AEBF43400FBECF43400FC200B10300A08EB7024EC702100
:2006F600C20AEA701CD20BE97017201014300E09E50D6005150D120A257430120A3A02050F
:20071600E6C082C083120962300E60790A300A1DEB54F0703619EB540F703019EA54F070D0
:200736002A19EA540F702419EF54F0701E7905200B0BEF540F701419EE54F0700E7903EEE8
:20075600540F700719ED54F0700119E50DA20D994019F50DC003C002C007C006C005120A4D
:2007760025D005D006D007D002D003300D19C003C002C007C006C005742D120A3AD005D04E
:2007960006D007D002D003200B40300A2CC005C006C0078A82EBF583120A2AE583120A2B3A
:2007B600E582120A2AE582120A2BD0E0F582120A2AE582D083D08280058D828E83EF120A9F
:2007D6002BE583120A2AE58380038D82EE120A2BE582120A2AE582120A2B120A4CD083D015
:2007F60082301001220205E6300E0EE50DD3950EF50D5028750D008023E6547FFA1886036A
:2008160008AE82AF83900E8B7D07E4932BA3E4933A5003A3DDF48D0E8E828F83C000120956
:200836002AC082C083EFB47E02801940112482FDC3EA33FAEB33FBEC33FCDDF48006F424C6
:200856007F120A5775F01BE4F8FFFEFD900E1FE933F9EA33FAEB33FBEC33FC5017E4932D12
:20087600D4FD7401933ED4FE7402933FD4FF74039338D4F8A3A3A3A3D5F0D4E47C50FBFA86
:20089600F9E50E232354FC8883120A57ED29D4F512EE3AD4F511EF3BD4F510E5833CD4F5DF
:2008B6000F92D5D083D082D00012092AC000C3749E9F5005D0000205FEC082120A57D0828D
:2008D60030D50FE92401F9E43AFAE43BFBE43CFC40E2D2101206EA200E0CE50E60081209E3
:2008F6001A7003D50EF4E50E6015742E120A3A7800D20C08E812091A120A2BE8B50EF4D0ED
:20091600000205E614C31392D5240FF9E720D501C4540F22E618F9E618FC33E933920DFF53
:200936006003430480E618FBE618FA7900C20BD20A22E6F9FD18200B12AA01E6F918300A35
:200956000AAC02AB01E6FA18E6F91822E975F06484FE740AC5F084C445F0FD300B0122EAE3
:20097600540FF9900CBF932DD4FDE94410933ED4FEEAC4540FF9900CDF932DD4FDE94410E6
:20099600933ED4FEE94420933400D4FF200A0122EB540FF9900D0F932DD4FDE94410933ED8
:2009B600D4FEE94420933FD4FFE43400FAEBC4540FF9900D3F932DD4FDE94410933ED4FEF3
:2009D600E94420933FD4FFE94430933AD4FAEC540FF9900D7F7B001209F8ECC4540FF99089
:2009F6000DCF932DD4FDE94410933ED4FEE94420933FD4FFE94430933AD4FAE94440933B6F
:200A1600D4FB227420300F027430120A3A150DE50D70F022C4540F7003300C19D20C2490E9
:200A3600D43440D4C083C082C000F5821203A8D000D082D08322200CFC7430020A3AD0137F
:010A5600227D
:200CBF000056126824803692480460167228844000020507101215172023252830333538FD
:200CDF00009692888480767268646056524844400040812263044586276809509132731472
:200CFF0000000001010202020303040404050506003672084480165288246096326804404F
:200D1F00005510662176328742985308641975300006131926323945525865727885919893
:200D3F00007652280480563208846036128864400085715743281400867157432914008618
:200D5F00000409141924293438434853586368720001020304050607080910111213141572
:200D7F0000163248648096122844607692082440007244168860320577492193653810826A
:200D9F00007755331088664421997754321088650016335067830017345067840118345198
:200DBF000000000000000101010101010202020200561268248036924804601672288440AA
:200DDF000054096318722781369145005409631800438730741761044891357922660953C9
:200DFF000068360573421079471584522189582600020508101316182124262932343740C8
:200E1F00000000500000002500005012000025060050120300255601501278002506390092
:200E3F001253190056760900288804001444020007220100046100005230000026150000E6
:200E5F006307000081030000910100009500000048000000240000001200000006000000DA
:1A0E7F000300000001000000010000007DC5DDC334C2E0BE38BD86BBE4B90B
:06006000E478FFF6D8FD74
:200A57006040F82582500274FFF582E824F8501ECCCBCAF9E4CC24F85014CBCAF9E4CB24A7
:200A7700F8500BCAF9E4CA24F8500379002224086010F8C3EC13FCEB13FBEA13FAE913F95A
:030A9700D8F12271
:20003E007900E94400601B7A00900E99780175A200E493F2A308B8000205A2D9F4DAF275BD
:02005E00A2FFFF
:1D0A9A00E5828514F0A4C582C0F08515F0A4D0F025F0C5838514F0A42583F58322FA
:200066007800E84400600A790175A200E4F309D8FC7800E84400600C7900900001E4F0A396
:04008600D8FCD9FACF
:0D003100758123120AD3E582600302002EC0
:1C0AB70020F71430F6148883A88220F507E6A88375830022E280F7E49322E0224E
:040AD3007582002206
:00000001FF
