:04000000020029329F
:01000B0032C2
:0100130032BA
:01001B0032B2
:0300230002041EB6
:0300820002002653
:030026000205DFF1
:2000850075FFDE75FFAD22758400758841758922758E10758A5D758BB6758C5D758DAF75C6
:2000A500840075C90A75CA3C75CBF675840275C90275CA8D75CB342275840075D84075D94D
:2000C5000475DA4275F95D75FA5D227584007598702275840075C04175CFE9227584007509
:2000E500D41C2275840075D1032275840F75A48575A61F75E10C75E3402275840F758C6719
:200105007EB87F0BEE24FFFCEF34FFFD8C068D07EC4D70F0E58C30E7FB759701758A03227B
:2001250075A8902212008512008C1200BD1200D01200D71200E11200E81200EF1200FF120B
:20014500012522AE82AF834389015389FDEE4F6016C28CC28D758A58758C9ED28C308DFDEC
:200165001EBEFF011F80E622AE82AF834389015389FDEE4F6016C28CC28D758CFF758AE7B9
:20018500D28C308DFD1EBEFF011F80E62275B00075A00075900075800022AF82C2A200D202
:2001A500A4EF0303543FFE5306FC74024EFDA201E433FC4DFE8EC800C2A430002390000159
:2001C500C007C00412016DD004D007D2A4EF2F25E0FD74FC5DFE430602EC4EF5C800C2A45B
:2001E500BF0400500B2001089005F012016D800690002B12016D22C2A4900010120148D298
:2002050000C20175823012019F900005120148D200C20175823012019F90006512016DD298
:2002250000C20175823012019FD200C20175822012019FC200C20175822812019FC200C2E5
:200245000175820812019FC200C20175820112019FC200C20175820612019FC200C201758A
:20026500820C12019F22000000002212026B12026B2212027012026B22D2A3A20392A0A2C2
:2002850003B392A1A20292A212026BD2A412027075840FAFC8758400D2A3C00712026BC22A
:2002A500A4120277D0078F8222AF82C202A2059203C00712027EE582D00720E7EEC2A3A23C
:2002C5000592A0A205B392A1A20492A275840F8FC875840012026BD2A4120277C2A4758444
:2002E5000F75C8FF75840012027722AF8253073F74404FF582C204A20692051202AE22AF2C
:200305008253070774B84FF582C204A20792051202AE227E007F008E82A2089207C007C042
:2003250006120304A20892067582001202F0D006D0077C007D00D204A2089205758200C0E8
:2003450007C006C005C0041202AED004D005D006D0070CBC00010DC3EC9440ED64809480EC
:2003650040D40EBE00010FC3EE9408EF6480948040A522E4F50AF50BF508F509C2A4D2A592
:20038500D2A0D2A175840F75C8FF758400C202C20312027EE58230E40CC202D20312027E69
:2003A500E58220E4E8C204C20575823F1202AEC204D20575823F1202AEC204C20575824007
:2003C5001202AEC204D2057582401202AEC204C2057582B81202AEC204D2057582B8120262
:2003E500AEC204C2057582C01202AEC204D2057582C01202AEC208120318D208120318C26E
:2004050007758200120304C2067582001202F02285829910990280FB22C022C0E0C0F0C001
:2004250082C083C007C006C005C004C003C002C001C000C0D075D0002098030205C27469A0
:20044500B59905B2870205C07461B5990280030204EDE5FC70030205C015FC85FC82120D5B
:200465006DAC82AD83AEF0FFC004C005C006C00790000075F08074431205F9AC82AD83AEB1
:20048500F0FFE58124FCF581C004C005C006C00790000075F0C87442120A85AC82AD83AE36
:2004A500F0FFE58124FCF581E4C0E0C0E07480C0E07443C0E08C828D838EF0EF120C8EAC5A
:2004C50082AD83AEF0FFE58124FCF581C004C005C006C007746FC0E0740FC0E0120604E50F
:2004E5008124FAF5810205C07464B59902800302058E740125FC50030205C005FC85FC8227
:20050500120D6DAC82AD83AEF0FFC004C005C006C00790000075F08074431205F9AC82AD22
:2005250083AEF0FFE58124FCF581C004C005C006C00790000075F0C87442120A85AC82AD95
:2005450083AEF0FFE58124FCF581E4C0E0C0E07480C0E07443C0E08C828D838EF0EF120CC2
:200565008EAC82AD83AEF0FFE58124FCF581C004C005C006C007746FC0E0740FC0E012061D
:2005850004E58124FAF5818032746DB59911748AC0E0740FC0E012060415811581801C853C
:2005A500990CAE997F00C006C00774D2C0E0740FC0E0120604E58124FCF581C298D0D0D053
:2005C50000D001D002D003D004D005D006D007D083D082D0F0D0E0D02232120129758400DC
:1405E50074DFC0E0740FC0E012060415811581D28C80FE22A6
:200D8F00000000000000005F00000007000700147F147F14242A7F2A122313086462364911
:200DAF005522500005030000001C2241000041221C00082A1C2A0808083E080800503000F9
:200DCF00000808080808003030000020100804023E5149453E00427F40004261514946213E
:200DEF0041454B311814127F1027454545393C4A494930017109050336494949360649493C
:200E0F00291E003636000000563600000008142241141414141441221408000201510906BF
:200E2F00324979413E7E1111117E7F494949363E414141227F4141221C7F494949417F09EC
:200E4F000901013E414151327F0808087F00417F41002040413F017F081422417F40404000
:200E6F00407F0204027F7F0408107F3E4141413E7F090909063E4151215E7F09192946467F
:200E8F004949493101017F01013F4040403F1F2040201F7F2018207F6314081463030478ED
:200EAF000403615149454300007F4141020408102041417F0000040201020440404040400C
:200ECF00000102040020545454787F484444383844444420384444487F3854545418087E64
:200EEF00090102081454543C7F0804047800447D40002040443D00007F10284400417F40F3
:200F0F00007C041804787C0804047838444444387C14141408081414187C7C08040408480E
:200F2F0054545420043F4440203C4040207C1C2040201C3C4030403C44281028440C5050D3
:200F4F00503C4464544C44000836410000007F0000004136080008082A1C08081C2A080831
:200F6F0043617267612064652074726162616C686F3A20252E336625250A004D656E753AC5
:200F8F000A69202D20496E7665727465204C45440A61202D2041756D656E74612052504DDE
:200FAF0020646F206D6F746F720A64202D2044696D696E75692052504D20646F206D6F74C2
:1B0FCF006F72005465636C613A20272563270A000A0A496E6963696F0A0A0080
:0B05F900A8811818C6B2E7C6020BCCA0
:20060400C013858113E51324FDF8868318868218E493A3B42577C209C20AC20BC20CC20D2D
:20062400C20E790D7700C20FE493A324C64017240A50157005B50D02D20ED20DFAE775F0EC
:200644000AA42AF780E2240A2430B46C04D20980D7B46804D20A80D0B4730302069CB4645B
:20066400061209760206F8B47506120976020718B4630518E6188017B478030206D7B4660D
:200684000302082CB42E06790E7700809B6006120A68020614020A82C083C08286F01886EF
:2006A4008318868218300D19C20EC082C083120D516007A3150DE50D70F4120A53D083D04C
:2006C40082120D516006A3120A6880F5D082D0830206141206EF200A0C1206EF30090612CC
:2006E40006EF1206EF120A7A020614E6120A58E618020A59ED30E71CD20CE9F42401F92072
:200704000A12EAF43400FA30090AEBF43400FBECF43400FC200A10300908EB7024EC7021D5
:20072400C209EA701CD20AE97017200F14300D09E50D6005150D120A537430120A68020687
:2007440014C082C083120990300D60790A30091DEB54F0703619EB540F703019EA54F07048
:200764002A19EA540F702419EF54F0701E7905200A0BEF540F701419EE54F0700E7903EEBB
:20078400540F700719ED54F0700119E50DA20C994019F50DC003C002C007C006C005120A20
:2007A40053D005D006D007D002D003300C19C003C002C007C006C005742D120A68D005D0C5
:2007C40006D007D002D003200A4030092CC005C006C0078A82EBF583120A58E583120A59B2
:2007E400E582120A58E582120A59D0E0F582120A58E582D083D08280058D828E83EF120AE7
:2008040059E583120A58E58380038D82EE120A59E582120A58E582120A59120A7AD083D0D2
:2008240082300F0122020614300D0EE50DD3950EF50D5028750D008023E6547FFA1886030E
:2008440008AE82AF839011B67D07E4932BA3E4933A5003A3DDF48D0E8E828F83C0001209FA
:2008640058C082C083EFB47E02801940112482FDC3EA33FAEB33FBEC33FCDDF48006F4246A
:200884007F120B5675F01BE4F8FFFEFD90114AE933F9EA33FAEB33FBEC33FC5017E4932DB6
:2008A400D4FD7401933ED4FE7402933FD4FF74039338D4F8A3A3A3A3D5F0D4E47C50FBFA58
:2008C400F9E50E232354FC8883120B56ED29D4F512EE3AD4F511EF3BD4F510E5833CD4F5B1
:2008E4000F92D5D083D082D000120958C000C3749E9F5005D00002062CC082120B56D08202
:2009040030D50FE92401F9E43AFAE43BFBE43CFC40E2D20F120718200D0CE50E6008120987
:20092400487003D50EF4E50E6015742E120A687800D20B08E8120948120A59E8B50EF4D007
:200944000002061414C31392D5240FF9E720D501C4540F22E618F9E618FC33E933920CFFF7
:200964006003430480E618FBE618FA7900C20AD20922E6F9FD18200A12AA01E6F91830090B
:200984000AAC02AB01E6FA18E6F91822E975F06484FE740AC5F084C445F0FD300A0122EAB6
:2009A400540FF9900FEA932DD4FDE94410933ED4FEEAC4540FF990100A932DD4FDE944105B
:2009C400933ED4FEE94420933400D4FF20090122EB540FF990103A932DD4FDE94410933E7D
:2009E400D4FEE94420933FD4FFE43400FAEBC4540FF990106A932DD4FDE94410933ED4FE97
:200A0400E94420933FD4FFE94430933AD4FAEC540FF99010AA7B00120A26ECC4540FF990FD
:200A240010FA932DD4FDE94410933ED4FEE94420933FD4FFE94430933AD4FAE94440933B12
:200A4400D4FB227420300E027430120A68150DE50D70F022C4540F7003300B19D20B249090
:200A6400D43440D4C083C082C000F582120415D000D082D08322200BFC7430020A68D013B6
:010A8400224F
:200FEA000056126824803692480460167228844000020507101215172023252830333538CF
:20100A00009692888480767268646056524844400040812263044586276809509132731443
:20102A00000000010102020203030404040505060036720844801652882460963268044020
:20104A00005510662176328742985308641975300006131926323945525865727885919865
:20106A000076522804805632088460361288644000857157432814008671574329140086EA
:20108A00000409141924293438434853586368720001020304050607080910111213141544
:2010AA0000163248648096122844607692082440007244168860320577492193653810823C
:2010CA0000775533108866442199775432108865001633506783001734506784011834516A
:2010EA0000000000000001010101010102020202005612682480369248046016722884407C
:20110A0000540963187227813691450054096318004387307417610448913579226609539A
:20112A00006836057342107947158452218958260002050810131618212426293234374099
:20114A00000000500000002500005012000025060050120300255601501278002506390064
:20116A001253190056760900288804001444020007220100046100005230000026150000B8
:20118A006307000081030000910100009500000048000000240000001200000006000000AC
:1A11AA000300000001000000010000007DC5DDC334C2E0BE38BD86BBE4B9DD
:200A8500120B28BC0003020C46EF60FA30D502B2D1E583B4FF03020C5CE582B4FF03020C73
:200AA5005C258340072482400B020C462483145003020C5CF582EA8DF0A4A8F0EA8EF0A403
:200AC50028F8E435F0F9EB8DF0A428E935F0F9E433CA8FF0A429F9EA35F0FAEBF88EF0A480
:200AE50029F9EA35F0FAE433FBEC8DF0A429F9EA35F0FAE43BFBE88FF0A42AFAEB35F0FB28
:200B0500E433CCFD8EF0A42AFAEB35F0FBE43CFCED8FF0A42BFBEC35F0FC20E703120B9980
:030B2500020C259A
:200B2800AA82AB83A2F73392D1F5826002D2F7ACF0E58124F9F8E6FD08E6FE0886F008E630
:0E0B4800A2F73392D5F5836002D2F7AFF02208
:06005800E478FFF6D8FD7C
:200B56006040F82582500274FFF582E824F8501ECCCBCAF9E4CC24F85014CBCAF9E4CB24A7
:200B7600F8500BCAF9E4CA24F8500379002224086010F8C3EC13FCEB13FBEA13FAE913F95A
:030B9600D8F12271
:200B99007804EC7011E58224F8500AF582E4C9CACBFCD8EF22EC7820058220E713D582015B
:130BB90022C3E933F9EA33FAEB33FBEC33FCD8EA15822269
:200036007900E94400601B7A009011C4780175A200E493F2A308B8000205A2D9F4DAF27597
:02005600A2FF07
:200BCC00120B287900E583B58202800D5003120C74E583C39582120B56E5D0C465D020E1D4
:200BEC0017EA2DFAEB3EFBEC3FFC50097401120B56EC4480FC020C25C3EA9DFAEB9EFBECA2
:190C0C009FFC500FC3E499F9E49AFAE49BFBE49CFCB2D1120B99020C25C2
:20005E007800E84400600A790175A200E4F309D8FC7800E84400600C7900900001E4F0A39E
:04007E00D8FCD9FAD7
:200C2500B98003EA13B34010EA2401FAE43BFBE43CFC50047C800582BC000EBB000BBA0013
:200C450008E4F5F0F583F58222A2D1E582138CF092F78B838A8222E4F583F58275F080F4D3
:0F0C6500A2D11322E4F583F58275F0C0747F22CB
:1A0C7400E582C583F582A2D133A2D592D11392D5ECCFFCEBCEFBEACDFA2208
:200C8E00120B2830D502B2D1BF0009BC0003020C69020C5CBC0003020C46E583B4FF0BE5F1
:200CAE0082B4FF03020C69020C46E582B4FF03020C5CC395835007247F400B020C46248084
:200CCE00145003020C5CF582C3ED9AEE9BEF9C40111582C3EA33F9EB33FAEC33FBE433FC5A
:200CEE008005E4CCCBCAF9C08275F019C3E99DEA9EEB9FEC9400D5F002802D400EE99DF947
:200D0E00EA9EFAEB9FFBEC9400FCC3B3E833F8E58233F582E58333F583C3E933F9EA33FAA6
:200D2E00EB33FBEC33FC80C4B3E4F938FAE43582FBE43583FCD082500405827C80120B995E
:030D4E00020C3D57
:0D002900758122120D8BE582600302002616
:1C0D510020F71430F6148883A88220F507E6A88375830022E280F7E49322E022B1
:0B0D6D00E4AC82FBFAF97486020D81F1
:130D7800FCABF0AA83A982749EC2D1F582120B99020C2574
:040D8B00758200224B
:00000001FF
