:03000000020006F5
:03005F0002000399
:030003000204B73D
:2000620075FFDE75FFAD22758400758901758E082275840F75A61F75E3402275840F758CBF
:20008200677EB87F0BEE24FFFCEF34FFFD8C068D07EC4D70F0E58C30E7FB759701758A833A
:2000A2002275B8C22212006212006912007312007D1200A322AE82AF834389015389FDEE3B
:2000C2004F6016C28CC28D758A58758C9ED28C308DFD1EBEFF011F80E622AE82AF834389FD
:2000E200015389FDEE4F6016C28CC28D758CFF758AE7D28C308DFD1EBEFF011F80E62275DE
:20010200B00075A00075900075800022AF82C2A200D2A4EF0303543FFE5306FC74024EFD55
:20012200A201E433FC4DFE8EC800C2A4300023900001C007C0041200DCD004D007D2A4EF93
:200142002F25E0FD74FC5DFE430602EC4EF5C800C2A4BF0400500B2001089005F01200DC3F
:20016200800690002B1200DC22C2A49000101200B7D200C20175823012010E9000051200D9
:20018200B7D200C20175823012010E9000651200DCD200C20175823012010ED200C20175FF
:2001A200822012010EC200C20175822812010EC200C20175820812010EC200C20175820193
:2001C20012010EC200C20175820612010EC200C20175820C12010E2200000000221201DA7F
:2001E2001201DA221201DF1201DA22D2A3A20392A0A203B392A1A20292A21201DAD2A412C9
:2002020001DF75840FAFC8758400C0071201DAC2A41201E6D0078F8222AF82C202A2059239
:2002220003C0071201EDE582D00720E7EEC2A3A20592A0A205B392A1A20492A275840F8F83
:20024200C87584001201DAD2A41201E6C2A475840F75C8FF7584001201E622C2A4D2A5D212
:20026200A0D2A175840F75C8FF758400C202C2031201EDE58230E40CC202D2031201EDE59E
:200282008220E4E8C204C20575823F12021BC204D20575823F12021BC204C2057582401224
:2002A200021BC204D20575824012021BC204C2057582B812021BC204D2057582B812021B36
:2002C200C204C2057582C012021BC204D2057582C012021B22AF8253073F74404FF582C2FE
:2002E20004A206920512021B22AF8253070774B84FF582C204A207920512021B227E007F90
:20030200008E82A2089207C007C0061202EBA20892067582001202D7D006D0077C007D0032
:20032200D204A2089205758200C007C006C005C00412021BD004D005D006D0070CBC000149
:200342000DC3EC9440ED6480948040D40EBE00010FC3EE9408EF6480948040A522AF82BF0B
:20036200090050368F057E00ED24FFF50AEE34FFF50B850A82C2071202EB850A82D20712D5
:2003820002EBC2067582001202D7D2067582001202D7E4F508F5090204B6C3E5089408E53E
:2003A20009648094805004C2098002D2097E00EF24E0F513EE34FFF5149000051209B9AE04
:2003C20082AF83EE24F6FEEF3409FF8E828F83E493FDD204A20992058D82C007C0061202D8
:2003E2001BD006D0078E828F83A3E493FDD204A20992058D82C007C00612021BD006D0076A
:200402008E828F83A3A3E493FDD204A20992058D82C007C00612021BD006D0078E828F834C
:20042200A3A3A3E493FDD204A20992058D82C007C00612021BD006D0078E828F83A3A3A3C2
:20044200A3E493FFD204A20992058F8212021BD204A209920575820012021BD204A20992D8
:200462000575820012021BD204A209920575820012021B0508E4B508020509C3E5089410FF
:20048200E50964809480402CE4F508F509050AB50A02050B850A82C2071202EB850A82D28D
:2004A200071202EBC2067582001202D7D2067582001202D722E4F508F509F50AF50B1200BE
:2004C200A775840012025DC2081202FFD2081202FFC2077582001202EBC2067582001202AD
:1304E200D774D6C0E0740BC0E01204F51581158180FE2250
:2009F600000000000000005F00000007000700147F147F14242A7F2A1223130864623649AE
:200A16005522500005030000001C2241000041221C00082A1C2A0808083E08080050300095
:200A3600000808080808003030000020100804023E5149453E00427F4000426151494621DA
:200A560041454B311814127F1027454545393C4A49493001710905033649494936064949D8
:200A7600291E0036360000005636000000081422411414141414412214080002015109065C
:200A9600324979413E7E1111117E7F494949363E414141227F4141221C7F494949417F0989
:200AB6000901013E414151327F0808087F00417F41002040413F017F081422417F4040409D
:200AD600407F0204027F7F0408107F3E4141413E7F090909063E4151215E7F09192946461C
:200AF6004949493101017F01013F4040403F1F2040201F7F2018207F63140814630304788A
:200B16000403615149454300007F4141020408102041417F000004020102044040404040A8
:200B3600000102040020545454787F484444383844444420384444487F3854545418087E00
:200B5600090102081454543C7F0804047800447D40002040443D00007F10284400417F408F
:200B7600007C041804787C0804047838444444387C14141408081414187C7C0804040848AB
:200B960054545420043F4440203C4040207C1C2040201C3C4030403C44281028440C505070
:200BB600503C4464544C44000836410000007F0000004136080008082A1C08081C2A0808CE
:100BD60001236665636861646F73636F6D565000C9
:2004F500C012858112E51224FDF8868318868218E493A3B42577C20AC20BC20CC20DC20E3C
:20051500C20F790C7700C210E493A324C64017240A50157005B50C02D20FD20EFAE775F0FA
:200535000AA42AF780E2240A2430B46C04D20A80D7B46804D20B80D0B4730302058DB46479
:20055500061208670205E9B47506120867020609B4630518E6188017B478030205C8B4666D
:200575000302071DB42E06790D7700809B6006120959020505020973C083C08286F0188640
:200595008318868218300E19C20FC082C0831209D66007A3150CE50C70F4120944D083D0EB
:2005B500821209D66006A312095980F5D082D0830205051205E0200B0C1205E0300A061299
:2005D50005E01205E012096B020505E6120949E61802094AED30E71CD20DE9F42401F920E1
:2005F5000B12EAF43400FA300A0AEBF43400FBECF43400FC200B10300A08EB7024EC7021E2
:20061500C20AEA701CD20BE97017201014300E09E50C6005150C12094474301209590205B6
:2006350005C082C083120881300E60790A300A1DEB54F0703619EB540F703019EA54F07075
:200655002A19EA540F702419EF54F0701E7905200B0BEF540F701419EE54F0700E7903EECA
:20067500540F700719ED54F0700119E50CA20D994019F50CC003C002C007C006C005120932
:2006950044D005D006D007D002D003300D19C003C002C007C006C005742D120959D005D0F3
:2006B50006D007D002D003200B40300A2CC005C006C0078A82EBF583120949E58312094AE0
:2006D500E582120949E58212094AD0E0F582120949E582D083D08280058D828E83EF120928
:2006F5004AE583120949E58380038D82EE12094AE582120949E58212094A12096BD083D042
:200715008230100122020505300E0EE50CD3950DF50C5028750C008023E6547FFA18860330
:2007350008AE82AF83900DB27D07E4932BA3E4933A5003A3DDF48D0D8E828F83C000120814
:2007550049C082C083EFB47E02801940112482FDC3EA33FAEB33FBEC33FCDDF48006F42489
:200775007F12097675F01BE4F8FFFEFD900D46E933F9EA33FAEB33FBEC33FC5017E4932DB0
:20079500D4FD7401933ED4FE7402933FD4FF74039338D4F8A3A3A3A3D5F0D4E47C50FBFA68
:2007B500F9E50D232354FC8883120976ED29D4F511EE3AD4F510EF3BD4F50FE5833CD4F5A7
:2007D5000E92D5D083D082D000120849C000C3749E9F5005D00002051DC082120976D08215
:2007F50030D50FE92401F9E43AFAE43BFBE43CFC40E2D210120609200E0CE50D60081208A8
:20081500397003D50DF4E50D6015742E1209597800D20C08E812083912094AE8B50DF4D058
:200835000002050514C31392D5240EF9E720D501C4540F22E618F9E618FC33E933920DFF17
:200855006003430480E618FBE618FA7900C20BD20A22E6F9FD18200B12AA01E6F918300A17
:200875000AAC02AB01E6FA18E6F91822E975F06484FE740AC5F084C445F0FD300B0122EAC5
:20089500540FF9900BE6932DD4FDE94410933ED4FEEAC4540FF9900C06932DD4FDE944107B
:2008B500933ED4FEE94420933400D4FF200A0122EB540FF9900C36932DD4FDE94410933E94
:2008D500D4FEE94420933FD4FFE43400FAEBC4540FF9900C66932DD4FDE94410933ED4FEAF
:2008F500E94420933FD4FFE94430933AD4FAEC540FF9900CA67B00120917ECC4540FF99026
:200915000CF6932DD4FDE94410933ED4FEE94420933FD4FFE94430933AD4FAE94440933B2A
:20093500D4FB227420300F027430120959150CE50C70F022C4540F7003300C19D20C2490AF
:20095500D43440D4C083C082C000F58212035FD000D082D08322200CFC7430020959D0128D
:01097500225F
:200BE6000056126824803692480460167228844000020507101215172023252830333538D7
:200C060000969288848076726864605652484440004081226304458627680950913273144B
:200C2600000000010102020203030404040505060036720844801652882460963268044028
:200C460000551066217632874298530864197530000613192632394552586572788591986D
:200C66000076522804805632088460361288644000857157432814008671574329140086F2
:200C860000040914192429343843485358636872000102030405060708091011121314154C
:200CA600001632486480961228446076920824400072441688603205774921936538108244
:200CC600007755331088664421997754321088650016335067830017345067840118345172
:200CE600000000000000010101010101020202020056126824803692480460167228844084
:200D06000054096318722781369145005409631800438730741761044891357922660953A2
:200D26000068360573421079471584522189582600020508101316182124262932343740A1
:200D460000000050000000250000501200002506005012030025560150127800250639006C
:200D66001253190056760900288804001444020007220100046100005230000026150000C0
:200D86006307000081030000910100009500000048000000240000001200000006000000B4
:1A0DA6000300000001000000010000007DC5DDC334C2E0BE38BD86BBE4B9E5
:06003500E478FFF6D8FD9F
:200976006040F82582500274FFF582E824F8501ECCCBCAF9E4CC24F85014CBCAF9E4CB2489
:20099600F8500BCAF9E4CA24F8500379002224086010F8C3EC13FCEB13FBEA13FAE913F93C
:0309B600D8F12253
:200013007900E94400601B7A00900DC0780175A200E493F2A308B8000205A2D9F4DAF275C2
:02003300A2FF2A
:1D09B900E5828513F0A4C582C0F08514F0A4D0F025F0C5838513F0A42583F58322DF
:20003B007800E84400600A790175A200E4F309D8FC7800E84400600C7900900001E4F0A3C1
:04005B00D8FCD9FAFA
:0D0006007581221209F2E5826003020003F9
:1C09D60020F71430F6148883A88220F507E6A88375830022E280F7E49322E02230
:0409F20075820022E8
:00000001FF
