:04000000020089323F
:01000B0032C2
:0100130032BA
:01001B0032B2
:0100230032AA
:01002B0032A2
:01003300329A
:01003B003292
:01004300328A
:01004B003282
:01005300327A
:01005B003272
:01006300326A
:01006B003262
:01007300325A
:01007B003252
:030083000206DA98
:0300E20002008693
:030086000206E38C
:2000E50075FFDE75FFAD22758400758805758991758E18758BB6758DC175840075C902759A
:20010500CA3D75CB5D75CC3D75CD5D75840275C80475C90275CA8D75CB342275840075C00D
:200125004175CFE92275840F75A5FF75A61F75E10175E3402275840F758C677EB87F0BEEA0
:2001450024FFFCEF34FFFD8C068D07EC4D70F0E58C30E7FB759701758A832275A88075E671
:200165000275E704221200E51200EC12012012012A12013A12016022AE82AF83438901532D
:2001850089FDEE4F6016C28CC28D758A58758C9ED28C308DFD1EBEFF011F80E622AE82AF14
:2001A500834389015389FDEE4F6016C28CC28D758CFF758AE7D28C308DFD1EBEFF011F8048
:2001C500E62275B00075A00075900075800022AF82C2A200D2A4EF0303543FFE5306FC7462
:2001E500024EFDA201E433FC4DFE8EC800C2A4300023900001C007C0041201A2D004D00721
:20020500D2A4EF2F25E0FD74FC5DFE430602EC4EF5C800C2A4BF0400500B2001089005F004
:200225001201A2800690002B1201A222C2A490001012017DD200C2017582301201D4900023
:200245000512017DD200C2017582301201D49000651201A2D200C2017582301201D4D20042
:20026500C2017582201201D4C200C2017582281201D4C200C2017582081201D4C200C2013D
:200285007582011201D4C200C2017582061201D4C200C20175820C1201D42200000000225E
:2002A5001202A01202A0221202A51202A022D2A3A20392A0A203B392A1A20292A21202A0BD
:2002C500D2A41202A575840FAFC8758400D2A3C0071202A0C2A41202ACD0078F8222AF8221
:2002E500C202A2059203C0071202B3E582D00720E7EEC2A3A20592A0A205B392A1A2049235
:20030500A275840F8FC87584001202A0D2A41202ACC2A475840F75C8FF7584001202AC226F
:20032500AF8253073F74404FF582C204A20692051202E322AF8253070774B84FF582C2040C
:20034500A20792051202E3227E007F008E82A2089207C007C006120339A2089206758200DB
:20036500120325D006D0077C007D00D204A2089205758200C007C006C005C0041202E3D0AD
:2003850004D005D006D0070CBC00010DC3EC9440ED6480948040D40EBE00010FC3EE940857
:2003A500EF6480948040A522E4F50AF50BF508F509C2A4D2A5D2A0D2A175840F75C8FF75F1
:2003C5008400C202C2031202B3E58230E40CC202D2031202B3E58220E4E8C204C205758286
:2003E5003F1202E3C204D20575823F1202E3C204C2057582401202E3C204D2057582401257
:2004050002E3C204C2057582B81202E3C204D2057582B81202E3C204C2057582C01202E341
:20042500C204D2057582C01202E3C20812034DD20812034DC207758200120339C206758237
:200445000012032522AF82BF090050368F057E00ED24FFF50AEE34FFF50B850A82C207128E
:200465000339850A82D207120339C206758200120325D206758200120325E4F508F5090220
:2004850005A1C3E5089408E509648094805004C2098002D2097E00EF24E0F516EE34FFF571
:2004A50017900005120CE8AE82AF83EE2425FEEF340DFF8E828F83E493FDD204A209920511
:2004C5008D82C007C0061202E3D006D0078E828F83A3E493FDD204A20992058D82C007C0F0
:2004E500061202E3D006D0078E828F83A3A3E493FDD204A20992058D82C007C0061202E3C6
:20050500D006D0078E828F83A3A3A3E493FDD204A20992058D82C007C0061202E3D006D059
:20052500078E828F83A3A3A3A3E493FFD204A20992058F821202E3D204A20992057582005C
:200545001202E3D204A20992057582001202E3D204A20992057582001202E30508E4B508E5
:20056500020509C3E5089410E50964809480402CE4F508F509050AB50A02050B850A82C22E
:2005850007120339850A82D207120339C206758200120325D20675820012032522AF82D2A2
:2005A500C5C2C330C3FD7408B5C102800C7410B5C102800585C18280305307FEA20AE43368
:2005C500FE4FF5C2C2C5C2C330C3FD200A0C7418B5C102801185C182800F7440B5C1028048
:2005E5000585C1828003758200228582C2C2C5C2C330C3FD7428B5C102800585C1828003E4
:2006050075820022AF82C20A8F821205A2E582FF600F8F057E00C3E49DF582E49EF58380D9
:200625003C850C821205EFE582FF600F8F057E00C3E49DF582E49EF5838022850D821205F7
:20064500EFE582FF600D7E00C3E49FF582E49EF583800AD2C4C2C320C4FD90000022AF8235
:20066500C20A8F821205A2E582FF600F8F057E00C3E49DF582E49EF5838059850E8212053E
:20068500EFE582FF600F8F057E00C3E49DF582E49EF583803FD20A7582A01205A2E582FF79
:2006A500600D7E00C3E49FF582E49EF5838025C2C2C2C330C3FD7458B5C102800FAEC17F34
:2006C50000C3E49EF582E49FF5838008AEC27F008E828F832253C0BF43C040C2CF321201B8
:2006E5006A75840053C0BF43C0401203AD7405C0E0740FC0E012082415811581750E7F759E
:2007050082A1120663AE82E583FF30E70302080CC3EF648094814003020821750E7F75825D
:20072500A1C007C006120663AC82AD83D006D007ED30E71FC3E49CFAE49DFBC002C003742B
:2007450013C0E0740FC0E0120824E58124FCF581020821AAC27B00C007C006C002C00374EC
:2007650023C0E0740FC0E0120824E58124FCF581D0068E0D750C7F7582A0C006120609ACB9
:2007850082AD83D006D007ED30E71EC3E49CFAE49DFBC002C0037428C0E0740FC0E012081C
:2007A50024E58124FCF58180739001F4C007C00612017DD006D007C3EE94FFEF64809480A7
:2007C500403D7E007F00750C7F8F0D7582A0C007C006120609AC82AD83D006D007ED30E7AA
:2007E5001EC3E49CFCE49DFDC004C0057428C0E0740FC0E0120824E58124FCF581801D0E4C
:1F080500BE00010F020715C006C0077413C0E0740FC0E0120824E58124FCF58180FE2237
:200D2500000000000000005F00000007000700147F147F14242A7F2A12231308646236497B
:200D45005522500005030000001C2241000041221C00082A1C2A0808083E08080050300063
:200D6500000808080808003030000020100804023E5149453E00427F4000426151494621A8
:200D850041454B311814127F1027454545393C4A49493001710905033649494936064949A6
:200DA500291E0036360000005636000000081422411414141414412214080002015109062A
:200DC500324979413E7E1111117E7F494949363E414141227F4141221C7F494949417F0957
:200DE5000901013E414151327F0808087F00417F41002040413F017F081422417F4040406B
:200E0500407F0204027F7F0408107F3E4141413E7F090909063E4151215E7F0919294646E9
:200E25004949493101017F01013F4040403F1F2040201F7F2018207F631408146303047857
:200E45000403615149454300007F4141020408102041417F00000402010204404040404076
:200E6500000102040020545454787F484444383844444420384444487F3854545418087ECE
:200E8500090102081454543C7F0804047800447D40002040443D00007F10284400417F405D
:200EA500007C041804787C0804047838444444387C14141408081414187C7C080404084879
:200EC50054545420043F4440203C4040207C1C2040201C3C4030403C44281028440C50503E
:200EE500503C4464544C44000836410000007F0000004136080008082A1C08081C2A08089C
:200F0500012048656C6C6F20576F726C6400032052204572726F723A20307825780002202F
:130F2500256400032057204572726F723A203078257800ED
:20082400C015858115E51524FDF8868318868218E493A3B42577C20BC20CC20DC20EC20FFB
:20084400C210790F7700C211E493A324C64017240A50157005B50F02D210D20FFAE775F0BE
:200864000AA42AF780E2240A2430B46C04D20B80D7B46804D20C80D0B473030208BCB46413
:2008840006120B96020918B47506120B96020938B4630518E6188017B478030208F7B46640
:2008A40003020A4CB42E0679107700809B6006120C88020834020CA2C083C08286F0188643
:2008C4008318868218300F19C210C082C083120D056007A3150FE50F70F4120C73D083D04C
:2008E40082120D056006A3120C8880F5D082D08302083412090F200C0C12090F300B061268
:20090400090F12090F120C9A020834E6120C78E618020C79ED30E71CD20EE9F42401F9207F
:200924000C12EAF43400FA300B0AEBF43400FBECF43400FC200C10300B08EB7024EC7021AB
:20094400C20BEA701CD20CE97017201114300F09E50F6005150F120C737430120C88020813
:2009640034C082C083120BB0300F60790A300B1DEB54F0703619EB540F703019EA54F070E0
:200984002A19EA540F702419EF54F0701E7905200C0BEF540F701419EE54F0700E7903EE97
:2009A400540F700719ED54F0700119E50FA20E994019F50FC003C002C007C006C005120CF6
:2009C40073D005D006D007D002D003300E19C003C002C007C006C005742D120C88D005D05F
:2009E40006D007D002D003200C40300B2CC005C006C0078A82EBF583120C78E583120C7948
:200A0400E582120C78E582120C79D0E0F582120C78E582D083D08280058D828E83EF120C5C
:200A240079E583120C78E58380038D82EE120C79E582120C78E582120C79120C9AD083D0E6
:200A44008230110122020834300F0EE50FD39510F50F5028750F008023E6547FFA188603BE
:200A640008AE82AF839011047D07E4932BA3E4933A5003A3DDF48D108E828F83C000120B86
:200A840078C082C083EFB47E02801940112482FDC3EA33FAEB33FBEC33FCDDF48006F42428
:200AA4007F120CA575F01BE4F8FFFEFD901098E933F9EA33FAEB33FBEC33FC5017E4932DF7
:200AC400D4FD7401933ED4FE7402933FD4FF74039338D4F8A3A3A3A3D5F0D4E47C50FBFA36
:200AE400F9E510232354FC8883120CA5ED29D4F514EE3AD4F513EF3BD4F512E5833CD4F537
:200B04001192D5D083D082D000120B78C000C3749E9F5005D00002084CC082120CA5D08249
:200B240030D50FE92401F9E43AFAE43BFBE43CFC40E2D211120938200F0CE5106008120B3B
:200B4400687003D510F4E5106015742E120C887800D20D08E8120B68120C79E8B510F4D057
:200B64000002083414C31392D52411F9E720D501C4540F22E618F9E618FC33E933920EFFAF
:200B84006003430480E618FBE618FA7900C20CD20B22E6F9FD18200C12AA01E6F918300BE1
:200BA4000AAC02AB01E6FA18E6F91822E975F06484FE740AC5F084C445F0FD300C0122EA92
:200BC400540FF9900F38932DD4FDE94410933ED4FEEAC4540FF9900F58932DD4FDE944109E
:200BE400933ED4FEE94420933400D4FF200B0122EB540FF9900F88932DD4FDE94410933E0C
:200C0400D4FEE94420933FD4FFE43400FAEBC4540FF9900FB8932DD4FDE94410933ED4FE27
:200C2400E94420933FD4FFE94430933AD4FAEC540FF9900FF87B00120C46ECC4540FF9906C
:200C44001048932DD4FDE94410933ED4FEE94420933FD4FFE94430933AD4FAE94440933BA2
:200C6400D4FB2274203010027430120C88150FE50F70F022C4540F7003300D19D20D249042
:200C8400D43440D4C083C082C000F58212044AD000D082D08322200DFC7430020C88D01539
:010CA400222D
:200F3800005612682480369248046016722884400002050710121517202325283033353881
:200F58000096928884807672686460565248444000408122630445862768095091327314F6
:200F78000000000101020202030304040405050600367208448016528824609632680440D3
:200F9800005510662176328742985308641975300006131926323945525865727885919818
:200FB80000765228048056320884603612886440008571574328140086715743291400869D
:200FD8000004091419242934384348535863687200010203040506070809101112131415F7
:200FF8000016324864809612284460769208244000724416886032057749219365381082EF
:2010180000775533108866442199775432108865001633506783001734506784011834511C
:2010380000000000000001010101010102020202005612682480369248046016722884402E
:2010580000540963187227813691450054096318004387307417610448913579226609534D
:2010780000683605734210794715845221895826000205081013161821242629323437404C
:20109800000000500000002500005012000025060050120300255601501278002506390017
:2010B80012531900567609002888040014440200072201000461000052300000261500006B
:2010D80063070000810300009101000095000000480000002400000012000000060000005F
:1A10F8000300000001000000010000007DC5DDC334C2E0BE38BD86BBE4B990
:0600B800E478FFF6D8FD1C
:200CA5006040F82582500274FFF582E824F8501ECCCBCAF9E4CC24F85014CBCAF9E4CB2457
:200CC500F8500BCAF9E4CA24F8500379002224086010F8C3EC13FCEB13FBEA13FAE913F90A
:030CE500D8F12221
:200096007900E94400601B7A00901112780175A200E493F2A308B8000205A2D9F4DAF275E9
:0200B600A2FFA7
:1D0CE800E5828516F0A4C582C0F08517F0A4D0F025F0C5838516F0A42583F58322A4
:2000BE007800E84400600A790175A200E4F309D8FC7800E84400600C7900900001E4F0A33E
:0400DE00D8FCD9FA77
:0D008900758122120D21E5826003020086C0
:1C0D050020F71430F6148883A88220F507E6A88375830022E280F7E49322E022FD
:040D210075820022B5
:00000001FF
