:060000000200890206E681
:01000B0032C2
:0100130032BA
:01001B0032B2
:0100230032AA
:01002B0032A2
:01003300329A
:01003B003292
:01004300328A
:01004B003282
:01005300327A
:01005B003272
:01006300326A
:01006B003262
:01007300325A
:01007B003252
:030083000206DD95
:0300E20002008693
:030086000207CDA1
:2000E50075FFDE75FFAD22758400758805758991758E18758BB6758DC175840075C902759A
:20010500CA3D75CB5D75CC3D75CD5D75840275C80475C90275CA8D75CB342275840075C00D
:200125004175CFE92275840F75A5FF75A61F75E10175E20475E3402275840F758C677EB8BD
:200145007F0BEE24FFFCEF34FFFD8C068D07EC4D70F0E58C30E7FB759701758A832275A8D4
:200165008075E60275E704221200E51200EC12012012012A12013D12016322AE82AF834329
:2001850089015389FDEE4F6016C28CC28D758A58758C9ED28C308DFD1EBEFF011F80E62216
:2001A500AE82AF834389015389FDEE4F6016C28CC28D758CFF758AE7D28C308DFD1EBEFF09
:2001C500011F80E62275B00075A00075900075800022AF82C2A200D2A4EF0303543FFE5338
:2001E50006FC74024EFDA201E433FC4DFE8EC800C2A4300023900001C007C0041201A5D083
:2002050004D007D2A4EF2F25E0FD74FC5DFE430602EC4EF5C800C2A4BF0400500B200108AE
:200225009005F01201A5800690002B1201A522C2A4900010120180D200C2017582301201F9
:20024500D7900005120180D200C2017582301201D79000651201A5D200C201758230120178
:20026500D7D200C2017582201201D7C200C2017582281201D7C200C2017582081201D7C24E
:2002850000C2017582011201D7C200C2017582061201D7C200C20175820C1201D7220000B4
:2002A5000000221202A31202A3221202A81202A322D2A3A20392A0A203B392A1A20292A243
:2002C5001202A3D2A41202A875840FAFC8758400D2A3C0071202A3C2A41202AFD0078F82B4
:2002E50022AF82C202A2059203C0071202B6E582D00720E7EEC2A3A20592A0A205B392A117
:20030500A20492A275840F8FC87584001202A3D2A41202AFC2A475840F75C8FF7584001201
:2003250002AF22AF8253073F74404FF582C204A20692051202E622AF8253070774B84FF57E
:2003450082C204A20792051202E6227E007F008E82A2089207C007C00612033CA208920684
:20036500758200120328D006D0077C007D00D204A2089205758200C007C006C005C0041268
:2003850002E6D004D005D006D0070CBC00010DC3EC9440ED6480948040D40EBE00010FC329
:2003A500EE9408EF6480948040A522E4F50AF50BF508F509C2A4D2A5D2A0D2A175840F75A3
:2003C500C8FF758400C202C2031202B6E58230E40CC202D2031202B6E58220E4E8C204C240
:2003E5000575823F1202E6C204D20575823F1202E6C204C2057582401202E6C204D2057526
:2004050082401202E6C204C2057582B81202E6C204D2057582B81202E6C204C2057582C05B
:200425001202E6C204D2057582C01202E6C208120350D208120350C20775820012033CC22E
:200445000675820012032822AF82BF090050368F057E00ED24FFF50AEE34FFF50B850A8269
:20046500C20712033C850A82D20712033CC206758200120328D206758200120328E4F50839
:20048500F5090205A4C3E5089408E509648094805004C2098002D2097E00EF24E0F516EE96
:2004A50034FFF517900005120E44AE82AF83EE241FFEEF3410FF8E828F83E493FDD204A22E
:2004C5000992058D82C007C0061202E6D006D0078E828F83A3E493FDD204A20992058D82D4
:2004E500C007C0061202E6D006D0078E828F83A3A3E493FDD204A20992058D82C007C00633
:200505001202E6D006D0078E828F83A3A3A3E493FDD204A20992058D82C007C0061202E602
:20052500D006D0078E828F83A3A3A3A3E493FFD204A20992058F821202E6D204A2099205AA
:200545007582001202E6D204A20992057582001202E6D204A20992057582001202E6050886
:20056500E4B508020509C3E5089410E50964809480402CE4F508F509050AB50A02050B85DB
:200585000A82C20712033C850A82D20712033CC206758200120328D206758200120328224B
:2005A500AF82D2C5C2C330C3FD7408B5C102800C7410B5C102800585C18280305307FEA286
:2005C5000AE433FE4FF5C2C2C5C2C330C3FD200A0C7418B5C102801185C182800F7440B56A
:2005E500C102800585C1828003758200228582C2C2C5C2C330C3FD7428B5C102800585C1A6
:2006050082800375820022AF82C20A8F821205A5E582FF600F8F057E00C3E49DF582E49EC9
:20062500F583803C850C821205F2E582FF600F8F057E00C3E49DF582E49EF5838022850D95
:20064500821205F2E582FF600D7E00C3E49FF582E49EF583800AD2C4C2C320C4FD900000EC
:2006650022AF82C20A8F821205A5E582FF600F8F057E00C3E49DF582E49EF5838059850E81
:20068500821205F2E582FF600F8F057E00C3E49DF582E49EF583803FD20A7582A01205A540
:2006A500E582FF600D7E00C3E49FF582E49EF5838025C2C2C2C330C3FD7458B5C102800FBC
:2006C500AEC17F00C3E49EF582E49FF5838008AEC27F008E828F832253C0BF43C040C2CF0F
:2006E50032C023C0E0C0F0C082C083C007C006C005C004C003C002C001C000C0D075D0001A
:200705009011FFE493F50C750D007582A012060CAE82AF83C006C0077400C0E07412C0E056
:20072500120980E58124FCF5819011FFE49304F50C750D007582A012060CAE82AF83C0069C
:20074500C0077400C0E07412C0E0120980E58124FCF5819011FFE4932402F50C750D0175C6
:2007650082A012060CAE82AF83C006C0077400C0E07412C0E0120980E58124FCF5819011CD
:20078500FFE4932403F50C750D037582A012060CAE82AF83C006C0077400C0E07412C0E04D
:2007A500120980E58124FCF581C289D0D0D000D001D002D003D004D005D006D007D083D0F3
:2007C50082D0F0D0E0D0233212016D75840053C0BF43C0401203B07411C0E07412C0E0124D
:2007E5000980158115819011FFE493F50E7582A1120666AEC27F008E828F83120EBA120F03
:200805004CE4C58225E0C58233F583120EBAAC82AD83AEF0FF9011FFE49304F50E7582A1DA
:20082500C007C006C005C004120666AAC27B008A828B83120EBAA882A983AAF0FBD004D0B5
:2008450005D006D007C000C001C002C0038C828D838EF0EF120E61AC82AD83AEF0FFE5816E
:2008650024FCF5818C828D838EF0EF120F4CE4C58225E0C58233F583120EBAAC82AD83AEDD
:20088500F0FF9011FFE4932402F50E7582A1C007C006C005C004120666AAC27B008A828B7A
:2008A50083120EBAA882A983AAF0FBD004D005D006D007C000C001C002C0038C828D838EE3
:2008C500F0EF120E61AC82AD83AEF0FFE58124FCF5818C828D838EF0EF120F4CE4C5822574
:2008E500E0C58233F583120EBAAC82AD83AEF0FF9011FFE4932403F50E7582A1C007C006E6
:20090500C005C004120666AAC27B008A828B83120EBAA882A983AAF0FBD004D005D006D0B6
:2009250007C000C001C002C0038C828D838EF0EF120E61AC82AD83AEF0FFE58124FCF581A2
:200945008C828D838EF0EF120F4CE4C58225E0C58233F583120EBAAC82AD83AEF0FFC004DF
:1B096500C005C006C007741FC0E07412C0E0120980E58124FAF5810207EB2221
:20101F00000000000000005F00000007000700147F147F14242A7F2A12231308646236497E
:20103F005522500005030000001C2241000041221C00082A1C2A0808083E08080050300066
:20105F00000808080808003030000020100804023E5149453E00427F4000426151494621AB
:20107F0041454B311814127F1027454545393C4A49493001710905033649494936064949A9
:20109F00291E0036360000005636000000081422411414141414412214080002015109062D
:2010BF00324979413E7E1111117E7F494949363E414141227F4141221C7F494949417F095A
:2010DF000901013E414151327F0808087F00417F41002040413F017F081422417F4040406E
:2010FF00407F0204027F7F0408107F3E4141413E7F090909063E4151215E7F0919294646ED
:20111F004949493101017F01013F4040403F1F2040201F7F2018207F63140814630304785A
:20113F000403615149454300007F4141020408102041417F00000402010204404040404079
:20115F00000102040020545454787F484444383844444420384444487F3854545418087ED1
:20117F00090102081454543C7F0804047800447D40002040443D00007F10284400417F4060
:20119F00007C041804787C0804047838444444387C14141408081414187C7C08040408487C
:2011BF0054545420043F4440203C4040207C1C2040201C3C4030403C44281028440C505041
:2011DF00503C4464544C44000836410000007F0000004136080008082A1C08081C2A08089F
:2011FF0032022053746174757320573A203078257800012048656C6C6F20576F726C6400A5
:0D121F0003204C69646F3A20252E326600D2
:20098000C015858115E51524FDF8868318868218E493A3B42577C20BC20CC20DC20EC20F9E
:2009A000C210790F7700C211E493A324C64017240A50157005B50F02D210D20FFAE775F061
:2009C0000AA42AF780E2240A2430B46C04D20B80D7B46804D20C80D0B47303020A18B46458
:2009E00006120CF2020A74B47506120CF2020A94B4630518E6188017B47803020A53B46611
:200A000003020BA8B42E0679107700809B6006120DE4020990020DFEC083C08286F0188671
:200A20008318868218300F19C210C082C083120F306007A3150FE50F70F4120DCFD083D064
:200A400082120F306006A3120DE480F5D082D083020990120A6B200C0C120A6B300B061269
:200A60000A6B120A6B120DF6020990E6120DD4E618020DD5ED30E71CD20EE9F42401F920F4
:200A80000C12EAF43400FA300B0AEBF43400FBECF43400FC200C10300B08EB7024EC70214E
:200AA000C20BEA701CD20CE97017201114300F09E50F6005150F120DCF7430120DE40209FB
:200AC00090C082C083120D0C300F60790A300B1DEB54F0703619EB540F703019EA54F070C9
:200AE0002A19EA540F702419EF54F0701E7905200C0BEF540F701419EE54F0700E7903EE3A
:200B0000540F700719ED54F0700119E50FA20E994019F50FC003C002C007C006C005120D97
:200B2000CFD005D006D007D002D003300E19C003C002C007C006C005742D120DE4D005D048
:200B400006D007D002D003200C40300B2CC005C006C0078A82EBF583120DD4E583120DD530
:200B6000E582120DD4E582120DD5D0E0F582120DD4E582D083D08280058D828E83EF120DE7
:200B8000D5E583120DD4E58380038D82EE120DD5E582120DD4E582120DD5120DF6D083D05C
:200BA0008230110122020990300F0EE50FD39510F50F5028750F008023E6547FFA18860304
:200BC00008AE82AF839013F87D07E4932BA3E4933A5003A3DDF48D108E828F83C000120C32
:200BE000D4C082C083EFB47E02801940112482FDC3EA33FAEB33FBEC33FCDDF48006F4246F
:200C00007F120E0175F01BE4F8FFFEFD90138CE933F9EA33FAEB33FBEC33FC5017E4932D44
:200C2000D4FD7401933ED4FE7402933FD4FF74039338D4F8A3A3A3A3D5F0D4E47C50FBFAD8
:200C4000F9E510232354FC8883120E01ED29D4F514EE3AD4F513EF3BD4F512E5833CD4F57B
:200C60001192D5D083D082D000120CD4C000C3749E9F5005D0000209A8C082120E01D082D4
:200C800030D50FE92401F9E43AFAE43BFBE43CFC40E2D211120A94200F0CE5106008120C80
:200CA000C47003D510F4E5106015742E120DE47800D20D08E8120CC4120DD5E8B510F4D087
:200CC0000002099014C31392D52411F9E720D501C4540F22E618F9E618FC33E933920EFFF5
:200CE0006003430480E618FBE618FA7900C20CD20B22E6F9FD18200C12AA01E6F918300B84
:200D00000AAC02AB01E6FA18E6F91822E975F06484FE740AC5F084C445F0FD300C0122EA34
:200D2000540FF990122C932DD4FDE94410933ED4FEEAC4540FF990124C932DD4FDE9441052
:200D4000933ED4FEE94420933400D4FF200B0122EB540FF990127C932DD4FDE94410933EB7
:200D6000D4FEE94420933FD4FFE43400FAEBC4540FF99012AC932DD4FDE94410933ED4FED3
:200D8000E94420933FD4FFE94430933AD4FAEC540FF99012EC7B00120DA2ECC4540FF990BB
:200DA000133C932DD4FDE94410933ED4FEE94420933FD4FFE94430933AD4FAE94440933B4E
:200DC000D4FB2274203010027430120DE4150FE50F70F022C4540F7003300D19D20D249088
:200DE000D43440D4C083C082C000F58212044DD000D082D08322200DFC7430020DE4D0157C
:010E000022CF
:20122C0000561268248036924804601672288440000205071012151720232528303335388A
:20124C000096928884807672686460565248444000408122630445862768095091327314FF
:20126C000000000101020202030304040405050600367208448016528824609632680440DC
:20128C00005510662176328742985308641975300006131926323945525865727885919821
:2012AC000076522804805632088460361288644000857157432814008671574329140086A6
:2012CC00000409141924293438434853586368720001020304050607080910111213141500
:2012EC000016324864809612284460769208244000724416886032057749219365381082F8
:20130C00007755331088664421997754321088650016335067830017345067840118345125
:20132C00000000000000010101010101020202020056126824803692480460167228844037
:20134C00005409631872278136914500540963180043873074176104489135792266095356
:20136C00006836057342107947158452218958260002050810131618212426293234374055
:20138C00000000500000002500005012000025060050120300255601501278002506390020
:2013AC00125319005676090028880400144402000722010004610000523000002615000074
:2013CC00630700008103000091010000950000004800000024000000120000000600000068
:1A13EC000300000001000000010000007DC5DDC334C2E0BE38BD86BBE4B999
:0600B800E478FFF6D8FD1C
:200E01006040F82582500274FFF582E824F8501ECCCBCAF9E4CC24F85014CBCAF9E4CB24F9
:200E2100F8500BCAF9E4CA24F8500379002224086010F8C3EC13FCEB13FBEA13FAE913F9AC
:030E4100D8F122C3
:200096007900E94400601B7A00901406780175A200E493F2A308B8000205A2D9F4DAF275F2
:0200B600A2FFA7
:1D0E4400E5828516F0A4C582C0F08517F0A4D0F025F0C5838516F0A42583F5832246
:2000BE007800E84400600A790175A200E4F309D8FC7800E84400600C7900900001E4F0A33E
:0400DE00D8FCD9FA77
:200E6100120F817900E583B58202800D5003120F16E583C39582120E01E5D0C465D020E18C
:200E810017EA2DFAEB3EFBEC3FFC50097401120E01EC4480FC020EC7C3EA9DFAEB9EFBECB8
:190EA1009FFC500FC3E499F9E49AFAE49BFBE49CFCB2D1120FAF020EC76D
:0D0EBA00AC83AB827A007900748E020F5D6C
:200EC700B98003EA13B34010EA2401FAE43BFBE43CFC50047C800582BC000EBB000BBA006F
:200EE70008E4F5F0F583F58222A2D1E582138CF092F78B838A8222E4F583F58275F080F42F
:0F0F0700A2D11322E4F583F58275F0C0747F2226
:1A0F1600E582C583F582A2D133A2D592D11392D5ECCFFCEBCEFBEACDFA2263
:0D008900758123120FE2E5826003020086FC
:1C0F300020F71430F6148883A88220F507E6A88375830022E280F7E49322E022D0
:080F4C007F86120FE8F58222F6
:200F5400FCABF0AA83A982749EF582C2D1EC30E716D2D1E9F42401F9EAF43400FAEBF4349C
:0D0F740000FBECF43400FC120FAF020EC7BE
:200F8100AA82AB83A2F73392D1F5826002D2F7ACF0E58124F9F8E6FD08E6FE0886F008E6D3
:0E0FA100A2F73392D5F5836002D2F7AFF022AB
:200FAF007804EC7011E58224F8500AF582E4C9CACBFCD8EF22EC7820058220E713D5820141
:130FCF0022C3E933F9EA33FAEB33FBEC33FCD8EA1582224F
:040FE20075820022F2
:200FE6007F9E12100D30D103020EE8C3EF9582500974FFF5F0F583F582227900120E0189F5
:07100600828A838BF0EC22CB
:12100D00AA82AB83A2F73392D1F5826002D2F7ACF022E8
:00000001FF
