:0400000002002132A7
:01000B0032C2
:0100130032BA
:03001B000205B229
:0C007A00E4F50CF50DF50EF50F02001E6C
:03001E0002068651
:2000860075FFDE75FFAD22758400758805758991758E18758BB6758DC175840075C90275F9
:2000A600CA3D75CB5D75CC3D75CD5D2275840F75A40275A5FF75A61F75E21075E34022754B
:2000C600840F758C677EB87F0BEE24FFFCEF34FFFD8C068D07EC4D70F0E58C30E7FB7597E5
:2000E60001758A832275A8882212008612008D1200B21200C51200EB22AE82AF834389016E
:200106005389FDEE4F6016C28CC28D758A58758C9ED28C308DFD1EBEFF011F80E622AE82EF
:20012600AF834389015389FDEE4F6016C28CC28D758CFF758AE7D28C308DFD1EBEFF011F98
:2001460080E62275B00075A00075900075800022AF82C2A200D2A4EF0303543FFE5306FCD5
:2001660074024EFDA201E433FC4DFE8EC800C2A4300023900001C007C004120124D004D0B1
:2001860007D2A4EF2F25E0FD74FC5DFE430602EC4EF5C800C2A4BF0400500B20010890056D
:2001A600F0120124800690002B12012422C2A49000101200FFD200C20175823012015690AC
:2001C60000051200FFD200C201758230120156900065120124D200C201758230120156D2BB
:2001E60000C201758220120156C200C201758228120156C200C201758208120156C200C238
:2002060001758201120156C200C201758206120156C200C20175820C120156220000000078
:20022600221202221202222212022712022222D2A3A20392A0A203B392A1A20292A21202B2
:2002460022D2A412022775840FAFC8758400C007120222C2A412022ED0078F8222AF82C2AB
:2002660002A2059203C007120235E582D00720E7EEC2A3A20592A0A205B392A1A20492A252
:2002860075840F8FC8758400120222D2A412022EC2A475840F75C8FF75840012022E22AF5C
:2002A6008253073F74404FF582C204A206920512026322AF8253070774B84FF582C204A219
:2002C600079205120263227E007F008E82A2089207C007C0061202B9A208920675820012EC
:2002E60002A5D006D0077C007D00D204A2089205758200C007C006C005C004120263D0043C
:20030600D005D006D0070CBC00010DC3EC9440ED6480948040D40EBE00010FC3EE9408EFEB
:200326006480948040A522E4F50AF50BF508F509C2A4D2A5D2A0D2A175840F75C8FF7584DB
:2003460000C202C203120235E58230E40CC202D203120235E58220E4E8C204C20575823F46
:20036600120263C204D20575823F120263C204C205758240120263C204D205758240120293
:2003860063C204C2057582B8120263C204D2057582B8120263C204C2057582C0120263C201
:2003A60004D2057582C0120263C2081202CDD2081202CDC2077582001202B9C2067582007C
:2003C6001202A522AF82BF090050368F057E00ED24FFF50AEE34FFF50B850A82C20712028D
:2003E600B9850A82D2071202B9C2067582001202A5D2067582001202A5E4F508F5090205A1
:2004060021C3E5089408E509648094805004C2098002D2097E00EF24E0F517EE34FFF5185C
:20042600900005120CEAAE82AF83EE2458FEEF340FFF8E828F83E493FDD204A20992058DE3
:2004460082C007C006120263D006D0078E828F83A3E493FDD204A20992058D82C007C00676
:20046600120263D006D0078E828F83A3A3E493FDD204A20992058D82C007C006120263D07B
:2004860006D0078E828F83A3A3A3E493FDD204A20992058D82C007C006120263D006D00722
:2004A6008E828F83A3A3A3A3E493FFD204A20992058F82120263D204A20992057582001251
:2004C6000263D204A2099205758200120263D204A20992057582001202630508E4B50802F5
:2004E6000509C3E5089410E50964809480402CE4F508F509050AB50A02050B850A82C207A9
:200506001202B9850A82D2071202B9C2067582001202A5D2067582001202A522E4F50CF555
:200526000DF50EF50FF58BF58DC28BD28E308BFDC28EC28FAF8D7E00AC8B7D00EC2EF5829A
:20054600ED3FF5838E8B8E8D120DA9AC82AD83AEF0FF7420C0E074BCC0E074BEC0E0744B65
:20056600C0E08C828D838EF0EF120E29AC82AD83AEF0FFE58124FCF581C004C005C006C0FB
:2005860007850C82850D83850EF0E50F120D0785820C85830D85F00EF50FE58124FCF581DE
:2005A600850C82850D83850EF0E50F22C023C0E0C0F0C082C083C007C006C005C004C003E3
:2005C600C002C001C000C0D075D000C28F7477C0E074CCC0E0742BC0E0743BC0E0850C82A0
:2005E600850D83850EF0E50F120D0785820C85830D85F00EF50FE58124FCF581E4C0E0C054
:20060600E07480C0E0743FC0E0850C82850D83850EF0E50F120CBAAF82E58124FCF581EF7A
:200626006002D28BD0D0D000D001D002D003D004D005D006D007D083D082D0F0D0E0D023B1
:2006460032D28190000A120124C281120522AC82AD83AEF0FFC004C005C006C007902400FD
:2006660075F0747449120B73AC82AD83AEF0FFE58124FCF5818C828D838EF0EF120DB522D6
:200686001200EF75840012032D120647AE82AF83C007C006120DA9AA82AB83ACF0FDE4C06B
:2006A600E0C0E07468C0E07442C0E08A828B838CF0ED120E29AA82AB83ACF0FDE58124FC9D
:2006C600F581D006D007C006C007C002C003C004C0057438C0E07411C0E01206F2E5812451
:0C06E600F8F5819001F41200FF809E22C4
:200F5800000000000000005F00000007000700147F147F14242A7F2A122313086462364946
:200F78005522500005030000001C2241000041221C00082A1C2A0808083E0808005030002E
:200F9800000808080808003030000020100804023E5149453E00427F400042615149462173
:200FB80041454B311814127F1027454545393C4A4949300171090503364949493606494971
:200FD800291E003636000000563600000008142241141414141441221408000201510906F5
:200FF800324979413E7E1111117E7F494949363E414141227F4141221C7F494949417F0922
:201018000901013E414151327F0808087F00417F41002040413F017F081422417F40404035
:20103800407F0204027F7F0408107F3E4141413E7F090909063E4151215E7F0919294646B4
:201058004949493101017F01013F4040403F1F2040201F7F2018207F631408146303047822
:201078000403615149454300007F4141020408102041417F00000402010204404040404041
:20109800000102040020545454787F484444383844444420384444487F3854545418087E99
:2010B800090102081454543C7F0804047800447D40002040443D00007F10284400417F4028
:2010D800007C041804787C0804047838444444387C14141408081414187C7C080404084844
:2010F80054545420043F4440203C4040207C1C2040201C3C4030403C44281028440C505009
:20111800503C4464544C44000836410000007F0000004136080008082A1C08081C2A080866
:17113800012044697374616E6369613A022025352E316620256400CB
:2006F200C016858116E51624FDF8868318868218E493A3B42577C20AC20BC20CC20DC20E31
:20071200C20F79107700C210E493A324C64017240A50157005B51002D20FD20EFAE775F0F3
:200732000AA42AF780E2240A2430B46C04D20A80D7B46804D20B80D0B4730302078AB4647B
:2007520006120A640207E6B47506120A64020806B4630518E6188017B478030207C5B46673
:200772000302091AB42E0679117700809B6006120B56020702020B70C083C08286F0188641
:200792008318868218300E19C20FC082C083120EEC6007A31510E51070F4120B41D083D0CA
:2007B20082120EEC6006A3120B5680F5D082D0830207021207DD200B0C1207DD300A061283
:2007D20007DD1207DD120B68020702E6120B46E618020B47ED30E71CD20DE9F42401F920E8
:2007F2000B12EAF43400FA300A0AEBF43400FBECF43400FC200B10300A08EB7024EC7021E3
:20081200C20AEA701CD20BE97017201014300E09E51060051510120B417430120B560207AF
:2008320002C082C083120A7E300E60790A300A1DEB54F0703619EB540F703019EA54F0707A
:200852002A19EA540F702419EF54F0701E7905200B0BEF540F701419EE54F0700E7903EECB
:20087200540F700719ED54F0700119E510A20D994019F510C003C002C007C006C005120B29
:2008920041D005D006D007D002D003300D19C003C002C007C006C005742D120B56D005D0F8
:2008B20006D007D002D003200B40300A2CC005C006C0078A82EBF583120B46E583120B47E3
:2008D200E582120B46E582120B47D0E0F582120B46E582D083D08280058D828E83EF120B2A
:2008F20047E583120B46E58380038D82EE120B47E582120B46E582120B47120B68D083D04B
:200912008230100122020702300E0EE510D39511F51050287510008023E6547FFA18860322
:2009320008AE82AF8390131B7D07E4932BA3E4933A5003A3DDF48D118E828F83C000120AA0
:2009520046C082C083EFB47E02801940112482FDC3EA33FAEB33FBEC33FCDDF48006F4248D
:200972007F120C4475F01BE4F8FFFEFD9012AFE933F9EA33FAEB33FBEC33FC5017E4932D72
:20099200D4FD7401933ED4FE7402933FD4FF74039338D4F8A3A3A3A3D5F0D4E47C50FBFA69
:2009B200F9E511232354FC8883120C44ED29D4F515EE3AD4F514EF3BD4F513E5833CD4F5C7
:2009D2001292D5D083D082D000120A46C000C3749E9F5005D00002071AC082120C44D08243
:2009F20030D50FE92401F9E43AFAE43BFBE43CFC40E2D210120806200E0CE5116008120AA4
:200A1200367003D511F4E5116015742E120B567800D20C08E8120A36120B47E8B511F4D053
:200A32000002070214C31392D52412F9E720D501C4540F22E618F9E618FC33E933920DFF15
:200A52006003430480E618FBE618FA7900C20BD20A22E6F9FD18200B12AA01E6F918300A18
:200A72000AAC02AB01E6FA18E6F91822E975F06484FE740AC5F084C445F0FD300B0122EAC6
:200A9200540FF990114F932DD4FDE94410933ED4FEEAC4540FF990116F932DD4FDE944109F
:200AB200933ED4FEE94420933400D4FF200A0122EB540FF990119F932DD4FDE94410933E27
:200AD200D4FEE94420933FD4FFE43400FAEBC4540FF99011CF932DD4FDE94410933ED4FE42
:200AF200E94420933FD4FFE94430933AD4FAEC540FF990120F7B00120B14ECC4540FF990B9
:200B1200125F932DD4FDE94410933ED4FEE94420933FD4FFE94430933AD4FAE94440933BBC
:200B3200D4FB227420300F027430120B561510E51070F022C4540F7003300C19D20C2490A9
:200B5200D43440D4C083C082C000F5821203CAD000D082D08322200CFC7430020B56D01620
:010B72002260
:20114F00005612682480369248046016722884400002050710121517202325283033353868
:20116F000096928884807672686460565248444000408122630445862768095091327314DD
:20118F000000000101020202030304040405050600367208448016528824609632680440BA
:2011AF000055106621763287429853086419753000061319263239455258657278859198FF
:2011CF00007652280480563208846036128864400085715743281400867157432914008684
:2011EF000004091419242934384348535863687200010203040506070809101112131415DE
:20120F000016324864809612284460769208244000724416886032057749219365381082D5
:20122F00007755331088664421997754321088650016335067830017345067840118345103
:20124F00000000000000010101010101020202020056126824803692480460167228844015
:20126F00005409631872278136914500540963180043873074176104489135792266095334
:20128F00006836057342107947158452218958260002050810131618212426293234374033
:2012AF000000005000000025000050120000250600501203002556015012780025063900FE
:2012CF00125319005676090028880400144402000722010004610000523000002615000052
:2012EF00630700008103000091010000950000004800000024000000120000000600000046
:1A130F000300000001000000010000007DC5DDC334C2E0BE38BD86BBE4B976
:200B7300120C16BC0003020DE1EF60FA30D502B2D1E583B4FF03020DF7E582B4FF03020D5C
:200B9300F7258340072482400B020DE12483145003020DF7F582EA8DF0A4A8F0EA8EF0A441
:200BB30028F8E435F0F9EB8DF0A428E935F0F9E433CA8FF0A429F9EA35F0FAEBF88EF0A491
:200BD30029F9EA35F0FAE433FBEC8DF0A429F9EA35F0FAE43BFBE88FF0A42AFAEB35F0FB39
:200BF300E433CCFD8EF0A42AFAEB35F0FBE43CFCED8FF0A42BFBEC35F0FC20E703120C87A3
:030C1300020DC00F
:200C1600AA82AB83A2F73392D1F5826002D2F7ACF0E58124F9F8E6FD08E6FE0886F008E641
:0E0C3600A2F73392D5F5836002D2F7AFF02219
:06005000E478FFF6D8FD84
:200C44006040F82582500274FFF582E824F8501ECCCBCAF9E4CC24F85014CBCAF9E4CB24B8
:200C6400F8500BCAF9E4CA24F8500379002224086010F8C3EC13FCEB13FBEA13FAE913F96B
:030C8400D8F12282
:200C87007804EC7011E58224F8500AF582E4C9CACBFCD8EF22EC7820058220E713D582016C
:130CA70022C3E933F9EA33FAEB33FBEC33FCD8EA1582227A
:20002E007900E94400601B7A00901329780175A200E493F2A308B8000205A2D9F4DAF27538
:02004E00A2FF0F
:200CBA00FFA8811818120D7ED2D133E6400730E70B7582012220E70675820022C2D1120D0E
:100CDA0060E97003F5822230D101B3E433F5822250
:1D0CEA00E5828517F0A4C582C0F08518F0A4D0F025F0C5838517F0A42583F583229F
:200056007800E84400600A790175A200E4F309D8FC7800E84400600C7900900001E4F0A3A6
:04007600D8FCD9FADF
:200D0700120C167900E583B58202800D5003120E0FE583C39582120C44E5D0C465D020E11C
:200D270017EA2DFAEB3EFBEC3FFC50097401120C44EC4480FC020DC0C3EA9DFAEB9EFBECDA
:190D47009FFC500FC3E499F9E49AFAE49BFBE49CFCB2D1120C87020DC0FB
:200D60007901AA82E68F82B5821318E6B5F00E18E6B5830918E68A82B58202790022B4808A
:200D80000FE5F0700AE5837006E58270027F00EFB6801518B6001018B6000B18B6000608F2
:090DA00008087600220808082268
:0C0DA900E4AC83AB82FAF9748E020F11E7
:0B0DB5007F8E120F21F58385F0822253
:200DC000B98003EA13B34010EA2401FAE43BFBE43CFC50047C800582BC000EBB000BBA0077
:200DE00008E4F5F0F583F58222A2D1E582138CF092F78B838A8222E4F583F58275F080F437
:0F0E0000A2D11322E4F583F58275F0C0747F222E
:1A0E0F00E582C583F582A2D133A2D592D11392D5ECCFFCEBCEFBEACDFA226B
:200E2900120C1630D502B2D1BF0009BC0003020E04020DF7BC0003020DE1E583B4FF0BE590
:200E490082B4FF03020E04020DE1E582B4FF03020DF7C395835007247F400B020DE1248076
:200E6900145003020DF7F582C3ED9AEE9BEF9C40111582C3EA33F9EB33FAEC33FBE433FC21
:200E89008005E4CCCBCAF9C08275F019C3E99DEA9EEB9FEC9400D5F002802D400EE99DF9AA
:200EA900EA9EFAEB9FFBEC9400FCC3B3E833F8E58233F582E58333F583C3E933F9EA33FA0A
:200EC900EB33FBEC33FC80C4B3E4F938FAE43582FBE43583FCD082500405827C80120C87D3
:030EE900020DD81F
:0D002100758123120F1BE582600302001E93
:1C0EEC0020F71430F6148883A88220F507E6A88375830022E280F7E49322E02215
:130F0800FCABF0AA83A982749EC2D1F582120C87020DC057
:040F1B0075820022B9
:200F1F007F9E120F4630D103020DE1C3EF9582500974FFF5F0F583F582227900120C44894B
:070F3F00828A838BF0EC2293
:120F4600AA82AB83A2F73392D1F5826002D2F7ACF022B0
:00000001FF
