:0400000002002132A7
:01000B0032C2
:0100130032BA
:03001B000205A734
:0C007A00E4F50CF50DF50EF50F02001E6C
:03001E0002063C9B
:2000860075FFDE75FFAD22758400758805758991758E1875840075C80475C90275CA3D75B5
:2000A600CB5D75CC3D75CD5D2275840F75A5FF75A61F75E21075E3402275840F758C677E69
:2000C600B87F0BEE24FFFCEF34FFFD8C068D07EC4D70F0E58C30E7FB759701758A83227544
:2000E600A8882212008612008D1200AF1200BF1200E522AE82AF834389015389FDEE4F6021
:2001060016C28CC28D758A58758C9ED28C308DFD1EBEFF011F80E622AE82AF834389015313
:2001260089FDEE4F6016C28CC28D758CFF758AE7D28C308DFD1EBEFF011F80E62275B0003D
:2001460075A00075900075800022AF82C2A200D2A4EF0303543FFE5306FC74024EFDA2011E
:20016600E433FC4DFE8EC800C2A4300023900001C007C00412011ED004D007D2A4EF2F255B
:20018600E0FD74FC5DFE430602EC4EF5C800C2A4BF0400500B2001089005F012011E800686
:2001A60090002B12011E22C2A49000101200F9D200C2017582301201509000051200F9D289
:2001C60000C20175823012015090006512011ED200C201758230120150D200C201758220DB
:2001E600120150C200C201758228120150C200C201758208120150C200C201758201120118
:2002060050C200C201758206120150C200C20175820C12015022000000002212021C120230
:200226001C2212022112021C22D2A3A20392A0A203B392A1A20292A212021CD2A412022169
:2002460075840FAFC8758400C00712021CC2A4120228D0078F8222AF82C202A2059203C08C
:200266000712022FE582D00720E7EEC2A3A20592A0A205B392A1A20492A275840F8FC87582
:20028600840012021CD2A4120228C2A475840F75C8FF75840012022822AF8253073F744073
:2002A6004FF582C204A206920512025D22AF8253070774B84FF582C204A207920512025DDF
:2002C600227E007F008E82A2089207C007C0061202B3A208920675820012029FD006D007B9
:2002E6007C007D00D204A2089205758200C007C006C005C00412025DD004D005D006D00714
:200306000CBC00010DC3EC9440ED6480948040D40EBE00010FC3EE9408EF6480948040A590
:2003260022E4F50AF50BF508F509C2A4D2A5D2A0D2A175840F75C8FF758400C202C203121D
:20034600022FE58230E40CC202D20312022FE58220E4E8C204C20575823F12025DC204D2E4
:200366000575823F12025DC204C20575824012025DC204D20575824012025DC204C205754F
:2003860082B812025DC204D2057582B812025DC204C2057582C012025DC204D2057582C0E6
:2003A60012025DC2081202C7D2081202C7C2077582001202B3C20675820012029F22AF8220
:2003C600BF090050368F057E00ED24FFF50AEE34FFF50B850A82C2071202B3850A82D207FC
:2003E6001202B3C20675820012029FD20675820012029FE4F508F50902051BC3E5089408EF
:20040600E509648094805004C2098002D2097E00EF24E0F517EE34FFF518900005120B8D8A
:20042600AE82AF83EE2417FEEF340EFF8E828F83E493FDD204A20992058D82C007C00612A1
:20044600025DD006D0078E828F83A3E493FDD204A20992058D82C007C00612025DD006D086
:20046600078E828F83A3A3E493FDD204A20992058D82C007C00612025DD006D0078E828F22
:2004860083A3A3A3E493FDD204A20992058D82C007C00612025DD006D0078E828F83A3A33C
:2004A600A3A3E493FFD204A20992058F8212025DD204A209920575820012025DD204A209DF
:2004C600920575820012025DD204A209920575820012025D0508E4B508020509C3E5089495
:2004E60010E50964809480402CE4F508F509050AB50A02050B850A82C2071202B3850A8223
:20050600D2071202B3C20675820012029FD20675820012029F222080FDE4F50CF50DF50E98
:20052600F50FF58BF58DC28BD28E308BFDC28EC28FE58DAE8B7F008E828F8B8F8D120D9486
:20054600AC82AD83AEF0FF7420C0E074BCC0E074BEC0E0744BC0E08C828D838EF0EF120CBC
:20056600B5AC82AD83AEF0FFE58124FCF581C004C005C006C007850C82850D83850EF0E523
:200586000F120BAA85820C85830D85F00EF50FE58124FCF581850C82850D83850EF0E50F35
:2005A60022C023C0E0C0F0C082C083C007C006C005C004C003C002C001C000C0D075D0006A
:2005C600C28F7477C0E074CCC0E0742BC0E0743BC0E0850C82850D83850EF0E50F120BAA65
:2005E60085820C85830D85F00EF50FE58124FCF581E4C0E0C0E07480C0E0743FC0E0850CAE
:2006060082850D83850EF0E50F120B5DAF82E58124FCF581EF6002D28BD0D0D000D001D060
:2006260002D003D004D005D006D007D083D082D0F0D0E0D023321200E9758400120327E43B
:20064600F50CF50D750E80750F3F12051C85820C85830D85F00EF50FC00CC00DC00EC00FB3
:200666009000007440F5F0120CB5AC82AD83AEF0FFE58124FCF581C004C005C006C00774F7
:13068600F7C0E0740FC0E0120699E58124FAF58180B822A2
:200E1700000000000000005F00000007000700147F147F14242A7F2A122313086462364988
:200E37005522500005030000001C2241000041221C00082A1C2A0808083E08080050300070
:200E5700000808080808003030000020100804023E5149453E00427F4000426151494621B5
:200E770041454B311814127F1027454545393C4A49493001710905033649494936064949B3
:200E9700291E00363600000056360000000814224114141414144122140800020151090637
:200EB700324979413E7E1111117E7F494949363E414141227F4141221C7F494949417F0964
:200ED7000901013E414151327F0808087F00417F41002040413F017F081422417F40404078
:200EF700407F0204027F7F0408107F3E4141413E7F090909063E4151215E7F0919294646F7
:200F17004949493101017F01013F4040403F1F2040201F7F2018207F631408146303047864
:200F37000403615149454300007F4141020408102041417F00000402010204404040404083
:200F5700000102040020545454787F484444383844444420384444487F3854545418087EDB
:200F7700090102081454543C7F0804047800447D40002040443D00007F10284400417F406A
:200F9700007C041804787C0804047838444444387C14141408081414187C7C080404084886
:200FB70054545420043F4440203C4040207C1C2040201C3C4030403C44281028440C50504B
:200FD700503C4464544C44000836410000007F0000004136080008082A1C08081C2A0808A9
:0C0FF7000152504D022025352E326600BC
:20069900C016858116E51624FDF8868318868218E493A3B42577C20AC20BC20CC20DC20E8A
:2006B900C20F79107700C210E493A324C64017240A50157005B51002D20FD20EFAE775F04D
:2006D9000AA42AF780E2240A2430B46C04D20A80D7B46804D20B80D0B47303020731B4642E
:2006F90006120A0B02078DB47506120A0B0207ADB4630518E6188017B4780302076CB4668B
:20071900030208C1B42E0679117700809B6006120AFD0206A9020B17C083C08286F0188601
:200739008318868218300E19C20FC082C083120D786007A31510E51070F4120AE8D083D0F2
:2007590082120D786006A3120AFD80F5D082D0830206A9120784200B0C120784300A0612B7
:200779000784120784120B0F0206A9E6120AEDE618020AEEED30E71CD20DE9F42401F9205A
:200799000B12EAF43400FA300A0AEBF43400FBECF43400FC200B10300A08EB7024EC70213C
:2007B900C20AEA701CD20BE97017201014300E09E51060051510120AE87430120AFD0206BE
:2007D900A9C082C083120A25300E60790A300A1DEB54F0703619EB540F703019EA54F07086
:2007F9002A19EA540F702419EF54F0701E7905200B0BEF540F701419EE54F0700E7903EE25
:20081900540F700719ED54F0700119E510A20D994019F510C003C002C007C006C005120A83
:20083900E8D005D006D007D002D003300D19C003C002C007C006C005742D120AFDD005D004
:2008590006D007D002D003200B40300A2CC005C006C0078A82EBF583120AEDE583120AEEF0
:20087900E582120AEDE582120AEED0E0F582120AEDE582D083D08280058D828E83EF120A92
:20089900EEE583120AEDE58380038D82EE120AEEE582120AEDE582120AEE120B0FD083D0BE
:2008B90082301001220206A9300E0EE510D39511F51050287510008023E6547FFA188603D6
:2008D90008AE82AF839011CF7D07E4932BA3E4933A5003A3DDF48D118E828F83C000120949
:2008F900EDC082C083EFB47E02801940112482FDC3EA33FAEB33FBEC33FCDDF48006F42440
:200919007F120B1A75F01BE4F8FFFEFD901163E933F9EA33FAEB33FBEC33FC5017E4932D43
:20093900D4FD7401933ED4FE7402933FD4FF74039338D4F8A3A3A3A3D5F0D4E47C50FBFAC2
:20095900F9E511232354FC8883120B1AED29D4F515EE3AD4F514EF3BD4F513E5833CD4F54B
:200979001292D5D083D082D0001209EDC000C3749E9F5005D0000206C1C082120B1AD0827B
:2009990030D50FE92401F9E43AFAE43BFBE43CFC40E2D2101207AD200E0CE5116008120958
:2009B900DD7003D511F4E5116015742E120AFD7800D20C08E81209DD120AEEE8B511F4D014
:2009D900000206A914C31392D52412F9E720D501C4540F22E618F9E618FC33E933920DFFC9
:2009F9006003430480E618FBE618FA7900C20BD20A22E6F9FD18200B12AA01E6F918300A72
:200A19000AAC02AB01E6FA18E6F91822E975F06484FE740AC5F084C445F0FD300B0122EA1F
:200A3900540FF9901003932DD4FDE94410933ED4FEEAC4540FF9901023932DD4FDE9441092
:200A5900933ED4FEE94420933400D4FF200A0122EB540FF9901053932DD4FDE94410933ECD
:200A7900D4FEE94420933FD4FFE43400FAEBC4540FF9901083932DD4FDE94410933ED4FEE8
:200A9900E94420933FD4FFE94430933AD4FAEC540FF99010C37B00120ABBECC4540FF990BA
:200AB9001113932DD4FDE94410933ED4FEE94420933FD4FFE94430933AD4FAE94440933B63
:200AD900D4FB227420300F027430120AFD1510E51070F022C4540F7003300C19D20C24905D
:200AF900D43440D4C083C082C000F5821203C4D000D082D08322200CFC7430020AFDD016DA
:010B190022B9
:201003000056126824803692480460167228844000020507101215172023252830333538B5
:2010230000969288848076726864605652484440004081226304458627680950913273142A
:20104300000000010102020203030404040505060036720844801652882460963268044007
:2010630000551066217632874298530864197530000613192632394552586572788591984C
:201083000076522804805632088460361288644000857157432814008671574329140086D1
:2010A30000040914192429343843485358636872000102030405060708091011121314152B
:2010C300001632486480961228446076920824400072441688603205774921936538108223
:2010E300007755331088664421997754321088650016335067830017345067840118345151
:20110300000000000000010101010101020202020056126824803692480460167228844062
:20112300005409631872278136914500540963180043873074176104489135792266095381
:20114300006836057342107947158452218958260002050810131618212426293234374080
:2011630000000050000000250000501200002506005012030025560150127800250639004B
:2011830012531900567609002888040014440200072201000461000052300000261500009F
:2011A300630700008103000091010000950000004800000024000000120000000600000093
:1A11C3000300000001000000010000007DC5DDC334C2E0BE38BD86BBE4B9C4
:06005000E478FFF6D8FD84
:200B1A006040F82582500274FFF582E824F8501ECCCBCAF9E4CC24F85014CBCAF9E4CB24E3
:200B3A00F8500BCAF9E4CA24F8500379002224086010F8C3EC13FCEB13FBEA13FAE913F996
:030B5A00D8F122AD
:20002E007900E94400601B7A009011DD780175A200E493F2A308B8000205A2D9F4DAF27586
:02004E00A2FF0F
:200B5D00FFA8811818120C21D2D133E6400730E70B7582012220E70675820022C2D1120CCB
:100B7D0003E97003F5822230D101B3E433F582220B
:1D0B8D00E5828517F0A4C582C0F08518F0A4D0F025F0C5838517F0A42583F58322FD
:200056007800E84400600A790175A200E4F309D8FC7800E84400600C7900900001E4F0A3A6
:04007600D8FCD9FADF
:200BAA00120DB27900E583B58202800D5003120C9BE583C39582120B1AE5D0C465D020E17F
:200BCA0017EA2DFAEB3EFBEC3FFC50097401120B1AEC4480FC020C4CC3EA9DFAEB9EFBECD9
:190BEA009FFC500FC3E499F9E49AFAE49BFBE49CFCB2D1120DE0020C4C75
:200C03007901AA82E68F82B5821318E6B5F00E18E6B5830918E68A82B58202790022B480E8
:200C23000FE5F0700AE5837006E58270027F00EFB6801518B6001018B6000B18B600060850
:090C4300080876002208080822C6
:200C4C00B98003EA13B34010EA2401FAE43BFBE43CFC50047C800582BC000EBB000BBA00EC
:200C6C0008E4F5F0F583F58222A2D1E582138CF092F78B838A8222E4F583F58275F080F4AC
:0F0C8C00A2D11322E4F583F58275F0C0747F22A4
:1A0C9B00E582C583F582A2D133A2D592D11392D5ECCFFCEBCEFBEACDFA22E1
:200CB500120DB230D502B2D1BF0009BC0003020C90020C83BC0003020C6DE583B4FF0BE5C9
:200CD50082B4FF03020C90020C6DE582B4FF03020C83C395835007247F400B020C6D2480C1
:200CF500145003020C83F582C3ED9AEE9BEF9C40111582C3EA33F9EB33FAEC33FBE433FC0C
:200D15008005E4CCCBCAF9C08275F019C3E99DEA9EEB9FEC9400D5F002802D400EE99DF91F
:200D3500EA9EFAEB9FFBEC9400FCC3B3E833F8E58233F582E58333F583C3E933F9EA33FA7F
:200D5500EB33FBEC33FC80C4B3E4F938FAE43582FBE43583FCD082500405827C80120DE0EE
:030D7500020C6409
:0D002100758123120E13E582600302001E9C
:1C0D780020F71430F6148883A88220F507E6A88375830022E280F7E49322E0228A
:0B0D9400E4AC82FBFAF97486020DA8A3
:130D9F00FCABF0AA83A982749EC2D1F582120DE0020C4CDD
:200DB200AA82AB83A2F73392D1F5826002D2F7ACF0E58124F9F8E6FD08E6FE0886F008E6A4
:0E0DD200A2F73392D5F5836002D2F7AFF0227C
:200DE0007804EC7011E58224F8500AF582E4C9CACBFCD8EF22EC7820058220E713D5820112
:130E000022C3E933F9EA33FAEB33FBEC33FCD8EA1582221F
:040E130075820022C2
:00000001FF
