:060000000200090203CB1F
:0300620002000693
:03000600020416DB
:2000650075FFDE75FFAD22758400758801758911758E18758BB6758DAF75840075C90275B0
:20008500CA3D75CB5D75CC3D75CD5D75840275C80475C90275CA8D75CB34227584007598B6
:2000A500702275840075C04175CFE92275840F75A69F75E20475E3402275840F758C677E26
:2000C500B87F0BEE24FFFCEF34FFFD8C068D07EC4D70F0E58C30E7FB759701758A83227545
:2000E500A8892212006512006C1200A01200A71200B11200BE1200E422AE82AF834389016E
:200105005389FDEE4F6016C28CC28D758A58758C9ED28C308DFD1EBEFF011F80E622AE82F0
:20012500AF834389015389FDEE4F6016C28CC28D758CFF758AE7D28C308DFD1EBEFF011F99
:2001450080E62275B00075A00075900075800022AF82C2A200D2A4EF0303543FFE5306FCD6
:2001650074024EFDA201E433FC4DFE8EC800C2A4300023900001C007C004120123D004D0B3
:2001850007D2A4EF2F25E0FD74FC5DFE430602EC4EF5C800C2A4BF0400500B20010890056E
:2001A500F0120123800690002B12012322C2A49000101200FED200C20175823012015590B1
:2001C50000051200FED200C201758230120155900065120123D200C201758230120155D2C0
:2001E50000C201758220120155C200C201758228120155C200C201758208120155C200C23C
:2002050001758201120155C200C201758206120155C200C20175820C12015522000000007C
:20022500221202211202212212022612022122D2A3A20392A0A203B392A1A20292A21202B7
:2002450021D2A412022675840FAFC8758400D2A3C007120221C2A412022DD0078F8222AF7F
:2002650082C202A2059203C007120234E582D00720E7EEC2A3A20592A0A205B392A1A20444
:2002850092A275840F8FC8758400120221D2A412022DC2A475840F75C8FF75840012022DFD
:2002A50022AF8253073F74404FF582C204A206920512026422AF8253070774B84FF582C2EE
:2002C50004A2079205120264227E007F008E82A2089207C007C0061202BAA2089206758257
:2002E500001202A6D006D0077C007D00D204A2089205758200C007C006C005C004120264FD
:20030500D004D005D006D0070CBC00010DC3EC9440ED6480948040D40EBE00010FC3EE940F
:2003250008EF6480948040A522E4F50AF50BF508F509C2A4D2A5D2A0D2A175840F75C8FFDE
:20034500758400C202C203120234E58230E40CC202D203120234E58220E4E8C204C2057511
:20036500823F120264C204D20575823F120264C204C205758240120264C204D205758240E4
:20038500120264C204C2057582B8120264C204D2057582B8120264C204C2057582C0120210
:2003A50064C204D2057582C0120264C2081202CED2081202CEC2077582001202BAC20675D5
:2003C50082001202A622C022C0E0C0F0C082C083C007C006C005C004C003C002C001C000E7
:2003E500C0D075D00020800AB2A790011C12012380F3D289D0D0D000D001D002D003D004B5
:1A040500D005D006D007D083D082D0F0D0E0D022321200E875840080FE228F
:20042300000000000000005F00000007000700147F147F14242A7F2A122313086462364986
:200443005522500005030000001C2241000041221C00082A1C2A0808083E0808005030006E
:20046300000808080808003030000020100804023E5149453E00427F4000426151494621B3
:2004830041454B311814127F1027454545393C4A49493001710905033649494936064949B1
:2004A300291E00363600000056360000000814224114141414144122140800020151090635
:2004C300324979413E7E1111117E7F494949363E414141227F4141221C7F494949417F0962
:2004E3000901013E414151327F0808087F00417F41002040413F017F081422417F40404076
:20050300407F0204027F7F0408107F3E4141413E7F090909063E4151215E7F0919294646F4
:200523004949493101017F01013F4040403F1F2040201F7F2018207F631408146303047862
:200543000403615149454300007F4141020408102041417F00000402010204404040404081
:20056300000102040020545454787F484444383844444420384444487F3854545418087ED9
:20058300090102081454543C7F0804047800447D40002040443D00007F10284400417F4068
:2005A300007C041804787C0804047838444444387C14141408081414187C7C080404084884
:2005C30054545420043F4440203C4040207C1C2040201C3C4030403C44281028440C505049
:2005E300503C4464544C44000836410000007F0000004136080008082A1C08081C2A0808A7
:06003800E478FFF6D8FD9C
:200016007900E94400601B7A00900603780175A200E493F2A308B8000205A2D9F4DAF27583
:02003600A2FF27
:20003E007800E84400600A790175A200E4F309D8FC7800E84400600C7900900001E4F0A3BE
:04005E00D8FCD9FAF7
:0D00090075812212041FE5826003020006CB
:04041F0075820022C0
:00000001FF
