:04000000020089323F
:01000B0032C2
:0100130032BA
:01001B0032B2
:030023000207A928
:03002B000207E9E0
:01003300329A
:01003B003292
:01004300328A
:01004B003282
:01005300327A
:01005B003272
:01006300326A
:01006B003262
:01007300325A
:01007B003252
:030083000207A3CE
:0300E20002008693
:030086000207F27C
:2000E500758400758801758921758E0A758BB6758DFB75840075C80475C90A75CAF875CB2C
:20010500FF75CCF875CDFF75840175C80475C90A75CAF375CBFC75CCF375CDFC758402758E
:20012500C80475C90275CA3D75CB5D75CC3D75CD5D22758400759870759105227584007545
:20014500CFE92275840075F805759D7C2275840075D4882275840075D1032275840F75A434
:20016500B575A61F75E10675E3402275840F758C677EB87F0BEE24FFFCEF34FFFD8C068DFA
:2001850007EC4D70F0E58C30E7FB759701758A032275A8B075E70475F704221200E512013D
:2001A5003712014112014812015212015912016012017012019622AE82AF834389015389B7
:2001C500FDEE4F6016C28CC28D758A58758C9ED28C308DFD1EBEFF011F80E622AE82AF83DA
:2001E5004389015389FDEE4F6016C28CC28D758CFF758AE7D28C308DFD1EBEFF011F80E6A5
:200205002200000000221202061202062212020B12020622D2A3A20192A0A201B392A1A26F
:200225000092A2120206D2A412020B75840FAFC8758400D2A3C007120206C2A4120212D0AC
:20024500078F8222AF82C200A2039201C007120219E582D00720E7EEC2A3A20392A0A2032C
:20026500B392A1A20292A275840F8FC8758400120206D2A4120212C2A475840F75C8FF758E
:200285008400D2A312021222AF8253073F74404FF582C202A204920312024922AF825307CB
:2002A5000774B84FF582C202A2059203120249227E007F008E82A2069205C007C0061202D4
:2002C500A1A206920475820012028DD006D0077C007D00D202A2069203758200C007C00667
:2002E500C005C004120249D004D005D006D0070CBC00010DC3EC9440ED6480948040D40E5D
:20030500BE00010FC3EE9408EF6480948040A5227E007F008E82C205C007C0061202A1C2F7
:200325000475820012028DD006D0077C007D00D202C203758200C007C006C005C0041202BC
:2003450049D004D005D006D0070CBC00010DC3EC9440ED6480948040D68E82D205C007C037
:20036500061202A1D20475820012028DD006D0077C007D00D202D203758200C007C006C0BC
:2003850005C004120249D004D005D006D0070CBC00010DC3EC9440ED6480948040D60EBEBC
:2003A50000010FC3EE9408EF64809480500302031922E582FF14F582C205C0071202A1C26B
:2003C5000475820012028DD0077D007E00D202C203758200C007C006C005120249D005D0C6
:2003E50006D0070DBD00010EC3ED9440EE6480948040DAEF14F582D2051202A1D2047582EB
:200405000012028D7E007F00D202D203758200C007C006120249D006D0070EBE00010FC363
:20042500EE9440EF6480948040DE22E4F50AF50BF508F509C2A4D2A5D2A0D2A175840F75B1
:20044500C8FF758400C200C201120219E58230E40CC200D201120219E58220E4E8C202C203
:200465000375823F120249C202D20375823F120249C202C203758240120249C202D203758A
:200485008240120249C202C2037582B8120249C202D2037582B8120249C202C2037582C0BE
:2004A500120249C202D2037582C0120249C2061202B5D2061202B5C2057582001202A1C2C6
:2004C5000475820012028D22AF82BF0900503F8F057E00ED24FFF50AEE34FFF50B850A827E
:2004E500C205C0071202A1850A82D2051202A1C20475820012028DD20475820012028DD07B
:2005050007E4F508F5098F821203B702062DC3E5089408E509648094805004C2078002D23B
:20052500077E00EF24E0F516EE34FFF517900005120D75AE82AF83EE24B2FEEF3411FF8EF8
:20054500828F83E493FDD202A20792038D82C007C006120249D006D0078E828F83A3E4939A
:20056500FDD202A20792038D82C007C006120249D006D0078E828F83A3A3E493FDD202A26F
:200585000792038D82C007C006120249D006D0078E828F83A3A3A3E493FDD202A207920383
:2005A5008D82C007C006120249D006D0078E828F83A3A3A3A3E493FFD202A20792038F8249
:2005C500120249D202A2079203758200120249D202A2079203758200120249D202A20792DE
:2005E500037582001202490508E4B508020509C3E5089410E50964809480402CE4F508F565
:2006050009050AB50A02050B850A82C2051202A1850A82D2051202A1C20475820012028D64
:20062500D20475820012028D227E007F008E82C205C007C0061202A1C20475820012028DB1
:20064500D006D0078E04EF5401A2E0CC13CC13CCFD7A007B00EA2CF8EB3DF9E824B2F582B0
:20066500E9340DF583E493F9D202C2038982C007C006C005C004C003C002120249D002D025
:2006850003D004D005D006D0070ABA00010BC3EA9440EB6480948040BC8E82D205C007C05E
:2006A500061202A1D20475820012028DD006D0078E04EF5401A2E0CC13CC13CCFD74402CA0
:2006C500FCE43DFD7A007B00EA2CF8EB3DF9E824B2F582E9340DF583E493F9D202D203895E
:2006E50082C007C006C005C004C003C002120249D002D003D004D005D006D0070ABA0001BB
:200705000BC3EA9440EB6480948040BC0EBE00010FC3EE9408EF648094805003020632903C
:2007250000781201BCC2057582071202A1C20475820D12028D7E0D7F00D202C2037582BD31
:20074500C007C00612024990001E1201BCD006D0070EBE00010FC3EE9440EF6480948040F8
:20076500D8D2057582071202A1D20475820012028D7E007F00D202D2037582BDC007C006BD
:2007850012024990001E1201BCD006D0070EBE00010FC3EE9433EF6480948040D82275FFE4
:2007A500A5C2CF32C0E0C007C0D075D00030982D74C02599501A85990EE5990303543FFFFD
:2007C500740F5FF50DE599030354C0FF420C800BE50E030354C0FF4599F50CC298D0D0D00B
:2007E50007D0E032850CD2850DD3C2CF321201A0758400120430C2061202B5D2061202B55C
:2008050012062EC2061202B5D2061202B57492C0E07413C0E01208B11581158143A810207C
:2008250082FD7582041203B77582051203B77582061203B77582071203B7AE997F00C00686
:20084500C007749DC0E07413C0E01208B1E58124FCF581AE0C7F00C006C00774ACC0E07433
:2008650013C0E01208B1E58124FCF581AE0D7F00C006C00774BBC0E07413C0E01208B1E58C
:200885008124FCF581AF0D7E00AC0C7D00EC2EFEED3FFFC006C00774CAC0E07413C0E012E6
:0C08A50008B1E58124FCF5810208242242
:200DB200000000000000000000000000000000000000000000000000000000000000000021
:200DD2000000000000000000000000000000C038041E366CD8B0E06060202038101818085D
:200DF2001018181018101020404070D0C8740E06067EC000000000000000000000000000E5
:200E12000000000000000000000000000000000000000000000000000000000000000000C0
:200E32000000000000000000000000000000000000000000000000000000000000000000A0
:200E52000000000000000000000000000080DFD0D8C4C28509D00000000000000020C02095
:200E7200000C30408000800000002010E01986CCD0DE8780000000000000000000000000B4
:200E9200000000000000000000000000000000000000000000000000000000000000000040
:200EB200000000000000000000000000000000000000000000000000000000000000000020
:200ED200000000000000000000000000006038098BEB3B1B020100804030100C060100007D
:200EF20000000000020E1160C0000000021B73C3031B61C00000000000000000000000000D
:200F12000000000000000000000000000000000000000000000000000000000000000000BF
:200F320000000000000000000000000000000000000000000000000000000000000000009F
:200F5200000000000000000080180C02A170380407030000C02674F9F8F8702000000000AF
:200F7200000000002070F8F8F877047800000001030498708D3820000000000000000000FF
:200F920000000000000000000000000000000000000000000000000000000000000000003F
:200FB20000000000000000000000000000000000000000000000000000000000000000001F
:200FD20000000000C0701C0E070038C6C20000000000000003FCC04040000303040838E075
:200FF20020180C044341404042E21E00000000000000010E0F060001063CF0C080000000BA
:201012000000000000000000000000000000000000000000000000000000000000000000BE
:2010320000000000000000000000000000000000000000000000000000000000000000009E
:2010520000980CE424000000000036198D0000000000C040203F648000000000000086FF2E
:20107200A000000000808484E43F000000008000803010F8201F0000000000039FE000001A
:2010920000000000000000000000000000000000000000000000000000000000000000003E
:2010B20000000000000000000000000000000000000000000000000000000000000000001E
:2010D2000003020100000000000000000704000000010000181030202101036343030302A1
:2010F200030303330343310930000000180C0706010001000000000000000000000306189E
:201112000000000000000000000000000000000000000000000000000000000000000000BD
:2011320000000000000000000000FF81818181818181818181818181818181818181818109
:2011520081818181818181818181818181818181818181818181818181818181818181815D
:2011720081818181818181818181818181818181818181818181818181818181818181813D
:20119200818181818181818181818181818181818181818181FF00000000000000000000A9
:2011B200000000000000005F00000007000700147F147F14242A7F2A1223130864623649EA
:2011D2005522500005030000001C2241000041221C00082A1C2A0808083E080800503000D2
:2011F200000808080808003030000020100804023E5149453E00427F400042615149462117
:2012120041454B311814127F1027454545393C4A4949300171090503364949493606494914
:20123200291E00363600000056360000000814224114141414144122140800020151090698
:20125200324979413E7E1111117E7F494949363E414141227F4141221C7F494949417F09C5
:201272000901013E414151327F0808087F00417F41002040413F017F081422417F404040D9
:20129200407F0204027F7F0408107F3E4141413E7F090909063E4151215E7F091929464658
:2012B2004949493101017F01013F4040403F1F2040201F7F2018207F6314081463030478C6
:2012D2000403615149454300007F4141020408102041417F000004020102044040404040E5
:2012F200000102040020545454787F484444383844444420384444487F3854545418087E3D
:20131200090102081454543C7F0804047800447D40002040443D00007F10284400417F40CB
:20133200007C041804787C0804047838444444387C14141408081414187C7C0804040848E7
:2013520054545420043F4440203C4040207C1C2040201C3C4030403C44281028440C5050AC
:20137200503C4464544C44000836410000007F0000004136080008082A1C08081C2A08080A
:20139200022052454345495645520004205541525420203D203078257800052062797465A9
:2013B2004C203D20307825780006206279746548203D2030782578000720414443202020DA
:0613D2003D20256420000F
:2008B100C015858115E51524FDF8868318868218E493A3B42577C208C209C20AC20BC20C7D
:2008D100C20D790F7700C20EE493A324C64017240A50157005B50F02D20DD20CFAE775F03D
:2008F1000AA42AF780E2240A2430B46C04D20880D7B46804D20980D0B47303020949B464FE
:2009110006120C230209A5B47506120C230209C5B4630518E6188017B47803020984B466EE
:2009310003020AD9B42E0679107700809B6006120D150208C1020D2FC083C08286F018867F
:200951008318868218300C19C20DC082C083120D926007A3150FE50F70F4120D00D083D0A9
:2009710082120D926006A3120D1580F5D082D0830208C112099C20090C12099C300806121E
:20099100099C12099C120D270208C1E6120D05E618020D06ED30E71CD20BE9F42401F920A4
:2009B1000912EAF43400FA30080AEBF43400FBECF43400FC200910300808EB7024EC70212A
:2009D100C208EA701CD209E97017200E14300C09E50F6005150F120D007430120D15020876
:2009F100C1C082C083120C3D300C60790A30081DEB54F0703619EB540F703019EA54F0703E
:200A11002A19EA540F702419EF54F0701E790520090BEF540F701419EE54F0700E7903EE0C
:200A3100540F700719ED54F0700119E50FA20B994019F50FC003C002C007C006C005120D6A
:200A510000D005D006D007D002D003300B19C003C002C007C006C005742D120D15D005D0B9
:200A710006D007D002D00320094030082CC005C006C0078A82EBF583120D05E583120D06A4
:200A9100E582120D05E582120D06D0E0F582120D05E582D083D08280058D828E83EF120D24
:200AB10006E583120D05E58380038D82EE120D06E582120D05E582120D06120D27D083D006
:200AD10082300E01220208C1300C0EE50FD39510F50F5028750F008023E6547FFA188603AA
:200AF10008AE82AF839015A47D07E4932BA3E4933A5003A3DDF48D108E828F83C000120C54
:200B110005C082C083EFB47E02801940112482FDC3EA33FAEB33FBEC33FCDDF48006F4240D
:200B31007F120D3275F01BE4F8FFFEFD901538E933F9EA33FAEB33FBEC33FC5017E4932D36
:200B5100D4FD7401933ED4FE7402933FD4FF74039338D4F8A3A3A3A3D5F0D4E47C50FBFAA8
:200B7100F9E510232354FC8883120D32ED29D4F514EE3AD4F513EF3BD4F512E5833CD4F51B
:200B91001192D5D083D082D000120C05C000C3749E9F5005D0000208D9C082120D32D08213
:200BB10030D50FE92401F9E43AFAE43BFBE43CFC40E2D20E1209C5200C0CE5106008120B27
:200BD100F57003D510F4E5106015742E120D157800D20A08E8120BF5120D06E8B510F4D097
:200BF100000208C114C31392D52411F9E720D501C4540F22E618F9E618FC33E933920BFF98
:200C11006003430480E618FBE618FA7900C209D20822E6F9FD18200912AA01E6F91830085F
:200C31000AAC02AB01E6FA18E6F91822E975F06484FE740AC5F084C445F0FD30090122EA07
:200C5100540FF99013D8932DD4FDE94410933ED4FEEAC4540FF99013F8932DD4FDE94410C8
:200C7100933ED4FEE94420933400D4FF20080122EB540FF9901428932DD4FDE94410933EDC
:200C9100D4FEE94420933FD4FFE43400FAEBC4540FF9901458932DD4FDE94410933ED4FEF5
:200CB100E94420933FD4FFE94430933AD4FAEC540FF99014987B00120CD3ECC4540FF990AD
:200CD10014E8932DD4FDE94410933ED4FEE94420933FD4FFE94430933AD4FAE94440933B71
:200CF100D4FB227420300D027430120D15150FE50F70F022C4540F7003300A19D20A249030
:200D1100D43440D4C083C082C000F5821204CDD000D082D08322200AFC7430020D15D0159D
:010D3100229F
:2013D8000056126824803692480460167228844000020507101215172023252830333538DD
:2013F800009692888480767268646056524844400040812263044586276809509132731452
:2014180000000001010202020303040404050506003672084480165288246096326804402E
:20143800005510662176328742985308641975300006131926323945525865727885919873
:201458000076522804805632088460361288644000857157432814008671574329140086F8
:20147800000409141924293438434853586368720001020304050607080910111213141552
:2014980000163248648096122844607692082440007244168860320577492193653810824A
:2014B800007755331088664421997754321088650016335067830017345067840118345178
:2014D80000000000000001010101010102020202005612682480369248046016722884408A
:2014F8000054096318722781369145005409631800438730741761044891357922660953A9
:201518000068360573421079471584522189582600020508101316182124262932343740A7
:20153800000000500000002500005012000025060050120300255601501278002506390072
:201558001253190056760900288804001444020007220100046100005230000026150000C6
:201578006307000081030000910100009500000048000000240000001200000006000000BA
:1A1598000300000001000000010000007DC5DDC334C2E0BE38BD86BBE4B9EB
:0600B800E478FFF6D8FD1C
:200D32006040F82582500274FFF582E824F8501ECCCBCAF9E4CC24F85014CBCAF9E4CB24C9
:200D5200F8500BCAF9E4CA24F8500379002224086010F8C3EC13FCEB13FBEA13FAE913F97C
:030D7200D8F12293
:200096007900E94400601B7A009015B2780175A200E493F2A308B8000205A2D9F4DAF27545
:0200B600A2FFA7
:1D0D7500E5828516F0A4C582C0F08517F0A4D0F025F0C5838516F0A42583F5832216
:2000BE007800E84400600A790175A200E4F309D8FC7800E84400600C7900900001E4F0A33E
:0400DE00D8FCD9FA77
:0D008900758121120DAEE582600302008634
:1C0D920020F71430F6148883A88220F507E6A88375830022E280F7E49322E02270
:040DAE007582002228
:00000001FF
