:04000000020029329F
:01000B0032C2
:0100130032BA
:01001B0032B2
:03002300020402D2
:0300820002002653
:0300260002049E33
:2000850075FFDE75FFAD22758400758841758921758E18758BB6758DAF75840075C90A7538
:2000A500CA3C75CBF675840275C90275CA8D75CB34227584007598702275840075C04175E6
:2000C500CFE92275840075D41C2275840075D1032275840F75A48175A61F75E10475E3408F
:2000E5002275840F758C677EB87F0BEE24FFFCEF34FFFD8C068D07EC4D70F0E58C30E7FB3B
:20010500759701758A832275A8902212008512008C1200B71200BE1200C81200CF1200D6E9
:200125001200E612010C22AE82AF834389015389FDEE4F6016C28CC28D758A58758C9ED261
:200145008C308DFD1EBEFF011F80E622AE82AF834389015389FDEE4F6016C28CC28D758C78
:20016500FF758AE7D28C308DFD1EBEFF011F80E62275B00075A00075900075800022AF8273
:20018500C2A200D2A4EF0303543FFE5306FC74024EFDA201E433FC4DFE8EC800C2A43000F7
:2001A50023900001C007C004120151D004D007D2A4EF2F25E0FD74FC5DFE430602EC4EF511
:2001C500C800C2A4BF0400500B2001089005F0120151800690002B12015122C2A4900010EF
:2001E50012012CD200C20175823012018390000512012CD200C2017582301201839000654E
:20020500120151D200C201758230120183D200C201758220120183C200C20175822812012A
:2002250083C200C201758208120183C200C201758201120183C200C201758206120183C22F
:2002450000C20175820C12018322000000002212024F12024F2212025412024F22D2A3A20D
:200265000392A0A203B392A1A20292A212024FD2A412025475840FAFC8758400D2A3C007EC
:2002850012024FC2A412025BD0078F8222AF82C202A2059203C007120262E582D00720E764
:2002A500EEC2A3A20592A0A205B392A1A20492A275840F8FC875840012024FD2A412025B06
:2002C500C2A475840F75C8FF75840012025B22AF8253073F74404FF582C204A2069205128A
:2002E500029222AF8253070774B84FF582C204A2079205120292227E007F008E82A20892A8
:2003050007C007C0061202E8A20892067582001202D4D006D0077C007D00D204A20892056A
:20032500758200C007C006C005C004120292D004D005D006D0070CBC00010DC3EC9440ED69
:200345006480948040D40EBE00010FC3EE9408EF6480948040A522E4F50AF50BF508F50997
:20036500C2A4D2A5D2A0D2A175840F75C8FF758400C202C203120262E58230E40CC202D25D
:2003850003120262E58220E4E8C204C20575823F120292C204D20575823F120292C204C222
:2003A50005758240120292C204D205758240120292C204C2057582B8120292C204D20575E8
:2003C50082B8120292C204C2057582C0120292C204D2057582C0120292C2081202FCD208A0
:2003E5001202FCC2077582001202E8C2067582001202D42285829910990280FB22C022C0D9
:20040500E0C0F0C082C083C007C006C005C004C003C002C001C000C0D075D00030985D7438
:2004250062B59904B28780527461B5991BAE907F00C006C007746BC0E0740BC0E01204A715
:20044500E58124FCF5818032746DB599117474C0E0740BC0E01204A715811581801C85995F
:200465000CAE997F00C006C007749BC0E0740BC0E01204A7E58124FCF581C298D0D0D000C7
:20048500D001D002D003D004D005D006D007D083D082D0F0D0E0D0223212011075840080B6
:0204A500FE2235
:20098B00000000000000005F00000007000700147F147F14242A7F2A122313086462364919
:2009AB005522500005030000001C2241000041221C00082A1C2A0808083E08080050300001
:2009CB00000808080808003030000020100804023E5149453E00427F400042615149462146
:2009EB0041454B311814127F1027454545393C4A4949300171090503364949493606494944
:200A0B00291E003636000000563600000008142241141414141441221408000201510906C7
:200A2B00324979413E7E1111117E7F494949363E414141227F4141221C7F494949417F09F4
:200A4B000901013E414151327F0808087F00417F41002040413F017F081422417F40404008
:200A6B00407F0204027F7F0408107F3E4141413E7F090909063E4151215E7F091929464687
:200A8B004949493101017F01013F4040403F1F2040201F7F2018207F6314081463030478F5
:200AAB000403615149454300007F4141020408102041417F00000402010204404040404014
:200ACB00000102040020545454787F484444383844444420384444487F3854545418087E6C
:200AEB00090102081454543C7F0804047800447D40002040443D00007F10284400417F40FB
:200B0B00007C041804787C0804047838444444387C14141408081414187C7C080404084816
:200B2B0054545420043F4440203C4040207C1C2040201C3C4030403C44281028440C5050DB
:200B4B00503C4464544C44000836410000007F0000004136080008082A1C08081C2A080839
:200B6B005031203D2025640A004D656E753A0A61202D204C652050312064652050310A62EA
:1D0B8B00202D20496E76657274652050305F37005465636C613A20272563270A00AA
:2004A700C013858113E51324FDF8868318868218E493A3B42577C209C20AC20BC20CC20D8C
:2004C700C20E790D7700C20FE493A324C64017240A50157005B50D02D20ED20DFAE775F04B
:2004E7000AA42AF780E2240A2430B46C04D20980D7B46804D20A80D0B4730302053FB46418
:200507000612081902059BB475061208190205BBB4630518E6188017B4780302057AB46642
:20052700030206CFB42E06790E7700809B600612090B0204B7020925C083C08286F01886C7
:200547008318868218300D19C20EC082C08312096B6007A3150DE50D70F41208F6D083D0F3
:200567008212096B6006A312090B80F5D082D0830204B7120592200A0C120592300906128D
:20058700059212059212091D0204B7E61208FBE6180208FCED30E71CD20CE9F42401F92007
:2005A7000A12EAF43400FA30090AEBF43400FBECF43400FC200A10300908EB7024EC702134
:2005C700C209EA701CD20AE97017200F14300D09E50D6005150D1208F6743012090B0204A5
:2005E700B7C082C083120833300D60790A30091DEB54F0703619EB540F703019EA54F07062
:200607002A19EA540F702419EF54F0701E7905200A0BEF540F701419EE54F0700E7903EE19
:20062700540F700719ED54F0700119E50DA20C994019F50DC003C002C007C006C005120880
:20064700F6D005D006D007D002D003300C19C003C002C007C006C005742D12090BD005D0DE
:2006670006D007D002D003200A4030092CC005C006C0078A82EBF5831208FBE5831208FCCE
:20068700E5821208FBE5821208FCD0E0F5821208FBE582D083D08280058D828E83EF120864
:2006A700FCE5831208FBE58380038D82EE1208FCE5821208FBE5821208FC12091DD083D068
:2006C70082300F01220204B7300D0EE50DD3950EF50D5028750D008023E6547FFA188603CC
:2006E70008AE82AF83900D747D07E4932BA3E4933A5003A3DDF48D0E8E828F83C0001207A1
:20070700FBC082C083EFB47E02801940112482FDC3EA33FAEB33FBEC33FCDDF48006F42425
:200727007F12092875F01BE4F8FFFEFD900D08E933F9EA33FAEB33FBEC33FC5017E4932D8A
:20074700D4FD7401933ED4FE7402933FD4FF74039338D4F8A3A3A3A3D5F0D4E47C50FBFAB6
:20076700F9E50E232354FC8883120928ED29D4F512EE3AD4F511EF3BD4F510E5833CD4F53F
:200787000F92D5D083D082D0001207FBC000C3749E9F5005D0000204CFC082120928D0824E
:2007A70030D50FE92401F9E43AFAE43BFBE43CFC40E2D20F1205BB200D0CE50E6008120747
:2007C700EB7003D50EF4E50E6015742E12090B7800D20B08E81207EB1208FCE8B50EF4D0DF
:2007E700000204B714C31392D5240FF9E720D501C4540F22E618F9E618FC33E933920CFFB5
:200807006003430480E618FBE618FA7900C20AD20922E6F9FD18200A12AA01E6F918300969
:200827000AAC02AB01E6FA18E6F91822E975F06484FE740AC5F084C445F0FD300A0122EA14
:20084700540FF9900BA8932DD4FDE94410933ED4FEEAC4540FF9900BC8932DD4FDE9441046
:20086700933ED4FEE94420933400D4FF20090122EB540FF9900BF8932DD4FDE94410933E22
:20088700D4FEE94420933FD4FFE43400FAEBC4540FF9900C28932DD4FDE94410933ED4FE3B
:2008A700E94420933FD4FFE94430933AD4FAEC540FF9900C687B001208C9ECC4540FF99001
:2008C7000CB8932DD4FDE94410933ED4FEE94420933FD4FFE94430933AD4FAE94440933BB7
:2008E700D4FB227420300E02743012090B150DE50D70F022C4540F7003300B19D20B24904D
:20090700D43440D4C083C082C000F5821203F9D000D082D08322200BFC743002090BD0138F
:0109270022AD
:200BA800005612682480369248046016722884400002050710121517202325283033353815
:200BC80000969288848076726864605652484440004081226304458627680950913273148A
:200BE800000000010102020203030404040505060036720844801652882460963268044067
:200C08000055106621763287429853086419753000061319263239455258657278859198AB
:200C2800007652280480563208846036128864400085715743281400867157432914008630
:200C480000040914192429343843485358636872000102030405060708091011121314158A
:200C6800001632486480961228446076920824400072441688603205774921936538108282
:200C88000077553310886644219977543210886500163350678300173450678401183451B0
:200CA8000000000000000101010101010202020200561268248036924804601672288440C2
:200CC8000054096318722781369145005409631800438730741761044891357922660953E1
:200CE8000068360573421079471584522189582600020508101316182124262932343740E0
:200D08000000005000000025000050120000250600501203002556015012780025063900AA
:200D28001253190056760900288804001444020007220100046100005230000026150000FE
:200D48006307000081030000910100009500000048000000240000001200000006000000F2
:1A0D68000300000001000000010000007DC5DDC334C2E0BE38BD86BBE4B923
:06005800E478FFF6D8FD7C
:200928006040F82582500274FFF582E824F8501ECCCBCAF9E4CC24F85014CBCAF9E4CB24D7
:20094800F8500BCAF9E4CA24F8500379002224086010F8C3EC13FCEB13FBEA13FAE913F98A
:03096800D8F122A1
:200036007900E94400601B7A00900D82780175A200E493F2A308B8000205A2D9F4DAF275DD
:02005600A2FF07
:20005E007800E84400600A790175A200E4F309D8FC7800E84400600C7900900001E4F0A39E
:04007E00D8FCD9FAD7
:0D002900758122120987E58260030200261E
:1C096B0020F71430F6148883A88220F507E6A88375830022E280F7E49322E0229B
:040987007582002253
:00000001FF
