:03000000020006F5
:03005F0002000399
:03000300020126D1
:2000620075FFDE75FFAD22758400758901758E082275840F75A4FF75A5FF75A6FF75A7FF56
:20008200759CFF759DFF759EFF759FFF75E3402275840F758C677EB87F0BEE24FFFCEF34FE
:2000A200FFFD8C068D07EC4D70F0E58C30E7FB7597012275A80375B8C222120062120069B1
:2000C2001200731200921200B522AE82AF834389015389FDEE4F6016C28CC28D758A5875E8
:2000E2008C9ED28C308DFD1EBEFF011F80E62275B00075A00075900075800022AF82C2915F
:20010200D290BF0C005009EF90020293F580800375804FBF0B03750801E5086004D2878090
:2001220002C287221200BC7584007580007590007E007F008E057508027509008E828F83E0
:20014200C007C006C0051201C8AB82D005D006D0078B088D82C007C0061200FE9003E812F5
:1901620000CCD006D0070EBE00010FC3EE940CEF6480948040BE80B8229F
:0C0202007E306D79335B5F707F7B00FF06
:06003500E478FFF6D8FD9F
:200013007900E94400601B7A0090020E780175A200E493F2A308B8000205A2D9F4DAF2757F
:02003300A2FF2A
:20017B00E508450960467A01E50825E0F508E509334012F509E5829508E583950940030A51
:20019B0080E6C3E50913F509E50813F508C3E5829508F5F0E58395094005F58385F082C3F6
:0D01BB00E50913F509E50813F508DAE1225E
:20003B007800E84400600A790175A200E4F309D8FC7800E84400600C7900900001E4F0A3C1
:04005B00D8FCD9FAFA
:0D0006007581091201FEE58260030200030E
:2001C800C2D5E58330E70DD2D5E4C39582F582E49583F583E50930E70BE4C39508F508E46F
:1601E8009509F50912017B30D50BE4C39582F582E49583F58322FC
:0401FE0075820022E4
:00000001FF
