:03000000020006F5
:03005F0002000399
:030003000202A551
:2000620075FFDE75FFAD22758400758901758E082275840F75A4FF75A7FF75E340227584D6
:200082000F758C677EB87F0BEE24FFFCEF34FFFD8C068D07EC4D70F0E58C30E7FB759701AC
:2000A200758A832275A80275B8C2221200621200691200731200801200A622AE82AF8343E5
:2000C20089015389FDEE4F6016C28CC28D758A58758C9ED28C308DFD1EBEFF011F80E622DA
:2000E200AE82AF834389015389FDEE4F6016C28CC28D758CFF758AE7D28C308DFD1EBEFFCD
:20010200011F80E62275B00075A00075900075800022AF82C2B000D2B1EF0303543FFE53E0
:2001220006FC74024EFDA201E433FC4DFE8EB000C2B1300023900001C007C0041200E2D015
:2001420004D007D2B1EF2F25E0FD74FC5DFE430602EC4EF5B000C2B1BF0400500B20010870
:200162009005F01200E2800690002B1200E222C2B19000101200BDC200C20175823012010C
:20018200149000051200BDC200C2017582301201149000651200E2C200C20175823012016A
:2001A20014C200C201758220120114D200C201758228120114D200C201758208120114D2FE
:2001C20000C201758201120114D200C201758206120114D200C20175820C12011422D200CF
:2001E200D2011201142285820B85830CAB08AC097D808B828C838DF012078EAC82AD83D2E6
:2002020000C201758290C005C004120114A908AA097B80C001C002C00374C6C0E07407C028
:20022200E01202CAE58124FBF581D004D00574102CFCE43DFD7A007B00C3EA9CEB9D505822
:2002420078007900AE0A7F00C3E89EE99F5029D200C201758218C005C004C003C002C001B7
:20026200C000120114D000D001D002D003D004D00508B800CF0980CC850B82850C83C005D7
:20028200C004C003C0021200BDD002D003D004D0050ABA00A40B80A1D200C20175820212C2
:2002A2000114221200AD758400120171D200C2017582801201147508C9750907750A0190BB
:0802C20001F41201E880FE22A4
:0B07C600257300536578746F752100E7
:2002CA00C013858113E51324FDF8868318868218E493A3B42577C202C203C204C205C2068E
:2002EA00C207790D7700C208E493A324C64017240A50157005B50D02D207D206FAE775F046
:20030A000AA42AF780E2240A2430B46C04D20280D7B46804D20380D0B47303020362B464E3
:20032A000612063C0203BEB4750612063C0203DEB4630518E6188017B4780302039DB4667C
:20034A00030204F2B42E06790E7700809B600612072E0202DA020748C083C08286F0188622
:20036A008318868218300619C207C082C0831207A66007A3150DE50D70F4120719D083D085
:20038A00821207A66006A312072E80F5D082D0830202DA1203B520030C1203B530020612BD
:2003AA0003B51203B51207400202DAE612071EE61802071FED30E71CD205E9F42401F92025
:2003CA000312EAF43400FA30020AEBF43400FBECF43400FC200310300208EB7024EC70212F
:2003EA00C202EA701CD203E97017200814300609E50D6005150D120719743012072E02025F
:20040A00DAC082C083120656300660790A30021DEB54F0703619EB540F703019EA54F0700A
:20042A002A19EA540F702419EF54F0701E790520030BEF540F701419EE54F0700E7903EEFF
:20044A00540F700719ED54F0700119E50DA205994019F50DC003C002C007C006C005120767
:20046A0019D005D006D007D002D003300519C003C002C007C006C005742D12072ED005D080
:20048A0006D007D002D00320034030022CC005C006C0078A82EBF58312071EE58312071F77
:2004AA00E58212071EE58212071FD0E0F58212071EE582D083D08280058D828E83EF1207DE
:2004CA001FE58312071EE58380038D82EE12071FE58212071EE58212071F120740D083D07B
:2004EA0082300801220202DA30060EE50DD3950EF50D5028750D008023E6547FFA18860398
:20050A0008AE82AF8390099D7D07E4932BA3E4933A5003A3DDF48D0E8E828F83C00012065B
:20052A001EC082C083EFB47E02801940112482FDC3EA33FAEB33FBEC33FCDDF48006F424E1
:20054A007F12074B75F01BE4F8FFFEFD900931E933F9EA33FAEB33FBEC33FC5017E4932D23
:20056A00D4FD7401933ED4FE7402933FD4FF74039338D4F8A3A3A3A3D5F0D4E47C50FBFA95
:20058A00F9E50E232354FC888312074BED29D4F512EE3AD4F511EF3BD4F510E5833CD4F5FD
:2005AA000F92D5D083D082D00012061EC000C3749E9F5005D0000202F2C08212074BD082C9
:2005CA0030D50FE92401F9E43AFAE43BFBE43CFC40E2D2081203DE20060CE50E6008120614
:2005EA000E7003D50EF4E50E6015742E12072E7800D20408E812060E12071FE8B50EF4D03D
:20060A00000202DA14C31392D5240FF9E720D501C4540F22E618F9E618FC33E9339205FF79
:20062A006003430480E618FBE618FA7900C203D20222E6F9FD18200312AA01E6F918300264
:20064A000AAC02AB01E6FA18E6F91822E975F06484FE740AC5F084C445F0FD30030122EAFA
:20066A00540FF99007D1932DD4FDE94410933ED4FEEAC4540FF99007F1932DD4FDE94410DB
:20068A00933ED4FEE94420933400D4FF20020122EB540FF9900821932DD4FDE94410933EE2
:2006AA00D4FEE94420933FD4FFE43400FAEBC4540FF9900851932DD4FDE94410933ED4FEF5
:2006CA00E94420933FD4FFE94430933AD4FAEC540FF99008917B001206ECECC4540FF9909A
:2006EA0008E1932DD4FDE94410933ED4FEE94420933FD4FFE94430933AD4FAE94440933B71
:20070A00D4FB227420300702743012072E150DE50D70F022C4540F7003300419D20424901F
:20072A00D43440D4C083C082C000F5821201E0D000D082D083222004FC743002072ED0136F
:01074A00228C
:2007D1000056126824803692480460167228844000020507101215172023252830333538F0
:2007F100009692888480767268646056524844400040812263044586276809509132731465
:20081100000000010102020203030404040505060036720844801652882460963268044041
:20083100005510662176328742985308641975300006131926323945525865727885919886
:2008510000765228048056320884603612886440008571574328140086715743291400860B
:20087100000409141924293438434853586368720001020304050607080910111213141565
:2008910000163248648096122844607692082440007244168860320577492193653810825D
:2008B10000775533108866442199775432108865001633506783001734506784011834518B
:2008D10000000000000001010101010102020202005612682480369248046016722884409D
:2008F1000054096318722781369145005409631800438730741761044891357922660953BC
:200911000068360573421079471584522189582600020508101316182124262932343740BA
:20093100000000500000002500005012000025060050120300255601501278002506390085
:200951001253190056760900288804001444020007220100046100005230000026150000D9
:200971006307000081030000910100009500000048000000240000001200000006000000CD
:1A0991000300000001000000010000007DC5DDC334C2E0BE38BD86BBE4B9FE
:06003500E478FFF6D8FD9F
:20074B006040F82582500274FFF582E824F8501ECCCBCAF9E4CC24F85014CBCAF9E4CB24B6
:20076B00F8500BCAF9E4CA24F8500379002224086010F8C3EC13FCEB13FBEA13FAE913F969
:03078B00D8F12280
:200013007900E94400601B7A009009AB780175A200E493F2A308B8000205A2D9F4DAF275DB
:02003300A2FF2A
:20003B007800E84400600A790175A200E4F309D8FC7800E84400600C7900900001E4F0A3C1
:04005B00D8FCD9FAFA
:18078E00AA82AB831207A66003A380F8C3E5829AF582E5839BF58322E4
:0D0006007581211207C2E58260030200032C
:1C07A60020F71430F6148883A88220F507E6A88375830022E280F7E49322E02262
:0407C200758200221A
:00000001FF
