:04000000020029329F
:01000B0032C2
:0100130032BA
:01001B0032B2
:0300230002040FC5
:0300820002002653
:030026000205D000
:2000850075FFDE75FFAD22758400758841758921758E18758BB6758DAF75840075C90A7538
:2000A500CA3C75CBF675840275C90275CA8D75CB342275840075D84075DA422275840075BB
:2000C50098702275840075C04175CFE92275840075D41C2275840075D1032275840F75A42E
:2000E5008575A61F75E10C75E3402275840F758C677EB87F0BEE24FFFCEF34FFFD8C068DA5
:2001050007EC4D70F0E58C30E7FB759701758A832275A8902212008512008C1200B7120027
:20012500C11200C81200D21200D91200E01200F012011622AE82AF834389015389FDEE4FCC
:200145006016C28CC28D758A58758C9ED28C308DFD1EBEFF011F80E622AE82AF83438901C7
:200165005389FDEE4F6016C28CC28D758CFF758AE7D28C308DFD1EBEFF011F80E62275B0AB
:200185000075A00075900075800022AF82C2A200D2A4EF0303543FFE5306FC74024EFDA2E0
:2001A50001E433FC4DFE8EC800C2A4300023900001C007C00412015ED004D007D2A4EF2F00
:2001C50025E0FD74FC5DFE430602EC4EF5C800C2A4BF0400500B2001089005F012015E80E8
:2001E5000690002B12015E22C2A4900010120139D200C20175823012019090000512013914
:20020500D200C20175823012019090006512015ED200C201758230120190D200C201758229
:2002250020120190C200C201758228120190C200C201758208120190C200C20175820112F9
:200245000190C200C201758206120190C200C20175820C12019022000000002212025C12F2
:20026500025C2212026112025C22D2A3A20392A0A203B392A1A20292A212025CD2A4120249
:200285006175840FAFC8758400D2A3C00712025CC2A4120268D0078F8222AF82C202A2054C
:2002A5009203C00712026FE582D00720E7EEC2A3A20592A0A205B392A1A20492A275840F7A
:2002C5008FC875840012025CD2A4120268C2A475840F75C8FF75840012026822AF8253079B
:2002E5003F74404FF582C204A206920512029F22AF8253070774B84FF582C204A2079205DC
:2003050012029F227E007F008E82A2089207C007C0061202F5A20892067582001202E1D01F
:2003250006D0077C007D00D204A2089205758200C007C006C005C00412029FD004D005D092
:2003450006D0070CBC00010DC3EC9440ED6480948040D40EBE00010FC3EE9408EF648094D9
:200365008040A522E4F50AF50BF508F509C2A4D2A5D2A0D2A175840F75C8FF758400C20250
:20038500C20312026FE58230E40CC202D20312026FE58220E4E8C204C20575823F12029FA4
:2003A500C204D20575823F12029FC204C20575824012029FC204D20575824012029FC204EE
:2003C500C2057582B812029FC204D2057582B812029FC204C2057582C012029FC204D2055C
:2003E5007582C012029FC208120309D208120309C2077582001202F5C2067582001202E131
:200405002285829910990280FB22C022C0E0C0F0C082C083C007C006C005C004C003C0027B
:20042500C001C000C0D075D0002098030205B37469B59905B2870205B17461B59902800323
:200445000204DEE5FC70030205B115FC85FC82120D5FAC82AD83AEF0FFC004C005C006C00B
:200465000790000075F08074431205EBAC82AD83AEF0FFE58124FCF581C004C005C006C03C
:200485000790000075F0C87442120A77AC82AD83AEF0FFE58124FCF581E4C0E0C0E074803B
:2004A500C0E07443C0E08C828D838EF0EF120C80AC82AD83AEF0FFE58124FCF581C004C09C
:2004C50005C006C0077461C0E0740FC0E01205F6E58124FAF5810205B17464B59902800383
:2004E50002057F740125FC50030205B105FC85FC82120D5FAC82AD83AEF0FFC004C005C00A
:2005050006C00790000075F08074431205EBAC82AD83AEF0FFE58124FCF581C004C005C09B
:2005250006C00790000075F0C87442120A77AC82AD83AEF0FFE58124FCF581E4C0E0C0E0C8
:200545007480C0E07443C0E08C828D838EF0EF120C80AC82AD83AEF0FFE58124FCF581C0CB
:2005650004C005C006C0077461C0E0740FC0E01205F6E58124FAF5818032746DB59911741B
:200585007CC0E0740FC0E01205F615811581801C85990CAE997F00C006C00774C4C0E07479
:2005A5000FC0E01205F6E58124FCF581C298D0D0D000D001D002D003D004D005D006D007E8
:2005C500D083D082D0F0D0E0D0223212011A75840075FCFF74D1C0E0740FC0E01205F6151D
:0605E50081158180FE2259
:200D8100000000000000005F00000007000700147F147F14242A7F2A12231308646236491F
:200DA1005522500005030000001C2241000041221C00082A1C2A0808083E08080050300007
:200DC100000808080808003030000020100804023E5149453E00427F40004261514946214C
:200DE10041454B311814127F1027454545393C4A494930017109050336494949360649494A
:200E0100291E003636000000563600000008142241141414141441221408000201510906CD
:200E2100324979413E7E1111117E7F494949363E414141227F4141221C7F494949417F09FA
:200E41000901013E414151327F0808087F00417F41002040413F017F081422417F4040400E
:200E6100407F0204027F7F0408107F3E4141413E7F090909063E4151215E7F09192946468D
:200E81004949493101017F01013F4040403F1F2040201F7F2018207F6314081463030478FB
:200EA1000403615149454300007F4141020408102041417F0000040201020440404040401A
:200EC100000102040020545454787F484444383844444420384444487F3854545418087E72
:200EE100090102081454543C7F0804047800447D40002040443D00007F10284400417F4001
:200F0100007C041804787C0804047838444444387C14141408081414187C7C08040408481C
:200F210054545420043F4440203C4040207C1C2040201C3C4030403C44281028440C5050E1
:200F4100503C4464544C44000836410000007F0000004136080008082A1C08081C2A08083F
:200F610043617267612064652074726162616C686F3A20252E336625250A004D656E753AD3
:200F81000A69202D20496E7665727465204C45440A61202D2041756D656E74612052504DEC
:200FA10020646F206D6F746F720A64202D2044696D696E75692052504D20646F206D6F74D0
:1B0FC1006F72005465636C613A20272563270A000A0A496E6963696F0A0A008E
:0B05EB00A8811818C6B2E7C6020BBEBC
:2005F600C013858113E51324FDF8868318868218E493A3B42577C209C20AC20BC20CC20D3C
:20061600C20E790D7700C20FE493A324C64017240A50157005B50D02D20ED20DFAE775F0FA
:200636000AA42AF780E2240A2430B46C04D20980D7B46804D20A80D0B4730302068EB46477
:20065600061209680206EAB4750612096802070AB4630518E6188017B478030206C9B46661
:200676000302081EB42E06790E7700809B6006120A5A020606020A74C083C08286F0188635
:200696008318868218300D19C20EC082C083120D436007A3150DE50D70F4120A45D083D076
:2006B60082120D436006A3120A5A80F5D082D0830206061206E1200A0C1206E13009061220
:2006D60006E11206E1120A6C020606E6120A4AE618020A4BED30E71CD20CE9F42401F920D4
:2006F6000A12EAF43400FA30090AEBF43400FBECF43400FC200A10300908EB7024EC7021E4
:20071600C209EA701CD20AE97017200F14300D09E50D6005150D120A457430120A5A0206B1
:2007360006C082C083120982300D60790A30091DEB54F0703619EB540F703019EA54F07072
:200756002A19EA540F702419EF54F0701E7905200A0BEF540F701419EE54F0700E7903EEC9
:20077600540F700719ED54F0700119E50DA20C994019F50DC003C002C007C006C005120A2E
:2007960045D005D006D007D002D003300C19C003C002C007C006C005742D120A5AD005D0EF
:2007B60006D007D002D003200A4030092CC005C006C0078A82EBF583120A4AE583120A4BDC
:2007D600E582120A4AE582120A4BD0E0F582120A4AE582D083D08280058D828E83EF120A1F
:2007F6004BE583120A4AE58380038D82EE120A4BE582120A4AE582120A4B120A6CD083D035
:2008160082300F0122020606300D0EE50DD3950EF50D5028750D008023E6547FFA1886032A
:2008360008AE82AF839011A87D07E4932BA3E4933A5003A3DDF48D0E8E828F83C000120916
:200856004AC082C083EFB47E02801940112482FDC3EA33FAEB33FBEC33FCDDF48006F42486
:200876007F120B4875F01BE4F8FFFEFD90113CE933F9EA33FAEB33FBEC33FC5017E4932DE0
:20089600D4FD7401933ED4FE7402933FD4FF74039338D4F8A3A3A3A3D5F0D4E47C50FBFA66
:2008B600F9E50E232354FC8883120B48ED29D4F512EE3AD4F511EF3BD4F510E5833CD4F5CD
:2008D6000F92D5D083D082D00012094AC000C3749E9F5005D00002061EC082120B48D0823A
:2008F60030D50FE92401F9E43AFAE43BFBE43CFC40E2D20F12070A200D0CE50E60081209A4
:200916003A7003D50EF4E50E6015742E120A5A7800D20B08E812093A120A4BE8B50EF4D04D
:200936000002060614C31392D5240FF9E720D501C4540F22E618F9E618FC33E933920CFF13
:200956006003430480E618FBE618FA7900C20AD20922E6F9FD18200A12AA01E6F918300919
:200976000AAC02AB01E6FA18E6F91822E975F06484FE740AC5F084C445F0FD300A0122EAC4
:20099600540FF9900FDC932DD4FDE94410933ED4FEEAC4540FF9900FFC932DD4FDE9441086
:2009B600933ED4FEE94420933400D4FF20090122EB540FF990102C932DD4FDE94410933E99
:2009D600D4FEE94420933FD4FFE43400FAEBC4540FF990105C932DD4FDE94410933ED4FEB3
:2009F600E94420933FD4FFE94430933AD4FAEC540FF990109C7B00120A18ECC4540FF99028
:200A160010EC932DD4FDE94410933ED4FEE94420933FD4FFE94430933AD4FAE94440933B2E
:200A3600D4FB227420300E027430120A5A150DE50D70F022C4540F7003300B19D20B2490AC
:200A5600D43440D4C083C082C000F582120406D000D082D08322200BFC7430020A5AD013E1
:010A7600225D
:200FDC000056126824803692480460167228844000020507101215172023252830333538DD
:200FFC00009692888480767268646056524844400040812263044586276809509132731452
:20101C0000000001010202020303040404050506003672084480165288246096326804402E
:20103C00005510662176328742985308641975300006131926323945525865727885919873
:20105C000076522804805632088460361288644000857157432814008671574329140086F8
:20107C00000409141924293438434853586368720001020304050607080910111213141552
:20109C0000163248648096122844607692082440007244168860320577492193653810824A
:2010BC00007755331088664421997754321088650016335067830017345067840118345178
:2010DC0000000000000001010101010102020202005612682480369248046016722884408A
:2010FC000054096318722781369145005409631800438730741761044891357922660953A9
:20111C000068360573421079471584522189582600020508101316182124262932343740A7
:20113C00000000500000002500005012000025060050120300255601501278002506390072
:20115C001253190056760900288804001444020007220100046100005230000026150000C6
:20117C006307000081030000910100009500000048000000240000001200000006000000BA
:1A119C000300000001000000010000007DC5DDC334C2E0BE38BD86BBE4B9EB
:200A7700120B1ABC0003020C38EF60FA30D502B2D1E583B4FF03020C4EE582B4FF03020CAB
:200A97004E258340072482400B020C382483145003020C4EF582EA8DF0A4A8F0EA8EF0A43B
:200AB70028F8E435F0F9EB8DF0A428E935F0F9E433CA8FF0A429F9EA35F0FAEBF88EF0A48E
:200AD70029F9EA35F0FAE433FBEC8DF0A429F9EA35F0FAE43BFBE88FF0A42AFAEB35F0FB36
:200AF700E433CCFD8EF0A42AFAEB35F0FBE43CFCED8FF0A42BFBEC35F0FC20E703120B8B9D
:030B1700020C17B6
:200B1A00AA82AB83A2F73392D1F5826002D2F7ACF0E58124F9F8E6FD08E6FE0886F008E63E
:0E0B3A00A2F73392D5F5836002D2F7AFF02216
:06005800E478FFF6D8FD7C
:200B48006040F82582500274FFF582E824F8501ECCCBCAF9E4CC24F85014CBCAF9E4CB24B5
:200B6800F8500BCAF9E4CA24F8500379002224086010F8C3EC13FCEB13FBEA13FAE913F968
:030B8800D8F1227F
:200B8B007804EC7011E58224F8500AF582E4C9CACBFCD8EF22EC7820058220E713D5820169
:130BAB0022C3E933F9EA33FAEB33FBEC33FCD8EA15822277
:200036007900E94400601B7A009011B6780175A200E493F2A308B8000205A2D9F4DAF275A5
:02005600A2FF07
:200BBE00120B1A7900E583B58202800D5003120C66E583C39582120B48E5D0C465D020E10C
:200BDE0017EA2DFAEB3EFBEC3FFC50097401120B48EC4480FC020C17C3EA9DFAEB9EFBECCC
:190BFE009FFC500FC3E499F9E49AFAE49BFBE49CFCB2D1120B8B020C17ED
:20005E007800E84400600A790175A200E4F309D8FC7800E84400600C7900900001E4F0A39E
:04007E00D8FCD9FAD7
:200C1700B98003EA13B34010EA2401FAE43BFBE43CFC50047C800582BC000EBB000BBA0021
:200C370008E4F5F0F583F58222A2D1E582138CF092F78B838A8222E4F583F58275F080F4E1
:0F0C5700A2D11322E4F583F58275F0C0747F22D9
:1A0C6600E582C583F582A2D133A2D592D11392D5ECCFFCEBCEFBEACDFA2216
:200C8000120B1A30D502B2D1BF0009BC0003020C5B020C4EBC0003020C38E583B4FF0BE537
:200CA00082B4FF03020C5B020C38E582B4FF03020C4EC395835007247F400B020C382480CA
:200CC000145003020C4EF582C3ED9AEE9BEF9C40111582C3EA33F9EB33FAEC33FBE433FC76
:200CE0008005E4CCCBCAF9C08275F019C3E99DEA9EEB9FEC9400D5F002802D400EE99DF955
:200D0000EA9EFAEB9FFBEC9400FCC3B3E833F8E58233F582E58333F583C3E933F9EA33FAB4
:200D2000EB33FBEC33FC80C4B3E4F938FAE43582FBE43583FCD082500405827C80120B8B7A
:030D4000020C2F73
:0D002900758122120D7DE582600302002624
:1C0D430020F71430F6148883A88220F507E6A88375830022E280F7E49322E022BF
:0B0D5F00E4AC82FBFAF97486020D730D
:130D6A00FCABF0AA83A982749EC2D1F582120B8B020C179E
:040D7D007582002259
:00000001FF
