:03000000020006F5
:03005F0002000399
:030003000205AA49
:2000620075FFDE75FFAD22758400758801758922758E10758A5D758BB6758C5D758DAF7529
:20008200840075C90A75CA3C75CBF675840275C90275CA8D75CB342275840075D90475DAAA
:2000A2004275F95D75FA5D227584007598602275840075C04175CFE922758400759A407540
:2000C200F801759D7C2275840075D41C2275840075D1032275840F75A49575A61F75E10645
:2000E20075E3402275840F758C677EB87F0BEE24FFFCEF34FFFD8C068D07EC4D70F0E58CB8
:2001020030E7FB759701758A032275A8802212006212006912009A1200AA1200B11200BBF4
:200122001200C81200CF1200D61200E612010C22AE82AF834389015389FDEE4F6016C28CD8
:20014200C28D758A58758C9ED28C308DFD1EBEFF011F80E622AE82AF834389015389FDEEC7
:200162004F6016C28CC28D758CFF758AE7D28C308DFD1EBEFF011F80E62275B00075A00060
:2001820075900075800022AF82C2A200D2A4EF0303543FFE5306FC74024EFDA201E433FCE4
:2001A2004DFE8EC800C2A4300023900001C007C004120157D004D007D2A4EF2F25E0FD74A8
:2001C200FC5DFE430602EC4EF5C800C2A4BF0400500B2001089005F0120157800690002BA7
:2001E20012015722C2A4900010120132D200C201758230120189900005120132D200C2015F
:20020200758230120189900065120157D200C201758230120189D200C2017582201201891A
:20022200C200C201758228120189C200C201758208120189C200C201758201120189C20081
:20024200C201758206120189C200C20175820C1201892200000000221202551202552212D2
:20026200025A12025522D2A3A20392A0A203B392A1A20292A2120255D2A412025A75840F91
:20028200AFC8758400D2A3C007120255C2A4120261D0078F8222AF82C202A2059203C0076A
:2002A200120268E582D00720E7EEC2A3A20592A0A205B392A1A20492A275840F8FC8758490
:2002C20000120255D2A4120261C2A475840F75C8FF75840012026122AF8253073F74404FC1
:2002E200F582C204A206920512029822AF8253070774B84FF582C204A2079205120298225A
:200302007E007F008E82A2089207C007C0061202EEA20892067582001202DAD006D0077CAC
:20032200007D00D204A2089205758200C007C006C005C004120298D004D005D006D0070C0C
:20034200BC00010DC3EC9440ED6480948040D40EBE00010FC3EE9408EF6480948040A5223E
:20036200E4F50AF50BF508F509C2A4D2A5D2A0D2A175840F75C8FF758400C202C203120201
:2003820068E58230E40CC202D203120268E58220E4E8C204C20575823F120298C204D205F8
:2003A20075823F120298C204C205758240120298C204D205758240120298C204C2057582E5
:2003C200B8120298C204D2057582B8120298C204C2057582C0120298C204D2057582C01269
:2003E2000298C208120302D208120302C2077582001202EEC2067582001202DA22AF82BF0E
:20040200090050368F057E00ED24FFF50AEE34FFF50B850A82C2071202EE850A82D2071231
:2004220002EEC2067582001202DAD2067582001202DAE4F508F509020556C3E5089408E5F3
:2004420009648094805004C2098002D2097E00EF24E0F513EE34FFF514900005120B75AEA5
:2004620082AF83EE24B2FEEF340BFF8E828F83E493FDD204A20992058D82C007C006120279
:2004820098D006D0078E828F83A3E493FDD204A20992058D82C007C006120298D006D007CF
:2004A2008E828F83A3A3E493FDD204A20992058D82C007C006120298D006D0078E828F832F
:2004C200A3A3A3E493FDD204A20992058D82C007C006120298D006D0078E828F83A3A3A3A5
:2004E200A3E493FFD204A20992058F82120298D204A2099205758200120298D204A209923E
:2005020005758200120298D204A20992057582001202980508E4B508020509C3E508941064
:20052200E50964809480402CE4F508F509050AB50A02050B850A82C2071202EE850A82D2E9
:20054200071202EEC2067582001202DAD2067582001202DA22AE82AF838E05C2A3759B0298
:2005620030F9FD8F9B30F9FD8D9B30F9FD85139B30F9FDC2FF10FF0280FBD2A322AE82AF99
:20058200838E05C2A3759B0330F9FD8F9B30F9FD8D9B30F9FD759B0030F9FDC2FF10FF02FF
:2005A20080FBD2A3859B82221201107584001203627492C0E0740DC0E01206B11581158136
:2005C2007E007F007C007D00C007C006C005C004C004C00574ABC0E0740DC0E01206B1E5F6
:2005E2008124FCF581D004D0057513AA8C828D83C005C004120557D004D0058C828D83C06B
:2006020005C00412057FAB82D004D005D006D007BBAA02801FC007C006C006C00774B9C0E9
:20062200E0740DC0E01206B1E58124FCF581D006D00780637513558C828D83C007C006C01A
:2006420005C004120557D004D0058C828D83C005C00412057FAB82D004D005D006D007BB3D
:200662005502801FC007C006C006C00774B9C0E0740DC0E01206B1E58124FCF581D006D00F
:20068200078014BCFF05BDFF02800C0CBC00010D8C068D070205CABEFF12BFFF0F74C6C050
:0F06A200E0740DC0E01206B11581158180FE22B3
:200BB200000000000000005F00000007000700147F147F14242A7F2A1223130864623649F0
:200BD2005522500005030000001C2241000041221C00082A1C2A0808083E080800503000D8
:200BF200000808080808003030000020100804023E5149453E00427F40004261514946211D
:200C120041454B311814127F1027454545393C4A494930017109050336494949360649491A
:200C3200291E0036360000005636000000081422411414141414412214080002015109069E
:200C5200324979413E7E1111117E7F494949363E414141227F4141221C7F494949417F09CB
:200C72000901013E414151327F0808087F00417F41002040413F017F081422417F404040DF
:200C9200407F0204027F7F0408107F3E4141413E7F090909063E4151215E7F09192946465E
:200CB2004949493101017F01013F4040403F1F2040201F7F2018207F6314081463030478CC
:200CD2000403615149454300007F4141020408102041417F000004020102044040404040EB
:200CF200000102040020545454787F484444383844444420384444487F3854545418087E43
:200D1200090102081454543C7F0804047800447D40002040443D00007F10284400417F40D1
:200D3200007C041804787C0804047838444444387C14141408081414187C7C0804040848ED
:200D520054545420043F4440203C4040207C1C2040201C3C4030403C44281028440C5050B2
:200D7200503C4464544C44000836410000007F0000004136080008082A1C08081C2A080810
:200D9200012054657374696E672E2E2E022030202D3E2036353533350002202575202D3E6C
:1E0DB2002036353533350003204661696C3A2030782578000320537563657373210003
:2006B100C012858112E51224FDF8868318868218E493A3B42577C20AC20BC20CC20DC20E7E
:2006D100C20F790C7700C210E493A324C64017240A50157005B50C02D20FD20EFAE775F03D
:2006F1000AA42AF780E2240A2430B46C04D20A80D7B46804D20B80D0B47303020749B464FE
:2007110006120A230207A5B47506120A230207C5B4630518E6188017B47803020784B466FA
:20073100030208D9B42E06790D7700809B6006120B150206C1020B2FC083C08286F018868C
:200751008318868218300E19C20FC082C083120B926007A3150CE50C70F4120B00D083D0B1
:2007710082120B926006A3120B1580F5D082D0830206C112079C200B0C12079C300A061226
:20079100079C12079C120B270206C1E6120B05E618020B06ED30E71CD20DE9F42401F920B0
:2007B1000B12EAF43400FA300A0AEBF43400FBECF43400FC200B10300A08EB7024EC702124
:2007D100C20AEA701CD20BE97017201014300E09E50C6005150C120B007430120B1502067C
:2007F100C1C082C083120A3D300E60790A300A1DEB54F0703619EB540F703019EA54F0703E
:200811002A19EA540F702419EF54F0701E7905200B0BEF540F701419EE54F0700E7903EE0C
:20083100540F700719ED54F0700119E50CA20D994019F50CC003C002C007C006C005120B72
:2008510000D005D006D007D002D003300D19C003C002C007C006C005742D120B15D005D0BB
:2008710006D007D002D003200B40300A2CC005C006C0078A82EBF583120B05E583120B06A6
:20089100E582120B05E582120B06D0E0F582120B05E582D083D08280058D828E83EF120B2E
:2008B10006E583120B05E58380038D82EE120B06E582120B05E582120B06120B27D083D012
:2008D10082301001220206C1300E0EE50CD3950DF50C5028750C008023E6547FFA188603B6
:2008F10008AE82AF83900F9C7D07E4932BA3E4933A5003A3DDF48D0D8E828F83C000120A69
:2009110005C082C083EFB47E02801940112482FDC3EA33FAEB33FBEC33FCDDF48006F4240F
:200931007F120B3275F01BE4F8FFFEFD900F30E933F9EA33FAEB33FBEC33FC5017E4932D48
:20095100D4FD7401933ED4FE7402933FD4FF74039338D4F8A3A3A3A3D5F0D4E47C50FBFAAA
:20097100F9E50D232354FC8883120B32ED29D4F511EE3AD4F510EF3BD4F50FE5833CD4F52B
:200991000E92D5D083D082D000120A05C000C3749E9F5005D0000206D9C082120B32D0821E
:2009B10030D50FE92401F9E43AFAE43BFBE43CFC40E2D2101207C5200E0CE50D600812092C
:2009D100F57003D50DF4E50D6015742E120B157800D20C08E81209F5120B06E8B50DF4D0A6
:2009F100000206C114C31392D5240EF9E720D501C4540F22E618F9E618FC33E933920DFF9D
:200A11006003430480E618FBE618FA7900C20BD20A22E6F9FD18200B12AA01E6F918300A59
:200A31000AAC02AB01E6FA18E6F91822E975F06484FE740AC5F084C445F0FD300B0122EA07
:200A5100540FF9900DD0932DD4FDE94410933ED4FEEAC4540FF9900DF0932DD4FDE94410E6
:200A7100933ED4FEE94420933400D4FF200A0122EB540FF9900E20932DD4FDE94410933EEA
:200A9100D4FEE94420933FD4FFE43400FAEBC4540FF9900E50932DD4FDE94410933ED4FE05
:200AB100E94420933FD4FFE94430933AD4FAEC540FF9900E907B00120AD3ECC4540FF990BF
:200AD1000EE0932DD4FDE94410933ED4FEE94420933FD4FFE94430933AD4FAE94440933B81
:200AF100D4FB227420300F027430120B15150CE50C70F022C4540F7003300C19D20C249034
:200B1100D43440D4C083C082C000F5821203FFD000D082D08322200CFC7430020B15D01271
:010B310022A1
:200DD0000056126824803692480460167228844000020507101215172023252830333538EB
:200DF000009692888480767268646056524844400040812263044586276809509132731460
:200E100000000001010202020303040404050506003672084480165288246096326804403C
:200E3000005510662176328742985308641975300006131926323945525865727885919881
:200E5000007652280480563208846036128864400085715743281400867157432914008606
:200E7000000409141924293438434853586368720001020304050607080910111213141560
:200E9000001632486480961228446076920824400072441688603205774921936538108258
:200EB000007755331088664421997754321088650016335067830017345067840118345186
:200ED000000000000000010101010101020202020056126824803692480460167228844098
:200EF0000054096318722781369145005409631800438730741761044891357922660953B7
:200F10000068360573421079471584522189582600020508101316182124262932343740B5
:200F3000000000500000002500005012000025060050120300255601501278002506390080
:200F50001253190056760900288804001444020007220100046100005230000026150000D4
:200F70006307000081030000910100009500000048000000240000001200000006000000C8
:1A0F90000300000001000000010000007DC5DDC334C2E0BE38BD86BBE4B9F9
:06003500E478FFF6D8FD9F
:200B32006040F82582500274FFF582E824F8501ECCCBCAF9E4CC24F85014CBCAF9E4CB24CB
:200B5200F8500BCAF9E4CA24F8500379002224086010F8C3EC13FCEB13FBEA13FAE913F97E
:030B7200D8F12295
:200013007900E94400601B7A00900FAA780175A200E493F2A308B8000205A2D9F4DAF275D6
:02003300A2FF2A
:1D0B7500E5828513F0A4C582C0F08514F0A4D0F025F0C5838513F0A42583F5832221
:20003B007800E84400600A790175A200E4F309D8FC7800E84400600C7900900001E4F0A3C1
:04005B00D8FCD9FAFA
:0D000600758122120BAEE58260030200033B
:1C0B920020F71430F6148883A88220F507E6A88375830022E280F7E49322E02272
:040BAE00758200222A
:00000001FF
